:020000040100F9
:1000000017E1010F13010180170500001305851783
:100010001365150073105530996273A00230731088
:100020003000B74200109382224D054383820200C4
:100030006387620417E50000130545EF9705010F7C
:10004000938545FC1706010F1306C60263FAC50027
:100050008322050023A0550011059105E3EAC5FEA2
:100060001705010F130505019745010F9385C57D00
:100070006377B500232005001105E36DB5FEB712C7
:1000800000009382028073A04230A14273A002302C
:10009000EF10200101A073700430730020307360F2
:1000A00004307300203001005D7106C012C216C416
:1000B0001AC61EC82ACA2ECC32CE36D03AD23ED468
:1000C00042D646D872DA76DC7ADEFEC0F3221034ED
:1000D0007323203496C29AC497020000938282133D
:1000E00037030200130343C00323030093132300C9
:1000F0009E9283A302009AC68293737004303643A3
:10010000B7020200938242C023A06200B72200001F
:100110009382028873A002309642264373102334E0
:100120007390123482401242A2423243C24352457B
:10013000E245724682561257A2573258C258525E52
:10014000E25E725F864F6161730020300000000044
:10015000000000000000000000000000000000009F
:10016000000000000000000000000000000000008F
:10017000000000000000000000000000000000007F
:10018000711116C0F322203463C40204110113015B
:1001900041FA06C00AC20EC412C616C81ACA1ECC3C
:1001A00022CE26D02AD22ED432D636D83ADA3EDC27
:1001B00042DEC6C0F2C2F6C4FAC6FEC873251034C9
:1001C000AACA73250030AACC0A85EF00400101A01D
:1001D000824211016FF05FED7D157DFD82806F0021
:1001E00000001300000013000000130000001300C3
:1001F00000001300000013000000130000000100C5
:100200006F00000013000000130000001300000046
:1002100000000000000000000000000000000000DE
:1002200000000000000000000000000000000000CE
:1002300000000000000000000000000000000000BE
:1002400000000000000000000000000000000000AE
:100250000002000100020001000200010002000192
:100260000002000100020001000200010002000182
:100270000002000100020001000200010002000172
:100280000002000100020001000200010002000162
:100290000002000100020001000200010002000152
:1002A0000002000100020001000200010002000142
:1002B0000002000100020001000200010002000132
:1002C000000200010000000000000000000000002B
:1002D000BA4100010002000100020001000000001C
:1002E000A30200000200410000000101FB0E0D000E
:1002F00001010101000000010000012E2F2E2E2F10
:100300002E2E2F2E2E2F506C6174666F726D2F73F0
:100310007461727475700000737461727475705FCB
:10032000727633322E7300010000000005020000D7
:100330000001031601030309080001030109080075
:100340000103010904000103030904000103010979
:100350000200010301090400010303090400010371
:100360000109080001030109020001030109040059
:100370000103030904000103010908000103010945
:100380000800010301090800010302090400010338
:10039000010904000103010904000103010902002D
:1003A000010301090200010303090400010301091B
:1003B0000800010301090800010302090400010308
:1003C0000109040001030109020001030B090400F3
:1003D00001030109080001030209040001030109E6
:1003E00002000103020904000103040904000103DF
:1003F00011090200010301090400010304090400BA
:100400000103010904000103D300090600010302EE
:10041000092400010303090C00010302090800017B
:100420000301090800010301090400010301090493
:100430000001030109020001030109040001030591
:10044000090200010302090200010303090400017B
:100450000301090200010301090800010304090462
:10046000000103010908000103020904000103025D
:10047000090C000103020924000109040000010124
:100480000005028001000103E901010301090200E6
:10049000010301090200010301090400010301092C
:1004A0000400010303090200010301090400010320
:1004B0000109020001030109020001030109020010
:1004C00001030109020001030109020001030109FE
:1004D00002000103010902000103010902000103F6
:1004E00001090200010301090200010301090200E0
:1004F00001030109020001030109020001030109CE
:1005000002000103010902000103010902000103C5
:1005100001090200010301090200010301090200AF
:10052000010301090200010302090200010301099C
:100530000400010301090200010301090400010391
:100540000109020001030309020001030309040079
:10055000010303090200010301090200010302096A
:10056000020001030709040001030109020001035D
:100570000109020001030609020001030809220023
:100580000109DC000001011E0000000200A90500B5
:10059000010401E002000168060001E80500011302
:1005A00006000156060001018001110010065506E3
:1005B000030E1B0E250E13050000000000000000B6
:1005C0002400000002008705000104000000000074
:1005D000000000014C010000800100015C010000EE
:1005E00000000000000000002E2F2E2E2F2E2E2F98
:1005F0002E2E2F506C6174666F726D2F7374617242
:100600007475702F737461727475705F72763332A3
:100610002E7300443A5C59435C4D595F53444B5C24
:1006200050524A5F4F55545055545C484430303214
:1006300038395F7433365F6167A1AAC8FDD0C75FE0
:10064000313831355F736D5F7830335F64315F32DD
:100650006A5C47434300474E5520415320322E33B6
:10066000312E310000000000FFFFFFFF00000000FE
:10067000000000014C01000180010001DC020001CA
:08068000000000000000000072
:10100000EF92307E37150110896513050500EF005A
:10101000304BEF30C065EF30A037631A050237055B
:1010200001101305C500EF10700D0D45EF402013A2
:101030001545EF406014EF30B06185669386868475
:101040001306B00FB6851305B00FEF30F0686F9040
:10105000907BEF921079C922EF306036370501108E
:1010600013050500EF20B0276F90F079EF927077AD
:101070003705011013050500EF2070260545EF30F8
:10108000E042C128B7070110239E076AEF304030C5
:10109000631705009305E0030545EF30B04D6F90F1
:1010A0009076EF921074D937A13FEF90204CEF90DB
:1010B000204AEF10007B713FDDBFEF9290722A84CF
:1010C000B304B500631494006F90F07303450400FB
:1010D00005041120C5BF73700430B707011003D792
:1010E000C76B37860010930670020507239EE76AD8
:1010F0003E8783476635E3EEF6FEB707011083A609
:10110000876B37360110130616032380A60083A6CB
:10111000876B8506636AD60223ACD76A03C6876BE2
:10112000B7860010238FC60683C7976BA38FF6067A
:101130008357C76BFD17C207C183231EF76A6394E9
:101140000700736004308280B73601109386060072
:10115000E1B7EF921069B787001003C7370437363D
:1011600001101306060013671700A381E70403C7E5
:1011700017059376F60F1377F707A388E70431472F
:10118000A384E708130740032389E706130700F841
:10119000A389E706131706014183238DD7069355CC
:1011A0008700A38DB70613071703238FD7064207BF
:1011B00093861603A38FB70693F6F60F4183238E0B
:1011C000D7062183A38EE70637370110130747039D
:1011D0009376F70F42074183238AD70693558700FA
:1011E000A38AB7060507238CD70642078506A38C7A
:1011F000B70693F6F60F4183238BD7062183A38B83
:10120000E706130710F8A388E706B707011023AC19
:10121000C76A89206F90305FEF92B05CAD2A6F9003
:10122000905E9307A0FA2300F600A300A600230116
:10123000B6001307E00293F7F50F6374B700930746
:10124000E0023E961307B0FBA301E600910723805E
:10125000F6008280EF925057B747001083C6C74C04
:1012600003C5D74C03C7E74C22054207598D558D5E
:1012700037070110B706001013070707558D08C37D
:1012800083C5A74B03C4B74B03C6C74B2204420612
:10129000518C4D8C558C40C383C5D74B83CAE74BCB
:1012A00003C6F74BA20A4206B3EACA00B3EABA0081
:1012B000B3EADA002324570183C5074C03CA174C4D
:1012C00003C6274C220A4206336ACA00336ABA00B0
:1012D000336ADA002326470183C5374C83C9474C5C
:1012E00003C6574CA2094206B3E9C900B3E9B900E5
:1012F000B3E9D9002328370183C5674C03C9774C6C
:1013000003C6874C220942063369C9003369B90014
:101310003369D900232A270183C5974C83C4A74C7E
:1013200003C6B74CA2044206D18CCD8CD58C04CF19
:1013300003C3F74C03C6074D03C8174D83C8C74CFA
:1013400003C7D74C83C5E74C420893178700220692
:101350001397050133660601D98F33666600B3E73C
:101360001701D58F558E1D8E91473346F602814564
:101370000A06EF90D05B23800A0023000A00238036
:10138000090023100900239004009307F0052300AF
:10139000F4006F90B046EF925042B7090110938766
:1013A0000907397103AB4701984FA305010073701A
:1013B0000430B704011083D7C46B814593890907B2
:1013C0008507239EF46A835A070003540B00130C0D
:1013D0000003C20A420493DA0A014180374900102F
:1013E000B70B0010139705014183631B540383D788
:1013F000C46BFD17C207C183239EF46A6387070885
:10140000630D070093F5F50F01459306B1007000D9
:10141000093D8345B10068004D3121616F90703DF9
:10142000138A4500E3058AFD83A50900931724006C
:101430001146BE959307B10033854701ED2E034554
:10144000F94C8347094D0346194D8345C94C034761
:10145000D94C8346E94CA20742062207C206D18F27
:10146000558F4D8FC98F33677701B3E77701998F18
:101470001147B3C7E7020504D285B367F40213949A
:101480000701418023108B00B1BF736004308DBF12
:1014900063830504EF92F0349307B00F41112E845B
:1014A00063D4B7001304B00F9307A02AAA848D4514
:1014B00068002316F100230781000131A2852685EB
:1014C000ED3E9307B0FB680085452306F100F53635
:1014D00041016F905033828081471308700C63C3C1
:1014E000D700828003C70500E36DE8FEB308F6006D
:1014F00083C808002A9785072300170103C7050042
:1015000093F7F70F05072380E500D1BFEF92F02A8C
:101510000111B7BA000137BB0001AA893289B6842C
:10152000014A953D938A0A1FA3050100130BCB1DA9
:10153000B7BB0001130C500283070900639407082E
:101540000345B10005616F90D02A85063304D900A8
:101550008307040063848701E39907FE638706001D
:101560004A869305B1004E85853F83070400228992
:10157000E39487FD130614001308000201441307C7
:1015800040061305900393060003A94513091600AE
:101590008307F9FF638BE70A634BF7046346F502A1
:1015A00063DDD70A1307500285466387E70037B625
:1015B00000019546130646209305B1004E85293F4C
:1015C000268C95A8814659B7130780056380E714D8
:1015D00013073006E39DE7FC9C40138C44008546CE
:1015E0003EC670009305B1004E85FD35A9A01307D6
:1015F00050076389E7106342F7041307000763800D
:10160000E71213073007E394E7FA138C4400904085
:101610008144B307960083870700639B070CA68667
:101620009305B1004E854D3D63F78400058CFD5454
:101630007D146311940CE284F5BD13078007638069
:10164000E70E1307A007E394E7F69C40138C4400D1
:1016500063C207023EC6014715A06396D700631414
:101660000400130800033304B4024A86130404FD83
:101670003E9429BFB307F0403EC60547A947B2488C
:101680000546B306F60263E6D800B3D5F602638FCB
:10169000C5088146630D0700930500037D14631898
:1016A000B8009306D0022308D100BA8601479305FB
:1016B000E4FF3545636FB50008089305F4FF3695E0
:1016C00023000501FD150505E39C05FE36949306F0
:1016D000F4FF63090700181036979305D00223081A
:1016E000B7FE850693058007631506041008DDBD67
:1016F000850405B7854613868B1D9305B1004E857D
:10170000E13B3DB7138C44009C40A9B79C40138C2F
:101710004400130A80053EC60147C1478DB79C406F
:10172000138C4400130A80073EC6FDB77D1436862D
:1017300089BF33D7C8023377F702631DBA005A97BF
:1017400003070700080836952300E5008506335691
:10175000F60259BF5697EDB71171AED3B2D5B6D7D1
:101760002A86D4119305800C280086CFBAD9BEDB17
:10177000C2DDC6DF36C2593B63050500AA852800D5
:10178000013BFE4011618280634505021377F50F2E
:10179000B7070200938707A00D833E978346070093
:1017A0001D898547B397A700D58F93F7F70F2300BF
:1017B000F7008280634505021377F50FB707020033
:1017C000938707A00D833E97834607001D898547B1
:1017D000B397A70093C7F7FFF58F2300F700828028
:1017E000634905029387F5FF39476364F7029377EE
:1017F000F50F7D67130707408583BA9703C7070076
:1018000005890A05B395A500D98D93F5F50F2380B9
:10181000B7008280EF92E07C411185472EC62A8472
:101820006319F6009537B24522855D3F41016F90FF
:10183000807D4937CDBF81473708001063C3C7009B
:101840008280B386F500B3E6060183C6060033073F
:10185000F5003367070193F6F60F2300D7008507DD
:10186000F1BF01A08147B706001063C4C70005455A
:1018700082803307F500558F034807003387F50052
:10188000558F034707001377F70F63140701850788
:10189000E9BF014582809317F5003787001063D2B6
:1018A00007048346B7018347C7011377F50FA207E3
:1018B000D58FC207C187638105021345F7FF7D8D70
:1018C000420541811377F50FB7870010A38DE7001C
:1018D0002181238EA7008280139507014181598DB4
:1018E000D5B7834607058347170542054181A207FF
:1018F000D58F33E7A700638605001345F5FF33F75F
:10190000A700B78700109376F70F13558700238839
:10191000D704A388A7048280B75700100547238DFA
:10192000E7BE13075003238EE7BE930650033757D5
:1019300000108347B7BF93F7F70F6386070083470D
:10194000C7BFE388F6FE8280B7570010238D07BE1D
:101950008280EF92006941112AC62EC432C2737090
:101960000430370401108357C46B8507231EF46AC3
:1019700065373245B78700101377F50F2386E704E4
:10198000135785401377F70FA386E70413570541D4
:101990001377F70F2387E7046181A387A704A24584
:1019A000B70700101246DD8D83C705001305803E82
:1019B0005D8E2380C5004922413F8357C46BFD17CC
:1019C000C207C183231EF46A639407007360043066
:1019D00041016F904063EF92C0602E86A165E505DE
:1019E0008D3F6F904062EF92C05F9145ED376F90F1
:1019F0008061EF92005F93050008F13F6F90A06057
:101A0000378700100346873A8347973A8346A73AB9
:101A10000345B73AA20713970601D98FD18F620504
:101A20005D8D8280B78700101375F50F2383A7188B
:101A300013F7F50FA381E71813D785401377F70F36
:101A4000C1852382E71893F5F50FA382B71803C762
:101A500077181377F707A383E71803C77718136777
:101A60000708A383E7188280B787001003C7771899
:101A7000860521051377F707A383E71803C77718AF
:101A8000AA950A06B29592053D8BBA9593F5F50F86
:101A9000A383B7188280B78700101375F50F2381D1
:101AA000A71813F7F50FA380E70C13D7854013771A
:101AB000F70FC1852381E70C93F5F50FA381B70CD0
:101AC00003C777181377770FA383E71803C777182F
:101AD00013678700A383E718828037870010834746
:101AE000771886050A0693F7770FA303F71883473D
:101AF000771893F7070FA1073E952E95329513752A
:101B0000F50FA303A7188280EF92A04DB7058000C0
:101B10001305E003013F014681450545B137B7F59F
:101B200006009385A57413054004B5370146814529
:101B3000054565376F90204DEF92A04A2A84EF202B
:101B4000805CB7871E00938707483355F50233053D
:101B50008502EFE06FE86F90004BB78700100D47EC
:101B60002388E7008280B70701109387C70998434D
:101B7000636FA702D043B386C7006316D5005441F4
:101B80003E85B296D4C35041B306C500631CD7004E
:101B9000B706011083A6460A6306D70054431843CC
:101BA000B29654C118C16303F50088C38280BA8716
:101BB0007DBFEF926041370701108324C7082D05D0
:101BC0009377C5FF63E5F408BA893707011003244A
:101BD000C7091307C709544063F5F60010406315A1
:101BE0000606370601100326460A0149630B8604E0
:101BF00010400329070010C33387F640C14621096E
:101C000063F7E6003305F40058C15CC0A93F5840B3
:101C1000B706011003A60609B387E44023A6F90816
:101C200063F4C70023A8F608B70700805D8F58C08B
:101C30003707011083274709232004008507232A3B
:101C4000F7084A856F90803B2287328469B77370AA
:101C50000430370701108357C76B37B6000137B51B
:101C6000000185071306C6229305D00B1305C52076
:101C7000231EF76A0149F536E9B763020504832795
:101C8000C5FF63DE07028607032785FF8583232EB2
:101C9000F5FE63160702EF92C034B706011003A7E2
:101CA000C6086115BA9723A6F608753D37070110D7
:101CB000832787098507232CF7086F90C03482801B
:101CC000B70701109387C709E11523A20700AA955A
:101CD00088C3B70701103707011023A2B70AB387DB
:101CE000A54023A2050023A005002328F7083707F5
:101CF00001105CC10CC12326F7088280EF92C02C32
:101D000037090110B70401100144B70A0110130983
:101D1000890A8549370A01109384041083C7CA12BF
:101D20006364F4006F90802D93173400CA9703D733
:101D300007006314370303D767006314070283D6D1
:101D4000270003D747006399E60223900700931703
:101D50002400A6978843EF40B02505041374F40FC0
:101D600075BFE31C37FF83D6270003D74700639571
:101D7000E60023910700E1BF7370043003D727000A
:101D80008356CA6B05072391E700E39806FC73604E
:101D90000430E1B7B707011083C7C712637CF502AF
:101DA000370701101307071093172500BA979843B8
:101DB0009307400F630E0700B70701109387870A48
:101DC0000E053E9585472310F50023110500814738
:101DD0003E8582809307200FE5BFB707011083C7B8
:101DE000C7122A876378F502B706011093172500FA
:101DF00093860610B6979C431305400F638E070029
:101E0000B70701100E079387870ABA972390070038
:101E1000014582801305200F8280B707011083C718
:101E2000C7126373F50625479307200F637CB70439
:101E3000370701101307071093172500BA97984327
:101E40009307400F6300070473700430B707011055
:101E500003D7C76BB70701109387870A0E053E9516
:101E600085472310F500A947B3D5F50223110500D6
:101E70002313C5008147FD152312B5006314070025
:101E8000736004303E8582809307200FE5BFB7075B
:101E9000011083C5C71229473E866367B70413073D
:101EA000100F630A05023707011013080710814756
:101EB000930607108328080013F7F70F638DA80017
:101EC000639D08008A07B69788C36396E500930769
:101ED00017002306F6123A858280850713F7F70F5D
:101EE0001108E3F9E5FCC5BF1307200FEDB7EF922A
:101EF000400F0146B94513050003EFF0BF916F9005
:101F00008010EF92000E9307803EB385F5023726CE
:101F100000011306C6CFEF20400E6F90C00EEF9267
:101F2000400C6545EF00B0066F90E00D894763FAFD
:101F3000B70403570500014881473A8693161800F5
:101F4000AA9683D60600B697B68863F3E600BA88E9
:101F5000139708014183B6886373D600B2880508D9
:101F60009316080113960801C1824182E3E8B6FC8A
:101F7000998F918F1385E5FF33C5A70242054181F3
:101F8000828001458280374600108346C64A8347D7
:101F9000D64A0347E64A37080010A2074207D98FFE
:101FA000D58FB3E7070183C807008347C64A834636
:101FB000D64A0347E64AA2064207D98EDD8E850639
:101FC000B3E6060183C706000343C64A0347D64A61
:101FD0008346E64AA2072207C206558F3367670089
:101FE000090733670701034707000146B74600109A
:101FF0004207D98FB3E71701B7080010131706017E
:102000004183636FB70873700430B705011003D7BD
:10201000C56B374600100507239EE56A0345C64A8F
:102020008346D64A0347E64AA2064207D98EC98E9E
:102030003705001013F7F70FC98E2380E600034819
:10204000C64A8346D64A0347E64AA2064207D98EC5
:10205000B3E6060113D787408506C98E1377F70FBD
:102060002380E6000348C64A0347D64A8346E64A29
:10207000C1872207C206558F33670701090793F707
:10208000F70F498F2300F70083D7C56BFD17C207F1
:10209000C183239EF56A63940700736004308280D5
:1020A00033E71701034807003307C50085072300FE
:1020B000070103C3264B03C7364B03C8464B220711
:1020C0004208336707013367670063EDE70003C821
:1020D000F64A83C7064B03C7164BA2074207D98FA0
:1020E000B3E70701050619BF374600108346364A95
:1020F0008347464A0347564A37080010A20742075B
:10210000D98FD58FB3E7070183C807008347364AC5
:102110008346464A0347564AA2064207D98EDD8EB9
:102120008506B3E6060183C706000343364A034724
:10213000464A8346564AA2072207C206558F33678E
:102140006700090733670701034707000146B746E1
:1021500000104207D98FB3E71701B7080010131713
:1021600006014183636FB70873700430B70501102F
:1021700003D7C56B374600100507239EE56A034564
:10218000364A8346464A0347564AA2064207D98E34
:10219000C98E3705001013F7F70FC98E2380E600AC
:1021A0000348364A8346464A0347564AA206420730
:1021B000D98EB3E6060113D787408506C98E1377FB
:1021C000F70F2380E6000348364A0347464A834612
:1021D000564AC1872207C206558F33670701090790
:1021E00093F7F70F498F2300F70083D7C56BFD17CF
:1021F000C207C183239EF56A6394070073600430AD
:1022000082803308C5000348080033E717018507BB
:102210002300070103C3064A03C7164A03C8264A18
:1022200022074208336707013367670063EDE70061
:1022300003C8D64983C7E64903C7F649A207420740
:10224000D98FB3E70701050619BFB747001003C6CA
:10225000374A03C7474A83C6574A37080010220740
:10226000C206558F518F336707018345070003C6A8
:10227000374A03C7474A83C6574A93F5F50F2207E3
:10228000C206558F518F05073367070103470700C3
:1022900003C5374A83C6474A03C6574A1377F70F21
:1022A000A2064206D18EC98E8906B3E6060103C690
:1022B000060083C8674A83C6774A03C5874A1376F0
:1022C000F60FA2064205C98EB3E61601B3E6060173
:1022D00003CE060003C5674A83C6774A03C3874A0D
:1022E000A2064203B3E66600C98E8506B3E6060180
:1022F00003C5060083C8674A83C6774A03C3874A73
:102300002205A2064203B3E66600B3E6160189067B
:10231000B3E6060183C8060003C3674A83C6774A4B
:10232000C20833651501B368C50103C5874AA20613
:102330004205C98EB3E66600B3E6060103CE060089
:1023400003C3674A83C6774A03C5874AA206420584
:10235000C98EB3E666008506B3E6060103C506002E
:1023600083CE674A83C6774A03C3874A939786001A
:1023700093160301D58FB3E7D7018907B3E70701A8
:1023800083C60700931785000145C206D58FB3E7C2
:10239000C701639BF800220713150601598DC98DEB
:1023A00033851541133515008280B747001003C6E9
:1023B000C74A03C7D74A83C6E74A3708001022072F
:1023C000C206558F518F336707018345070003C647
:1023D000C74A03C7D74A83C6E74A93F5F50F2207D2
:1023E000C206558F518F0507336707010347070062
:1023F00003C5C74A83C6D74A03C6E74A1377F70F10
:10240000A2064206D18EC98E8906B3E6060103C62E
:10241000060083C8974A83C6A74A03C5B74A1376FE
:10242000F60FA2064205C98EB3E61601B3E6060111
:1024300003CE060003C5974A83C6A74A03C3B74A1B
:10244000A2064203B3E66600C98E8506B3E606011E
:1024500003C5060083C8974A83C6A74A03C3B74A81
:102460002205A2064203B3E66600B3E6160189061A
:10247000B3E6060183C8060003C3974A83C6A74A8A
:10248000C20833651501B368C50103C5B74AA20682
:102490004205C98EB3E66600B3E6060103CE060028
:1024A00003C3974A83C6A74A03C5B74AA206420593
:1024B000C98EB3E666008506B3E6060103C50600CD
:1024C00083CE974A83C6A74A03C3B74A9397860029
:1024D00093160301D58FB3E7D7018907B3E7070147
:1024E00083C60700931785000545C206D58FB3E75D
:1024F000C701639BF800220713150601598DC98D8A
:1025000033851541133515008280B747001003C687
:10251000374A03C7474A83C6574A2207C206558F20
:10252000518F37060010518F0348070003C7374A01
:1025300083C6474A83C5574AA206C205CD8ED98EA7
:102540008506D18E03C7060083C8374A83C6474A2B
:1025500083C5574A2207A206C205CD8EB3E61601EF
:102560008906D18E83C60600C206558F33670701E0
:1025700003C8674A83C6774A83C5874AA206C2054D
:10258000CD8EB3E60601D18E03C8060083C8674A24
:1025900083C6774A83C5874AA206C205CD8EB3E6B5
:1025A00016018506D18E83C8060003C3674A83C619
:1025B000774A83C5874AA208A206C205CD8EB3E634
:1025C00066008906D18E03C3060003CE674A83C620
:1025D000774A83C5874A4203A206C205CD8EB3E679
:1025E000C601D18E83CE060003CE674A83C5774AE3
:1025F00083C6874AB3E86800A205C206D58DB3E555
:10260000C5018505D18D83C6050003CF674A83C503
:10261000774A03CE874AA206A205420EB3E5C5015A
:10262000B3E5E5018905D18D83C5050033E80801CF
:10263000C205CD8EB3E6D6016305D80603C8674A46
:1026400083C6774A83C5874AA206C205CD8EB3E604
:102650000601D18E83C8060083C6674A83C5774AC0
:1026600003C8874AA2054208B3E50501D58D850553
:10267000D18D83C6050003C3674A83C5774A03C863
:10268000874AA2069397850093150801CD8FB3E77B
:10269000670089075D8E83470600C207DD8EB3E6BB
:1026A00016014205814541813746001063E4A500CB
:1026B000054582808348064A8347164A0348264ACE
:1026C0000507A2074208B3E70701B3E71701636DE7
:1026D000F7000348D6490347E6498347F6492207EE
:1026E000C2075D8F336707016306D7008505C20502
:1026F000C1816DBF01458280EF82100DB73401109A
:102700009307F6FF238CA41293F7F70F13074002E9
:10271000636DF706B747001003C757498946938989
:1027200084136394E600A38A0748131516001375F3
:10273000E50F32842E89D13B631705027370043094
:10274000370701108357C76B37B6000137B5000153
:1027500085071306C627930560081305C523231EA6
:10276000F76AEFF00F9037350110CA8522861305FE
:10277000A513A3808900EF80F00F9305240093F543
:10278000F50F13858413EFF03F966F803007EF82CB
:1027900050054111930710102316F1002307010083
:1027A000B747001003C7574989462A846394E60057
:1027B000A38A07481945913B6317050273700430DB
:1027C000370701108357C76B37B6000137B50001D3
:1027D00085071306C628930570091305C523231E14
:1027E000F76AEFF00F8868008D4523078100EFF04E
:1027F000BF8F41016F803001EF82A07E41119307AE
:10280000D0102316F10023070100B747001003C7BB
:10281000574989462A846394E600A38A07481945E4
:10282000ED316317050273700430370701108357C9
:10283000C76B37B6000137B5000185071306062AB6
:102840009305700A1305C523231EF76AEFF06F8105
:1028500068008D4523078100EFF01F8941016F80DB
:10286000807AEF82007891366319050437340110BD
:10287000894513058403EFF00FF1834784032D4747
:10288000FD1793F7F70F636CF7029304840383C576
:102890001400373901101305A903EFF0CFEEB70785
:1028A00001100347840383A7071303C514000A0715
:1028B000BA979C439305A90382976F80C074737085
:1028C0000430370701108357C76B37B6000137B59F
:1028D000000185071306062B9305A00B1305C523DE
:1028E000231EF76AEFE0FFF7C9BFEF82806F37B5AD
:1028F000000113054526EFE03FE601A0B7070110F0
:1029000023A8A7128280EF82406B83290500411122
:102910006389091A2A84832BC500032AC501832AE7
:1029200005024451854513050004EFE0DFF64165DB
:1029300085450505EFE03FF603594400D52CB787E0
:10294000001003C7C7117D1913074004238EE71039
:1029500003C897144E9913DB09011378380F1368D5
:1029600088001377F80FA384E71413F7F90F93D9AE
:102970008940238EE70293F9F90FA38E370313776B
:10298000F90F13598940238FE7021379F90FA38FA9
:10299000270383C6071803C71718137B1B002207DA
:1029A000558F14482316E1000547639FE61003473F
:1029B0004401A38FE7168357C100C607C5832316BA
:1029C000F1008357C1007177F98F184C2316F1007D
:1029D00085476310F7108357C1001167D98F2316FD
:1029E000F1008347C100378600102300F618835793
:1029F000C100A183A300F618834786140347760419
:102A00008345B6038348D6170346E6171375F70FB9
:102A100093F5F50F2206336616012314C10005460F
:102A200093F7F70F2A87AE86639BCB0A93F7F70BD2
:102A300093E707FA1044BD9B93E847005943C687C4
:102A400063056616636DC30C2D43630C66126363E6
:102A5000C30A21436304661037860010A303E6040B
:102A60002304F614A30DD60283478100137838FFA0
:102A700013680808A30EF616835781001A0B93F605
:102A8000F6FBA183230FF6168347A603B3E6660180
:102A900093E70708230DF602A30406159147631F69
:102AA000FA14DD9AB7870010A38DD70263800A1647
:102AB0005685D524639E0414EF009002034554010B
:102AC000B12641016F80E0528357C1006177D98FF1
:102AD000FDB58357C10071777D17F98F09B7094696
:102AE0006395CB0093E707FEB1B793F7F70793E73A
:102AF000870089B731436303660A4143E31E66F4E6
:102B0000835781001377F503136707F893F7F7E30B
:102B100093E707042314F10093F7C8FE85A013037D
:102B200000026301660A636CC3006143E31666F248
:102B30008357810093F7F7E393E70704ADA81303E6
:102B4000C0026302660A13030003E31766F08357AB
:102B5000810093F7F7E393E7070461A883578100A7
:102B60001377F503136707F893F7F7E393E7070481
:102B70002314F10093F7C8FF93E7170093F6F50EBF
:102B8000E1BD8357810093F7F7E393E707081377D5
:102B9000F5032314F10013670704E9BF835781008D
:102BA00093F7F7E393E70704DDB78357810093F7C3
:102BB000F7E393E707081377F5032314F10013678E
:102BC000070499BF835781001377F503136707F84C
:102BD00093F7F7E393E707042314F10093E6050165
:102BE00093F7C8FE95BD8357810093F7F7E393E70A
:102BF00007082314F1001377F50339BF93E6860025
:102C0000137A3A00E19AB3E6460169BDD92A5DB567
:102C100085476394F400B52955B589476394F4005A
:102C2000352C69BD8D47E39BF4E8EF00B00E79B514
:102C3000B7860010C147A38EF61083C7D61137059B
:102C400001103786001093E707013E8793F7F70FCF
:102C5000A38EF610B7B700019387872C138E071049
:102C6000AA8883C6070013670702A107A30CD61022
:102C700083C697FF230DD61083C6A7FFA30DD610DA
:102C800083A687FF03A3C7FF8345451313D8860098
:102C90006203B69533680301C295C182AE96230ADA
:102CA000D5129376F70FA30ED6109376F7FD3687DD
:102CB00093F6F60FA30ED610E395C7FBB7B7000146
:102CC0009387074C1383070E3786001083C60700CF
:102CD00013670702A107A30CD61083C697FF230D25
:102CE000D61083C6A7FFA30DD61083A687FF03A81F
:102CF000C7FF83C5481313D586006208B6953365B0
:102D0000A800AA95C182AE96238AD8129376F70FAF
:102D1000A30ED6109376F7FD368793F6F60FA30E23
:102D2000D610E315F3FA13060008B7860010A38C3B
:102D30000610238D0610136707029377F70FA38DF4
:102D40000610A38EF6107D169377F7FD3E87420698
:102D500093F7F70FA38EF6104182E31A06FC137760
:102D6000F70CA38EE6108280378700108347B703E5
:102D70001E0593F7F707C98F93F7F70FA30DF70217
:102D80008280EF820026B7870010238D0702EF00B4
:102D9000F0156F804027EF82C024378700109377AB
:102DA000F50F41112302F70C230601008347C100F0
:102DB00021813D89C19B5D8D2306A1008347C10010
:102DC000A302F70C212041016F80E0233787001018
:102DD0008347570C93E7070193F7F70DA302F70C0E
:102DE0008280378700108347470C93F7F70E93F6DE
:102DF000F70F93E70702A302D70C93F6F70FA3028E
:102E0000D70C93F7F70CA302F70C8280A94663E571
:102E1000A60432053345D50237870010034607184C
:102E2000834717184111F176A207D18F2316F100BD
:102E30008357C100F58F4A0549815D8D2316A10096
:102E40008347C10005452300F7188357C100A183BC
:102E5000A300F7184101828001458280B7970010D6
:102E600003C707B001111367E7032380E7B003C767
:102E700017B0118B13671705A380E7B003C727B0FE
:102E8000130750052381E7B01307A0022382E7B0A0
:102E900003C757B01377E70F13676703A382E7B041
:102EA00003C767B01377070E136787002383E7B064
:102EB00003C777B01377070E13678706A383E7B0BE
:102EC00003C787B0136757002384E7B003C797B0E1
:102ED00013074008A384E7B0230001000347010063
:102EE000759B2300E100034701001367470023009F
:102EF000E10003470100136707022300E1000347D5
:102F00000100136707042300E10003470100136772
:102F100007F82300E10003470100A385E7B003475A
:102F200001006D9B2300E10003470100A385E7B08A
:102F30002302010003474100136717002302E10049
:102F400003474100136727002302E10003474100C4
:102F5000136747002302E100034741005D9B230202
:102F6000E100034741002386E7B023040100034743
:102F70008100719B136717002304E1000347810060
:102F80004D9B136747002304E1000347810013773B
:102F9000F7FC136707012304E1000347810013775F
:102FA000F703136707042304E10003478100A386A6
:102FB000E7B0230601000347C100719B13671700A8
:102FC0002306E1000347C1001377F7FC13670702EC
:102FD0002306E1000347C1001377F703136707F8DF
:102FE0002306E1000347C1002387E7B01547A38705
:102FF000E7B02308010003470101019B1367470164
:103000002308E100034701012388E7B0230A0100F8
:1030100003474101719B13671700230AE10003472F
:1030200041014D9B13674700230AE100034741011B
:10303000A388E7B0230C010003478101619B13675C
:103040006700230CE100034781011D9B1367870084
:10305000230CE100034781017D8B13670704230CD8
:10306000E100034781012389E7B0230E01000347F4
:10307000C1011377F703230EE1000347C101137762
:1030800007FC230EE1000347C101A389E7B00561F6
:103090008280EF7210750111230201008347410005
:1030A000379400101305800C93E717002302F100FA
:1030B0008347410093E727002302F1008347410043
:1030C000ED9B2302F1008347410093E78700230231
:1030D000F100834741002306F4B0834704B093E72F
:1030E000E7032300F4B0834714B0918B93E71705EF
:1030F000A300F4B0834724B0930750052301F4B034
:103100009307A0022302F4B0834754B093F7E70F6C
:1031100093E76703A302F4B0834764B093F7070E05
:1031200093E787002303F4B0834774B093F7070E47
:1031300093E78706A303F4B0834784B093E757006F
:103140002304F4B0834794B093074008A304F4B079
:10315000230001008347010093E727002300F100CB
:103160008347010093E747002300F10083470100F4
:1031700093E707022300F1008347010093E7070468
:103180002300F1008347010093E707F82300F100D3
:1031900083470100A305F4B0EFE01F9A83470100C5
:1031A000ED9B2300F10083470100A305F4B0230445
:1031B000010083478100F19B93E717002304F1008E
:1031C00083478100CD9B93E747002304F1008347A9
:1031D000810093F7F7FC93E707012304F10083478D
:1031E000810093F7F70393E707042304F100834773
:1031F0008100A306F4B0230601008347C100F19BC0
:1032000093E717002306F1008347C10093F7F7FC0B
:1032100093E707022306F1008347C10093F7F70302
:1032200093E707F82306F1008347C1002307F4B0B2
:103230009547A307F4B02308010083470101819B50
:1032400093E7F7002308F100834701012308F4B056
:10325000230A010083474101F19B93E71700230AEA
:10326000F10083474101CD9B93E74700230AF1001A
:1032700083474101A308F4B0230C01008347810177
:10328000E19B93E76700230CF100834781019D9B3D
:1032900093E78700230CF10083478101FD8B93E7BF
:1032A0000704230CF100834781012309F4B0230EA6
:1032B00001008347C10193F7F70393E70704230E47
:1032C000F1008347C10193F707FC93E76700230EE2
:1032D000F1008347C101A309F4B005616F70B052DA
:1032E000B797001003C707B001111367E7032380E6
:1032F000E7B003C717B0118B13671705A380E7B0BA
:1033000003C727B0130750052381E7B01307A002B6
:103310002382E7B003C757B01377E70F136767033C
:10332000A382E7B003C767B01377070E1367870060
:103330002383E7B003C777B01377070E13678706B9
:10334000A383E7B003C787B0136757002384E7B0B0
:1033500003C797B013074008A384E7B02300010018
:1033600003470100759B2300E10003470100136739
:1033700047002300E1000347010013670702230011
:10338000E10003470100136707042300E10003473E
:103390000100136707F82300E10003470100A3853C
:1033A000E7B0034701006D9B2300E10003470100E4
:1033B000A385E7B02302010003474100136717000C
:1033C0002302E10003474100136727002302E100C5
:1033D000034741006D9B2302E100034741005D9BD1
:1033E0002302E100034741002386E7B023040100E4
:1033F00003478100719B136717002304E100034713
:1034000081004D9B136747002304E10003478100BF
:103410001377F7FC136707012304E10003478100DA
:103420001377F703136707042304E10003478100C0
:10343000A386E7B0230601000347C100719B136711
:1034400017002306E1000347C1001377F7FC136759
:1034500007022306E1000347C1001377F703136750
:1034600007F82306E1000347C1002387E7B01547AB
:10347000A387E7B02308010003470101019B1367FD
:1034800047012308E100034701012388E7B0230A2D
:10349000010003474101719B13671700230AE100F4
:1034A000034741014D9B13674700230AE10003478F
:1034B0004101A388E7B0230C010003478101619B10
:1034C00013676700230CE100034781011D9B13670D
:1034D0008700230CE100034781017D8B13670704FC
:1034E000230CE100034781012389E7B0230E01008B
:1034F0000347C1011377F703230EE1000347C1011E
:10350000137707FC230EE1000347C101A389E7B04D
:1035100005618280B797001003C707B001111367D8
:10352000C7032380E7B003C717B0118B13671705D4
:10353000A380E7B003C727B0118B1367170523815A
:10354000E7B003C757B01377E70F13676702A3828B
:10355000E7B003C767B01377070E136787002383AD
:10356000E7B003C777B01377070E13678706A38307
:10357000E7B003C787B0136757002384E7B003C7DA
:1035800097B013074008A384E7B023020100034764
:103590004100136707022302E1000347410013675C
:1035A00007042302E10003474100136707F82302E1
:1035B000E10003474100A385E7B02304010003476E
:1035C0008100136717002304E1000347810013679C
:1035D00027002304E100034781006D9B2304E100E1
:1035E000034781002386E7B0230601000347C1009B
:1035F000719B136717002306E1000347C1004D9B31
:10360000136747002306E1000347C1001377F7FC67
:10361000136707012306E1000347C1001377F7038F
:10362000136707042306E1000347C100A386E7B040
:103630002308010003470101719B1367170023084A
:10364000E100034701011377F7FC13670702230822
:10365000E100034701011377F703136707F8230815
:10366000E100034701012387E7B01547A387E7B0CF
:10367000230A010003474101019B13674700230A06
:10368000E100034741012388E7B0230C0100034711
:103690008101719B13671700230CE100034781012F
:1036A0004D9B13674700230CE10003478101A3886A
:1036B000E7B0230E01000347C101619B1367270098
:1036C000230EE1000347C1011D9B13678700230EF2
:1036D000E1000347C1017D8B13670704230EE1005E
:1036E0000347C1012389E7B005618280B7970010C5
:1036F00003C707B041111377F70E2380E7B0230605
:1037000001000347C100136707022306E1000347D6
:10371000C100A385E7B0238607B041018280EF7224
:10372000500C930750022A84AE8463F1A70237B687
:10373000000137B500011306066AE14513058567E8
:10374000EFE02F92A1679387A71239A0FD47E3EB23
:10375000A7FEA167938707087D883E94B7070010EE
:103760005D8C93F4F40F230094006F70D009EF7216
:103770005007930750022A8463F3A70237B600016B
:1037800037B500011306C66A930560021305856705
:10379000EFE02F8DB78700109387A73101A8FD4771
:1037A000E3EAA7FEB78700109387C73103C7070076
:1037B000FD471375F70F63E98704B78700109387F8
:1037C000D73103C70700FD472207498F63E387040A
:1037D000B78700109387E73103C50700FD4742050F
:1037E000498F63ED8702B78700109387F73183C74E
:1037F000070005453314850013958701598D618DA8
:103800003335A0006F703000B78700109387B73151
:103810004DBFB78700109387C7317DBFB7870010B2
:103820009387D731E9B79378F501FD473748001002
:103830006380051663E2A7121308783383460800F5
:10384000FD47B745001093F6F60F63EAA71093857E
:10385000853303C30500FD47374600102203B366D6
:10386000D30063E1A7101306963303430600FD4718
:103870003747001042033363D30063E8A70E1307F2
:10388000A733834607008547B3971701E20693F8ED
:10389000F70F33E3660093C6F8FFB3F6660093F6BE
:1038A000F60F2300D80093C6F7FFB3F6660013D8CF
:1038B00086401378F80F2380050193D5064193F5D0
:1038C000F50F2300B600E1822300D7007D47B745FE
:1038D0000010636FA7089385B53303C70500FD4645
:1038E000374600101377F70F63E7A6081306C633B1
:1038F00003480600FD4622083367E80063E0A60897
:10390000B74600109386D63303C8060042083368D2
:10391000E8007D476369A706374700101307E733C0
:1039200003450700620533650501B3E8A800C98FA8
:1039300093F8F80F2380150193D5874093F5F50F81
:103940002300B60013D607411376F60F2380C60076
:10395000E1832300F700828013081834C5B59385EE
:103960002534C5BD1306363409B71307473411BFD4
:10397000938505349DB7130616349DBFB7460010D6
:103980009386263451B7374700101307373449BFA1
:1039900063E7A70E1308B83383460800FD47B74511
:1039A000001093F6F60F63EFA70C9385C53303C39E
:1039B0000500FD47374600102203B366D30063E6D7
:1039C000A70C1306D63303430600FD473747001004
:1039D00042033363D30063EDA70A1307E73383463B
:1039E00007008547B3971701E20693F8F70F33E313
:1039F000660093C6F8FFB3F6660093F6F60F230051
:103A0000D80093C6F7FFB3F6660013D88640137844
:103A1000F80F2380050193D5064193F5F50F230098
:103A2000B600E1822300D7007D47B74500106364EC
:103A3000A7069385753303C70500FD46374600107A
:103A40001377F70F63ECA6041306863303480600CA
:103A5000FD4622083367E80063E5A604B746001078
:103A60009386963303C8060042083368E8007D4712
:103A7000636EA702374700101307A73355B5130825
:103A8000083419BF938515341DB71306263425BF96
:103A900013073734A9B79385153471BF130626343D
:103AA00075B7B7460010938636346DBF37470010A0
:103AB00013074734B5B5EF72C0521C412167110797
:103AC0008E07BA9737070010D98F03478500130573
:103AD000A0052380E700EFE02F866F70C052EF72E1
:103AE0004050D13F6F702052EF72A04F85472A841B
:103AF00063FEA70037B6000137B500011306866ED6
:103B0000930510051305056CEFD0BFD50504060419
:103B1000EFD01FEF1344F4FF618DEFD09FED6F7076
:103B2000804E0199FD0563D3A50082802320050006
:103B300013050502CDBFB78700101377F50F218558
:103B40002382E70A1375F50FA382A70A13F7F50F6F
:103B5000A1852381E70A93F5F50FA381B70A1377AF
:103B6000F60F21862383E70A1376F60FA383C70A8D
:103B700013F7F60FA1862384E70A93F6F60FA384C2
:103B8000D70A21472385E7008280C16785073787E9
:103B9000001003450733218963040500054521A072
:103BA000FD17E39807FE8280EF72A0433784001070
:103BB0000349040A930740048344140A2300F40AC7
:103BC000930700F8A300F40A814601461379F90F20
:103BD0009D37653F93F4F40F2300240BA300940A50
:103BE0006F706042EF72E03F378400100349040AAF
:103BF000930740048344140A2300F40A930700F84F
:103C0000A300F40A1379F90F3D37413793F4F40F09
:103C10002300240BA300940A6F70E03EEF72603C17
:103C200041112306A10085456800BD3F41016F7029
:103C3000803DEF72003B411195472A8685468545B8
:103C400068002306F100793F41016F70C03BEF72BD
:103C500040394111930750032A86854685456800FF
:103C60002306F100413741016F70E039EF72603790
:103C70004111854737040001A307F100050413052E
:103C8000F1007D147D37630B04008347F100858BC1
:103C9000E39707FE054541016F70E0360145E5BF3A
:103CA000EF722034411185472306F1008347050058
:103CB000A306F1008347150019452307F100B93F1A
:103CC000630605008D456800C5354D3741016F70AD
:103CD0008033EF720031194591376F70C032EF7247
:103CE000A02EAE896D711389F90F32842A8A1306CA
:103CF000401081456800137909F0EF704043229924
:103D0000930A0010330A8A40094B631424010545C5
:103D10003DA8CE8663F43A0193060010B3078A00EB
:103D200013D70701A306E10013978700C207C183D9
:103D3000A183D98F2317F100230661017C00814400
:103D400085076399D4007137631E050001455161F1
:103D50006F70C02A33079400034707008504A381CE
:103D6000E700F9BF9385440068003D3DE30005FE90
:103D7000F53D13040410E30B05FCB389994071B7BA
:103D8000EF72202601112EC62A8402CE9937B24541
:103D900063160500014505616F70E02693D70501A4
:103DA000A30EF10093978500C205C181A181DD8D2D
:103DB000231FB10068089145230E8100F533E30B02
:103DC00005FC6D35C9BFEF72C021411102C413D784
:103DD000050123060100B787001083C4070A03C446
:103DE000170AA304E10013978500C205C181A181D0
:103DF000D98D2304A1002315B1001307B00B32881D
:103E000093F4F40F36861374F40F630DE5046363C3
:103E1000A7021307B003630EE5021307B006630998
:103E2000E506B7870010130740042380E70AA38044
:103E3000070A3DA01307700E630FE5041307B00EC9
:103E4000E311E5FE130720052380E70A1307400668
:103E500005A0130710042380E70A2147A380E70A7F
:103E6000914511A8130710052380E70A13070006E0
:103E7000A380E70A9545C286280075393933B7878C
:103E800000102380970AA380870A41016F70A01752
:103E900013072004C9B7130720052380E70A130777
:103EA0002006F9B7EF72E0132A84B74500013745C1
:103EB0000001938545EA130565B3A531A285130575
:103EC00000027D3D6F702014EF72A0112A84AE8431
:103ED00037450001B74500014111938585EC130575
:103EE00065B332C63D393246A6852285CD3B4101B8
:103EF0006F706011EF72E00E2A84AE8437450001C6
:103F0000B74500014111938545EF130565B332C6EE
:103F100036C40139A2463246A68522856D35410157
:103F20006F70600EEF72E00B4111AA8468002E845E
:103F3000093363160500014541016F70C00C13057C
:103F4000D1003133E30905FE0347C1008347D100A7
:103F50001377370893F737082306E100A306F1002B
:103F600063850400418F2306E1001307E00F6376A9
:103F7000870093E70704A306F100680015336DBFBF
:103F8000EF7220062A84AE8437450001B745000150
:103F9000938505F8130565B3EFF0BFB8A6852285B4
:103FA00051376F7040067D15B70700016371F50248
:103FB000B7F701109843C1669386A6F05D9B98C33E
:103FC00088C7C8C798430145558F98C38280054567
:103FD0008280B787001003C7270483C73704614571
:103FE0000D8B85838D8B6309070037B7000113079D
:103FF000876FBA9703C507008280EF62907EB7078C
:10400000011023ACC712B707011023AEB712AA8460
:104010003E84630806000546B94513050003EFD04A
:104020006FFF9147639CF400014521285D3783278A
:10403000C4133305F502853F6F60F07C2685B128F7
:10404000E5BFEF62107A378700100346173A8347BF
:10405000273A8346373A0347473AA207C206D58F25
:10406000D18F6207D98F370700F91D897D17620547
:104070007D8F498F13D587001375F50F93F6F70FD2
:1040800022053695B706FF00F58F61833E956207DE
:104090003A95EFD05F956F601077EF629074B784B8
:1040A000001003C4340406051374940F498C1145A1
:1040B000493F1374F40FA381840495472381F404CA
:1040C000093FB707011083A7C7133305F502E13D88
:1040D0000945EFD07FA66F601073EF6290701147B3
:1040E000B78700102381E704ED35B707011083A7D8
:1040F000C7133305F502453D0945EFD0FFA3014540
:1041000089376F605070B787001003C7270483C7D3
:1041100037040D8B93F7F70F6302070285460145BD
:104120006311D70485878D8B638F07006382E70255
:1041300009476384E70237B5710B828037356E011A
:104140001305056082803775DC02130505C0828087
:1041500037A51E0913050584828037E5B8051305C8
:1041600005808280EF62F0679307803E3305F50299
:1041700019206F605069EF62D0662A84993D33043C
:104180008502813DB707011083A7C71337F60110D9
:104190003305F502B7F70110D44781477D1558461E
:1041A000E38FE6FEB6976378D700998FBA86E3E887
:1041B00087FE6F605065AA97CDBFB707011083A730
:1041C000871363870700EF62D06182976F60B063E7
:1041D0008280EF62106118419D472A8463FDE700E9
:1041E00037B6000137B5000113064672D1451305F5
:1041F000C56FEFD00FE71840104495479306000EA7
:104200003387E7026311D60821661305D60C0348ED
:104210004400B70600102A97558F83456400230099
:10422000070118401306160D93E5050E3387E702C4
:104230002A9703554400558F0507558F2181230088
:10424000A7001840B387E702B297D58F2380B70045
:104250001C4013F7170063060702FD17154793F775
:10426000F70FB387E70221671307170D8346640032
:10427000BA9737070010D98F03C70700558F2380DF
:10428000E7006F605058A1661385160DB705001042
:104290002A974D8F034607009388D60C1376F607AE
:1042A0002300C70003468401034764000328040079
:1042B000518F338807031044518F1048518F504855
:1042C00046983368B800518F0346E4001377F70F20
:1042D0002300C80010400358E4003386C702135877
:1042E000880046964D8E05064D8E2300060110402F
:1042F0001388F60C8346C4003386C70242964D8E5F
:104300002300D60014400356C400B386D70221828E
:10431000C296CD8E8506CD8E2380C6001440B3870D
:10432000D702AA97CD8F2380E7001DB7EF62704BAD
:104330009D47AA842E8463FEA70037B6000137B5D7
:104340000001130606739305A0031305C56FEFD094
:104350004FD1B787001003C787118545B3959500E6
:1043600093C5F5FF33149400F98DC18D93F5F50FC6
:10437000238CB7106F603049B74700100D47A38AF0
:10438000E748B746001083C75649E30EF7FE828020
:10439000B747001003C5274D82803747001083467A
:1043A000374D8347474D0145A207D58F63980700D6
:1043B0000345971A1375F50F3335A0008280EF621D
:1043C0005042B747001083C75749054793F7F70F87
:1043D0006385E7066387070009476388E7006F6026
:1043E000904213050004BD20DDBF73700430370414
:1043F00001108357C46B8507231EF46AEFD0FFE4D6
:1044000063080502593F63050502EF20E06663017A
:104410000502EF20A05C8D378357C46BFD17C207E0
:10442000C183231EF46AE39C07FA7360043045BF1E
:10443000B7470010A38A0748C5B773700430370721
:1044400001108357C76B8507231EF76AEF200059B9
:10445000253771B7374700108346374D8347474D9F
:104460001345F5FFA207D58F7D8D420541859377D2
:10447000F50F42054181A309F74C2181230AA74C7E
:104480008280374700108346374D8347474DA20748
:104490005D8D558D420541859377F50F420541812C
:1044A000A309F74C2181230AA74C8280B74700104B
:1044B000A384A71A8280EF62D03279712A84AE84F5
:1044C000C14532C636C41D88EFF06FA585452285EB
:1044D000B13DA2463246930700023ECE48089307FC
:1044E000000822CA3ED2230DD100231191022310CD
:1044F000C10202D423060102EFF0BFCD45616F6017
:104500009030EF62102E81452A84EFF04FA1814553
:1045100013757400213D6F60102FEF62902CB70768
:104520000400011191073EC6A5472318F100A30915
:10453000A100B5476C002D4619452309F100231A47
:104540000100230B0100EFE02F9B6C002D4611456D
:10455000852605616F60302BEF62B0283757001059
:104560008347B7FF850793F7F70FA30DF7FE834740
:1045700045006395070283475500639F0700034783
:1045800065009147631AF700D52AB7B5000149467F
:10459000938585731145292E6F60F0261147E39DA1
:1045A000E7FE03475500E31907FE03476500E315DF
:1045B000F7FE83477500E39107FE834785001307E5
:1045C00010026392E7045D2AB7C500013146938566
:1045D00045831145F12C5D22B7C500013546938511
:1045E00005841145F124592AB7C500011306C00BF3
:1045F0009385058511456D2C5122B7C500013546BF
:104600009385C59041BF6D476393E704852AB7B58D
:104610000001130660099385C5741145512CB92A10
:10462000B7B5000121469385457E11455124B92235
:10463000B7B500011306F0029385C57E11458D2C98
:10464000352AB7C5000159469385C581A1B72547CD
:10465000E394E7F483479500E39007F40347A5004C
:10466000B547E31BF7F20305B500453D35B7EF62EB
:104670005017B707011003A507143E846304050013
:10468000EFD0AFDF8564138564DFEFD08FD2138660
:1046900064DF81452320A414EF60702937050110E1
:1046A000614681451305056CEF6070286F60B01599
:1046B000B707011003A70714834737008346270075
:1046C000A207D58FB54663E7F6028507C207C18307
:1046D0002301F700A183A301F70083471700B94620
:1046E000850793F7F70F6385D700A300F700828053
:1046F000A30007008280B707011003A707148347B0
:10470000370083462700A207D58F63870702FD176E
:10471000C207C1832301F700A183A301F7008347E8
:104720000700B946850793F7F70F6385D700230085
:10473000F7008280230007008280B707011083A75B
:10474000071403C527008280B707011003A70714C9
:1047500083473700834627003547A207D58F637DFF
:10476000F700EF62100837C500011305C591EFC0CF
:10477000BFFE05456F60300901458280EF6270061B
:10478000E137E31F05FE6F601008EF6290054111ED
:104790002A8473700430B704011083D7C46BA30656
:1047A000B1002306A1008507239EF46A93D78500F4
:1047B000C181A307B10011466C001D452307F1001C
:1047C000EFD09FF383D7C46BFD17C207C183239E2D
:1047D000F46A6394070073600430954763EC8702C2
:1047E000B7C70001938747930A043E941840B70760
:1047F00001109387076C028703C7370083C6270021
:104800002207558F0507420741832381E700218353
:10481000A381E70041016F60007F03C7170083C6D3
:1048200007002207558F0507420741832380E700D1
:104830002183A380E700F9BF03C7570083C6470061
:104840002207558F0507420741832382E700218312
:10485000A382E700C1B703C7770083C667002207BA
:10486000558F0507420741832383E7002183A383F4
:10487000E7004DB703C7970083C687002207558F0F
:104880000507420741832384E7002183A384E700CF
:1048900051B703C7B70083C6A7002207558F050786
:1048A000420741832385E7002183A385E7009DB765
:1048B000EF628071B707011083A707141307F00F89
:1048C000135A860003C41700AA8932893304E4020C
:1048D000B384870021043E942384C400A38444014C
:1048E00013052400EF600079A2854E8523832401FF
:1048F000A383440123823401A38204007935EFF0BD
:104900003FDB6F60A06FEF62C06D41112A842EC63D
:10491000253D3246630B050037C500011305C594DC
:10492000EFC09FE341016F60006EA28505454937E6
:10493000D5BFEF62006B2E89B70500103367B50055
:1049400083460700130715004D8F03440700130724
:1049500025004D8F2204558C834607001307350030
:104960004D8F83440700AA87A204D58C63080400F6
:1049700091073285DD8D2286EFC0FFEB2310890081
:10498000231199006F6020689147631AF600EF6267
:1049900040651375F50FEF10904E6F60C066828012
:1049A000EF622064AA87B706001013875700558F5F
:1049B0008344070013876700558F0344070032853F
:1049C0002E891374F40F1376140093F4F40F630B11
:1049D00006024204418001479306F00E05809305CC
:1049E00087006394D40093057700AE97B705001055
:1049F0002286DD8DEFC03FE423108900231199004A
:104A00006F6060600346070013877700558F03448B
:104A1000070005472204518CC1B7EF62805C83C454
:104A2000250083C735001547A204C207DD8C83C764
:104A30001500130101D8DD8CB7070010DD8C83C78A
:104A40000500636AF70437C700018A071307479612
:104A5000BA979C43370401101304046C82877000DA
:104A60008A852685F935A6850145EFF01FD20346D4
:104A70002100035501006C00013F8347F400034708
:104A8000E400A207D98F8507C207C1832307F4007A
:104A9000A183A307F400130101286F60C0567000C2
:104AA0008A852685F53DA6850145EFF01FCE834713
:104AB000D4000347C400A207D98F8507C207C1836A
:104AC0002306F400A183A306F400F1B713066004E3
:104AD000A6856800EFC03FD6A6850145EFF0FFCA66
:104AE0008347140103470401A207D98F8507C20732
:104AF000C1832308F400A183A308F40069BF2685BD
:104B0000EFF09FA5A6850145EFF03FC8834734012C
:104B100003472401A207D98F8507C207C183230950
:104B2000F400A183A309F400BDB7A6850145EFF009
:104B3000DFC58347540103474401A207D98F850786
:104B4000C207C183230AF400A183A30AF400A1B71A
:104B5000EFF07FBA8347740103476401A207D98F3E
:104B60008507C207C183230BF400A183A30BF400C4
:104B70001DB7B75700100547A385E7BE13075003BD
:104B8000A386E7BE93065003375700108347C7BE7E
:104B900093F7F70F638607008347D7BEE388F6FED7
:104BA0008280B7570010A38507BE8280EF62604302
:104BB00041112AC62EC432C273700430370401106A
:104BC0008357C46B8507231EF46A6537A2453245B7
:104BD00092462E86AA851305B003EFF0AFB12AC224
:104BE000C9378357C46B1245FD17C207C183231E03
:104BF000F46A639407007360043041016F60A04061
:104C0000EF62203E4111AA842E8932C673700430AF
:104C1000370401108357C46B9305E00301458507F2
:104C2000231EF46A812AB1373246CA852685EFF001
:104C3000AFA9AA84BD379305E0030545252A83570C
:104C4000C46BFD17C207C183231EF46A6394070077
:104C500073600430268541016F60E03AEF6260388E
:104C6000AA8473700430370401108357C46B930512
:104C7000E00301458507231EF46AED28DD3D268506
:104C8000EFF04FA2AA84313F9305E0030545DD20F4
:104C90008357C46BFD17C207C183231EF46A639454
:104CA00007007360043026856F60E035EF62C03125
:104CB000AA842E8401459305E00393F9F40F328A08
:104CC000937AF40F4528639B09029307F00F63FC66
:104CD0008700137404F033063A01338534016319F5
:104CE0003401D68521A05286A2852685113FB5A024
:104CF00093050010313793890910F1BF1309001093
:104D00009307F00F3309394163E28702E37D59FDD0
:104D10005286CA8513840AF02685EFF07FEE4E9402
:104D200033062A01A28533852401C9B7130404F090
:104D30004E94CA8526855286937AF40FCA94EFF072
:104D40003FEC5299137404F08149330639013385DD
:104D50003401631A3401E3960AF89305E00305452C
:104D600011286F60A02993050010EFF07FE9938967
:104D70000910E1BFEF62E02641112AC62EC473700C
:104D80000430370401108357C46B8507231EF46A6F
:104D9000EFF03FDEA2453245EFF08F9EEFF07FE06F
:104DA0008357C46BFD17C207C183231EF46A639443
:104DB00007007360043041016F60E024EF626022FD
:104DC000EF5080736F602024EF62A021AA8537C561
:104DD00000011305C597EFC03F986F60C022EF62D6
:104DE0004020B704011083A504041307500337C4FF
:104DF000000183C735006313F70437050010194617
:104E000095051305754DEFC0FFA56309050283A540
:104E10000404375500104146C9051305C58FEFC07E
:104E20007FA4630D050037C500011305059A93059E
:104E30008499EFC07F9201456F60E01C37C5000187
:104E40001305C59C93058499EFC01F910545EDB7E7
:104E5000EF622019B707011023920714B75500100D
:104E600083C7B5E137C500011305459F93F7F70FD9
:104E70002380F59683C7C5E193F7F70FA380F596D6
:104E800083C7D5E193F7F70F2381F59683C7E5E153
:104E900093F7F70FA381F59683C7F5E193F7F70F23
:104EA0002382F59683C705E293F7F70FA382F59661
:104EB00003C605E283C6F5E103C7E5E183C7D5E193
:104EC00003C8C5E183C8B5E1B7C5000193858599DD
:104ED000EFC09F886F602013B75700101377F50F4E
:104EE000238DE7A22181A38DA7A213F7F50F238EAF
:104EF000E7A2A181A38EB7A21377F60F238FE7A2B3
:104F00002182A38FC7A213F7F60F2380E7A4A18203
:104F1000A380D7A48280B7570010A386A7EA828017
:104F2000B7570010A38CA792828037570010834791
:104F3000E7EA93E717002307F7EA8280FD4763EE6D
:104F4000B700156781471307679F370600106397FF
:104F5000B70037570010A30AF79E82803308F50088
:104F600003480800B386E700D18E23800601850739
:104F7000F9BFEF620007B747001009472387E7260C
:104F8000A38707260347A500B7560010238BE6A08A
:104F90000357A5002183A38BE6A00347A500238622
:104FA000E7260357A5002183A386E726FD4763E68E
:104FB000C704156781471307679D37080010639A78
:104FC000C70437540010A30AF49C44418547638EFC
:104FD000F406638C04048947639BF402B7C500019F
:104FE00037C50001A30C04A0938585991305C5A7B7
:104FF000EFC08FF6230C94A0B9A0B7C5000137C548
:105000000001938585991305C5A0EFC0EFF46F509B
:10501000907FB388F50083C80800B386E700B3E645
:10502000060123801601850759BFB7C5000137C5A2
:105030000001A30C04A0938585991305C5A2EFC0B8
:10504000AFF1230C04A035452DA083470495B7C5C7
:10505000000137C50001860793F7F70F130545A533
:10506000A30CF4A093858599EFC00FEF3D45230C69
:1050700094A0EFD0CFF161BFEF52B076411113771A
:10508000F50F21812315B1002316C1002317D1008C
:10509000A304A100B7570010238CE79403479100A5
:1050A0004945A38CE7940347A100238DE794034768
:1050B000B100A38DE7940347C100238EE794034713
:1050C000D100A38EE7940347E100238FE7940347C1
:1050D000F100A38FE794EFD02FF241016F50B0722F
:1050E0001377F50FB75700102383E7962181A38329
:1050F000A7968280EF52F06E1305100CEFD02FE9C7
:105100006F507070EF52F06D1305000CEFD02FE868
:105110006F50706FB707011003C547148280B7073F
:1051200001102382A7148280B707011003C547141A
:105130007115133515008280EF52B06AB757001011
:10514000A381A7E44545EFD02FEB6F50D06BEF5212
:1051500050691305100BEFD08FE36F50D06A93079F
:10516000F5FF93F7F70F2D476373F7000D45B7571A
:105170000010238CA7E88280B7470010A387A732CE
:105180008280B74700102387A726A387072682803F
:10519000EF5230651377F50FB75700102185238F35
:1051A000E7E61375F50FA38FA7E6EFF05FFA6F50F0
:1051B0009065B757001003C797E21377F70F6306A0
:1051C0000706EF521062A38407E23704011083C67A
:1051D00087E28347041537050110130785141396DA
:1051E00017008507329793F7F70F2310D70023088E
:1051F000F4140D476374F702914513058514EFC04D
:10520000FFD21375F50F230804149307F00463F914
:10521000A700B74700101547A387E7326F50B05E6D
:10522000B7470010A3870732D5BF8280EF52705B6B
:10523000B707011083A7070413075003A381E700F2
:1052400011476365A70A37C70001130787AA0A0534
:105250003A9518410287B756001003C7969815660D
:105260001306B6981377F70F2389E70203C7A698AA
:1052700037080010A1451377F70FA389E70201470C
:10528000B306C700B3E6060183C606003385E70010
:10529000050793F6F60F230AD502E313B7FEB9A06C
:1052A00037570010834647E493F6F60F2386D7005E
:1052B000834657E493F6F60FA386D700834667E448
:1052C00093F6F60F2387D700834677E493F6F60F1D
:1052D000A387D700834687E493F6F60F2388D70089
:1052E000034797E41377F70FA388E70079226F50FD
:1052F0009051370700108346774D93F6F60FA3823F
:10530000D7008346874D93F6F60F2383D700834655
:10531000974D93F6F60FA383D7008346A74D93F6D8
:10532000F60F2384D7008346B74D93F6F60FA38478
:10533000D7000347C74D1377F70F2385E70037578B
:105340000010034707951377F70F2382E70079BF13
:10535000156601471306C68F37080010C145B3060E
:10536000C700B3E6060183C606003385E7000507DC
:1053700093F6F60F2309D500E313B7FE85BF156634
:1053800001471306369937080010C145B306C70018
:10539000B3E6060183C606003385E700050793F6EA
:1053A000F60F2301D502E313B7FE89B7B707011043
:1053B00083A6070409469305D00383C7060003C7E5
:1053C000160022075D8F81473385C600034505001F
:1053D0000506AA97C207C183E318B6FE0545630E0A
:1053E000F7008147FD551307D0033386F6002300ED
:1053F000B6008507E39BE7FE01458280B7070110F1
:1054000083A60704094781471306D003B385E60046
:1054100083C505000507AE97C207C183E318C7FE21
:105420002390F6008280EF52D03B73700430370433
:1054300001108357C46B8507231EF46AEFF06FF3E6
:10544000B707011003A6070437D507009305D0035B
:1054500013050510EFF08FF5EFF0AFF48357C46B31
:10546000FD17C207C183231EF46A639407007360AB
:105470000430EFF0BFF36F501039EF529036EFF079
:10548000FFF773700430370401108357C46BB7D42F
:1054900007008507231EF46AEFF0AFED13850410B3
:1054A000EFF0CFFBB707011003A607049305D00365
:1054B00013850410EFF0CFF4EFF0AFEE8357C46B19
:1054C000FD17C207C183231EF46A6394070073604B
:1054D00004306F505033EF52D03015246306050A64
:1054E00037050110956581479385C58FB708001072
:1054F00041482A8703260504B386B700B3E61601A0
:105500003E960346260185071376F60F2380C600D4
:10551000E39207FF814737050010994503260704EA
:105520009386774DC98E3E960346560085071376BF
:10553000F60F2380C600E393B7FE956581479385F8
:10554000359937080010414503260704B386B70094
:10555000B3E606013E960346260285071376F60F4C
:105560002380C600E392A7FE832707043757001065
:1055700083C7470093F7F70F2308F794854723065F
:10558000F7900D2C6F503028B707011023820714B5
:10559000D5BF83C705001307000E6360F716EF52EF
:1055A0005024130740046383E70E636BF70413076B
:1055B0009002638BE70E6362F7025147638CE70A40
:1055C0005547638CE70AB707011003C74714B7575D
:1055D0000010A385E7E46F50102313070004638ACB
:1055E000E70A130710046387E71013070003E39C1F
:1055F000E7FCB707001003C59751EFF0EFFCE1B7E8
:10560000130750096380E70C6361F7021307A006D4
:105610006386E708130740096382E70C1307500607
:10562000E393E7FAEF40506D79BF1307B009638A3F
:10563000E7061307200A6386E70013079009E3943F
:10564000E7F8B7C5000137C50001938585991305B3
:1056500085B1EFC06F90B707011083A70704130748
:1056600060031145238EE702EFF05FBCA122EF40FB
:10567000F05191BFEF40D064B9B7B757001003C5E0
:1056800037E41375F507EF40305335BFEF4050173F
:105690001DBFB7D7011083C7379C35B7EFF00FF2A6
:1056A0001DB7EF40B04B05B7B7C5000137C50001C6
:1056B0001305C5AB93858599EFC00F8A0545EFF0BB
:1056C000FFB611B7B7C5000137C50001130585AD99
:1056D00093858599EFC04F880945D5B7B7C50001B7
:1056E00037C50001130585AF93858599EFC0CF8637
:1056F0000D45F1B7EF40F058F9B582808280B707C9
:10570000011083A7070403C5C7031305A5FC1335C0
:1057100015008280EF52F00CB707011083A7070431
:10572000130750032381E700EFF03FD5B757001070
:10573000238107986F50300DEF52B00AB707011060
:1057400083A70704238E0702A3810700EFF0FFD28F
:105750006F50700B95671387C78F370600109387BC
:10576000C790B366C700238006000507E31BF7FE5A
:10577000B7570010238607908280EF52900637C5F6
:1057800000011305C5B3EFB03FFD37050110130647
:10579000D00381451305456EEF507019EFF0DFF926
:1057A000EFF05FF7EFF01FFBB7070110238207143C
:1057B0006F507005B747001083C7073F0D47FD17AF
:1057C00093F7F70F637CF700EF52B00137C5000184
:1057D000130545B5EFB05FF86F50F0023757001072
:1057E00083460795B707011093F6F60F639E0602EE
:1057F0009306500395652308D7CE938515CF0147AF
:1058000037080010194503A60704B306B700B3E62E
:1058100006013A960346560005071376F60F2380D5
:10582000C600E312A7FE828083A607049305000C3E
:1058300003C6A6001376060C631EB6029306500339
:1058400095652308D7CE938515CF014737080010FB
:10585000194503A60704B306B700B3E606013A9656
:105860000346560005071376F60F2380C600E312A1
:10587000A7FE828003C6A600930500041376060CDB
:105880006315B6069306600395652308D7CE938506
:1058900015CF014737080010194503A60704B306C2
:1058A000B700B3E606013A9603465600050713769D
:1058B000F60F2380C600E312A7FE95650147938586
:1058C00075CF37080010414503A60704B306B7009B
:1058D000B3E606013A960346260205071376F60F4D
:1058E0002380C600E312A7FE828083C6A60093F63B
:1058F000060C639706089306700395652308D7CEB8
:10590000938515CF014737080010194503A60704F2
:10591000B306B700B3E606013A96034656000507FC
:105920001376F60F2380C600E312A7FE03A7070431
:10593000B7560010956503472703938595CF370821
:1059400000101377F70FA38BE6CE03A707042145BA
:10595000034737031377F70F238CE6CE014703A6DF
:105960000704B306B700B3E606013A9603464603BA
:1059700005071376F60F2380C600E312A7FE828088
:105980008280EF520066B747001083C4073F0D477F
:1059900093F4F40F9387F4FF93F7F70F637AF7000C
:1059A00037C50001130545B5EFB01FDB6F50A0658B
:1059B0000144228505041374F40F2120E39B84FE27
:1059C000F5B7E1473305F5021567930707CF1307CE
:1059D00087D0B70600101375F50FAA973A9533E7ED
:1059E000D700230007008507E39BA7FE8280B70747
:1059F000011083A7871505676386E7003707040052
:105A0000639BE702EF52E05DCD07411113D7070119
:105A10002306E100014513D78700A306E100230711
:105A2000F100EFF0AFA370008D450145EFF00FA836
:105A3000EFC0AF9201A009458280EF52E0583706CF
:105A40000110130686158D450145EFF02F9637049A
:105A5000011093074415D843C166938606F0F98E6A
:105A600093570701B6974207B706FF00758FB51722
:105A7000BA97056713044415639CE702B70704004F
:105A80005CC0032984008144B70901101359C9007F
:105A900013850900EFE0AF845C401395C4008504D2
:105AA0003E95EFF0AF9BE37599FE05456F500055AD
:105AB000B70604000145E39BD7FE58C0D9B7B70726
:105AC00001109387471523A0070023A2070023A4F2
:105AD000070023A6070023A807008280EF52C04ECC
:105AE0007971AE842A84130600028145080802C435
:105AF0002316010023070100EF50606303C7040071
:105B00009307A00B6313F72E83C714001307100C21
:105B10006386E7106365F7021307000C638EE704E2
:105B2000B70701109387471523A0070023A207009A
:105B300023A4070023A6070023A80700F1A8370421
:105B400001101307200C13044415638FE714130787
:105B5000F00FE397E7FC37C50001130585B9EFB0F7
:105B6000BFBF232004002322040023240400232693
:105B70000400232804004DA0154785476313E42241
:105B800037090110834749150144130949156383F7
:105B90000702F1779387B70A41652314F100114694
:105BA000930740062C001305E5FD2305F100114481
:105BB000EF00D02785472300F90083C7340003C7CF
:105BC0002400A207BA9703C744004207BA972324C8
:105BD000F900EFF09FE689476305051C1C18A297A2
:105BE0001307B0FA238CE7FC1C18A297130700FCDC
:105BF000A38CE7FC1C18A29713074006238DE7FC33
:105C00001C18A297A38D07FC1306440041652C00C5
:105C10001305E5FDEF009021814761A237040110D3
:105C20001307441583460700130444158547638A08
:105C300006168357270003C7340083C524002207B4
:105C400063890700938617003306B7008D47639A70
:105C5000C6142E9783C5540083C744002311E40063
:105C6000A205BE959147638E05121C4848401386D5
:105C700064003E95EFF08F8383C7540003C7440050
:105C80001146A207BA971848BA971CC8F1779387AC
:105C9000B71A2314F10083C724002305F10083C73A
:105CA0003400A305F1009DB7F1779387B72A231439
:105CB000F10083C724000C4837C500012305F1001B
:105CC00083C73400130505B70149A305F100FD4959
:105CD000EFB09FA80C48637AB9044840B3852541CA
:105CE00010084A9563F6B90293050002EFE01FEC35
:105CF000584481479306000210083E96034606006A
:105D000085073297E39AD7FE58C413090902D9B719
:105D1000EFE0DFE91C485844814633892741814739
:105D200063E527096383060058C44C4437C5000166
:105D3000130545B8EFB05FA283C7540003C7440002
:105D4000A207BA9703C764004207BA97584463187A
:105D5000F70683C7840003C77400A207BA9703C776
:105D600094004207BA971848631BF70441659307EC
:105D7000500515462C001305E5FD2306F100EF0044
:105D8000F00A5945EFF04FBB370501101305050028
:105D9000EFD0FFD41305C02BEFE0CFBCEFF03FC531
:105DA000AA873E8545616F5060251418BE9683C64C
:105DB00006FE850793F7F70F3697854695B7416539
:105DC000FD5715462C001305E5FD2306F100EF00F5
:105DD000F005954723200400232204002324040017
:105DE00023260400232804006DBF85475DBFEF52C2
:105DF000401F41118547A304A1002315B1002800CD
:105E000095452304F1002306C100EF003000410155
:105E10006F50601FEF52E01C41112EC632C4EF409C
:105E2000B00A630605002246B245EF4080424101B8
:105E30006F50601DEF52E01AB707011003C52772BB
:105E40004111EF40700863070502E547AA848545C4
:105E500068002306F10037040110EF00207B0346A1
:105E60001472B7350110938505162685EF40603E04
:105E7000A300047241016F500019EF52E014117138
:105E8000AE842A841306001081450A85EF50202A2B
:105E900083C7340003C7240037090110A207BA974B
:105EA00003451972C207C1836315F5008D4763E38B
:105EB000870001A0B7370110938707161306C4FFA8
:105EC000938544003E9583C90400EF50A01ADD4736
:105ED0002286A685130511002300F100EF508019DA
:105EE0009305140093F5F50F0A85EF002072B707AC
:105EF00001102381377383471972F1173E9413748D
:105F0000F40FA30089729307F00F6313F40001A04C
:105F100011616F50A00EEF52C00CAA8403C515008A
:105F200083C70500411122053E95420541812E841B
:105F3000EF408079630205022A89CD4785456800D4
:105F40002306F100E1251386E4FF1376F60F93058F
:105F500024004A85EF40E02F41016F50C00AEF5204
:105F6000400503C4150083C7050083C4350022041F
:105F70003E9483C7250029711306C5FF1376F60FDB
:105F80009105A20413055101BE94230AC100EF50EC
:105F9000600EB757001003C717E483C927E4130640
:105FA000001081454204C204A20988004180C180DA
:105FB000B3E9E900EF50A0175008A6852285EF400D
:105FC0008073631A05002946A2854145EFF03FE240
:105FD00031616F50C001835785000947AA8D638BDB
:105FE000E70E938A07FF93BA1A00814B4547910742
:105FF000416B2300E104A300F1040944711BC14C6F
:106000006375340D03DD8D0003DA0D0083A5CD002B
:10601000137CFD0F6A861305D10223144103230666
:10602000810313094400EF50E004B307890163CEF4
:10603000F90813051A0042055008A6854181EF4072
:10604000806BAA8DDA8763040500835705FF9802E9
:106050002297230047F1130714004207940241835B
:106060003697135A8A00230047F11307240042078A
:1060700041830D043697420942042300F7F02315AB
:10608000F10213D78700135909013EC641809C00D5
:1060900036943385270162869305D1022300E4F00C
:1060A000EF40507D1374FD0F03D78D002299131418
:1060B000090189464180B2476301D7026313970102
:1060C000854A63846701E39D5BF39375F40F880051
:1060D000352BFDBD814A854B11BF854BDDB7EF42A6
:1060E00050700344150083450500834725002204B2
:1060F0002E948345350042044180A205BE95C20519
:106100004111C18122852EC6EF40005C6302050269
:1061100083578500B24563E7B700EF404004410173
:106120006F40706E2D46A2853145EFF05FCCC5BF44
:106130002946D5BFEF42F06A834515008347050025
:106140004111A205BE95C205C1812E852EC6EF4024
:10615000A057B24563070500EF40400841016F407A
:10616000906A29462945EFF09FC8CDBFEF42D06520
:1061700083C4150083C7050003CA3500A204BE947A
:1061800083C725002D711306C5FF1376F60F910501
:10619000220A1305D1003E9A2306C100EF40906DFC
:1061A000B757001003C917E4130600108145C20455
:1061B000420A0810C180135A0A019379F90F03C9E2
:1061C00027E4EF40D0767000D2852685EF40A052BC
:1061D000631A05002946A6852145EFF05FC11561C8
:1061E0006F40D061B7D500012A8409469385853870
:1061F0001305D100EF40B065631E050CA5472300D1
:10620000F102834724011379F90F220995073369B5
:106210003901A300F102894463F9240B8347240167
:1062200093895400CE976342F90A035704001C1265
:10623000A6972380E7F093871400C2071812C18342
:10624000BA97035704001412C20921832380E7F090
:106250005C4493D9090103C7070093872400C20750
:10626000C183B6972380E7F0034704009387340087
:10627000C207C183B69705072380E7F08357040060
:106280009104C204C1808507B694A1872380F4F0ED
:10629000034624014C481C1033853701EF40905DC4
:1062A0000355040083442401700009054205CE947F
:1062B000D2854181C204EF400044C1802A84630634
:1062C000050083570500E39947F593F5F40F08108F
:1062D000352E31B7B7D500010946938545381305EA
:1062E000D100EF40D0560356840025474C4423008C
:1062F000E1029377F60F631D05089907A300F102E9
:106300008357040028102301F10283570400A1835E
:10631000A301F102EF40105689472306F100B7D7D9
:1063200000019387073883C607000357840083C79B
:106330001700A306D1005444416493048700700001
:106340001377F70F9305C4FF05452307F100EF40CE
:10635000A0418357050070009305C4FF2302F1029A
:1063600083570500C204C180A183A302F102035533
:106370000500050542054181EF40E037835705FFE1
:106380002303F102835705FFA183A303F10235BF65
:106390008907A300F1028357040048102301F1028A
:1063A00083570400A183A301F102EF40B04C835452
:1063B00084009104C204C18009BFEF42904283C4AB
:1063C000150083C7050003C43500A204BE9483C72B
:1063D0002500220401113E9489472306F10083C75A
:1063E0004500C2044204A306F10083C75500130709
:1063F000A5FFC1804180938665001377F70F700079
:10640000A28526852307F10002C223040100EF4084
:10641000A035631A05002946A6851145EFF03F9D7A
:1064200005616F40503E9D472302F1000355050072
:106430007000A28593578500A302A10005054205BF
:1064400041812303F100EF40002B631C0500F1574D
