:020000040100F9
:1000000017E1010F13010180170500001305851783
:100010001365150073105530996273A00230731088
:100020003000B74200109382224D054383820200C4
:100030006387620417E500001305C5B79705010F34
:10004000938545FC1706010F1306460863FAC500A1
:100050008322050023A0550011059105E3EAC5FEA2
:100060001705010F130585069745010F9385C55E9A
:100070006377B500232005001105E36DB5FEB712C7
:1000800000009382028073A04230A14273A002302C
:10009000EF10200101A073700430730020307360F2
:1000A00004307300203001005D7106C012C216C416
:1000B0001AC61EC82ACA2ECC32CE36D03AD23ED468
:1000C00042D646D872DA76DC7ADEFEC0F3221034ED
:1000D0007323203496C29AC497020000938282133D
:1000E00037030200130343C00323030093132300C9
:1000F0009E9283A302009AC68293737004303643A3
:10010000B7020200938242C023A06200B72200001F
:100110009382028873A002309642264373102334E0
:100120007390123482401242A2423243C24352457B
:10013000E245724682561257A2573258C258525E52
:10014000E25E725F864F6161730020300000000044
:10015000000000000000000000000000000000009F
:10016000000000000000000000000000000000008F
:10017000000000000000000000000000000000007F
:10018000711116C0F322203463C40204110113015B
:1001900041FA06C00AC20EC412C616C81ACA1ECC3C
:1001A00022CE26D02AD22ED432D636D83ADA3EDC27
:1001B00042DEC6C0F2C2F6C4FAC6FEC873251034C9
:1001C000AACA73250030AACC0A85EF00400101A01D
:1001D000824211016FF05FED7D157DFD82806F0021
:1001E00000001300000013000000130000001300C3
:1001F00000001300000013000000130000000100C5
:100200006F00000013000000130000001300000046
:1002100000000000000000000000000000000000DE
:1002200000000000000000000000000000000000CE
:1002300000000000000000000000000000000000BE
:1002400000000000000000000000000000000000AE
:100250000002000100020001000200010002000192
:100260000002000100020001000200010002000182
:100270000002000100020001000200010002000172
:100280000002000100020001000200010002000162
:100290000002000100020001000200010002000152
:1002A0000002000100020001000200010002000142
:1002B0000002000100020001000200010002000132
:1002C000000200010000000000000000000000002B
:1002D0007441000100020001000200010000000062
:1002E000A30200000200410000000101FB0E0D000E
:1002F00001010101000000010000012E2F2E2E2F10
:100300002E2E2F2E2E2F506C6174666F726D2F73F0
:100310007461727475700000737461727475705FCB
:10032000727633322E7300010000000005020000D7
:100330000001031601030309080001030109080075
:100340000103010904000103030904000103010979
:100350000200010301090400010303090400010371
:100360000109080001030109020001030109040059
:100370000103030904000103010908000103010945
:100380000800010301090800010302090400010338
:10039000010904000103010904000103010902002D
:1003A000010301090200010303090400010301091B
:1003B0000800010301090800010302090400010308
:1003C0000109040001030109020001030B090400F3
:1003D00001030109080001030209040001030109E6
:1003E00002000103020904000103040904000103DF
:1003F00011090200010301090400010304090400BA
:100400000103010904000103D300090600010302EE
:10041000092400010303090C00010302090800017B
:100420000301090800010301090400010301090493
:100430000001030109020001030109040001030591
:10044000090200010302090200010303090400017B
:100450000301090200010301090800010304090462
:10046000000103010908000103020904000103025D
:10047000090C000103020924000109040000010124
:100480000005028001000103E901010301090200E6
:10049000010301090200010301090400010301092C
:1004A0000400010303090200010301090400010320
:1004B0000109020001030109020001030109020010
:1004C00001030109020001030109020001030109FE
:1004D00002000103010902000103010902000103F6
:1004E00001090200010301090200010301090200E0
:1004F00001030109020001030109020001030109CE
:1005000002000103010902000103010902000103C5
:1005100001090200010301090200010301090200AF
:10052000010301090200010302090200010301099C
:100530000400010301090200010301090400010391
:100540000109020001030309020001030309040079
:10055000010303090200010301090200010302096A
:10056000020001030709040001030109020001035D
:100570000109020001030609020001030809220023
:100580000109DC000001011E0000000200A90500B5
:10059000010401E002000158060001E80500011312
:1005A00006000143060001018001110010065506F6
:1005B000030E1B0E250E13050000000000000000B6
:1005C0002400000002008705000104000000000074
:1005D000000000014C010000800100015C010000EE
:1005E00000000000000000002E2F2E2E2F2E2E2F98
:1005F0002E2E2F506C6174666F726D2F7374617242
:100600007475702F737461727475705F72763332A3
:100610002E7300443A5C6769745C4D595F53444BD8
:100620005C50524A5F4F55545055545C48443030EA
:100630003930315F736F6C61725F313130395C47D3
:10064000434300474E5520415320322E33312E3143
:100650000000000000000000FFFFFFFF000000009E
:10066000000000014C01000180010001DC020001DA
:08067000000000000000000082
:10100000EF92F05D37150110896513050500EF00BB
:101010001048EF306061EF304033631A0502370546
:1010200001101305C500EF10500A0D45EF402012C6
:101030001545EF406013EF30B06385669386868474
:101040001306B00FB6851305B00FEF30F06A6F903E
:10105000505BEF92D058C922EF30003237050110B3
:1010600013050500EF2090246F90B059EF92305790
:101070003705011013050500EF2050230545EF301B
:10108000803EC128B7070110239E072CEF30E02BCC
:10109000631705009305E0030545EF30D04E6F90D0
:1010A0005056EF92D053D937A13FEF90402CEF909C
:1010B000402AEF10E077713FDDBFEF9250522A8453
:1010C000B304B500631494006F90B053034504005B
:1010D00005041120C5BF73700430B707011003D792
:1010E000C72D37860010930670020507239EE72C54
:1010F0003E8783476635E3EEF6FEB707011083A609
:10110000872D37360110130616032380A60083A609
:10111000872D8506636AD60223ACD72C03C6872D9C
:10112000B7860010238FC60683C7972DA38FF606B8
:101130008357C72DFD17C207C183231EF72C639465
:101140000700736004308280B73601109386060072
:10115000E1B7EF92D048B787001003C7370437369E
:1011600001101306060013671700A381E70403C7E5
:1011700017059376F60F1377F707A388E70431472F
:10118000A384E708130740032389E706130700F841
:10119000A389E706131706014183238DD7069355CC
:1011A0008700A38DB70613071703238FD7064207BF
:1011B00093861603A38FB70693F6F60F4183238E0B
:1011C000D7062183A38EE70637370110130747039D
:1011D0009376F70F42074183238AD70693558700FA
:1011E000A38AB7060507238CD70642078506A38C7A
:1011F000B70693F6F60F4183238BD7062183A38B83
:10120000E706130710F8A388E706B707011023AC19
:10121000C72C89206F90F03EEF92703CAD2A6F9002
:10122000503E9307A0FA2300F600A300A600230176
:10123000B6001307E00293F7F50F6374B700930746
:10124000E0023E961307B0FBA301E600910723805E
:10125000F6008280EF921037B747001083C6C74C64
:1012600003C5D74C03C7E74C22054207598D558D5E
:1012700037070110B70600101307870C558D08C3F8
:1012800083C5A74B03C4B74B03C6C74B2204420612
:10129000518C4D8C558C40C383C5D74B83CAE74BCB
:1012A00003C6F74BA20A4206B3EACA00B3EABA0081
:1012B000B3EADA002324570183C5074C03CA174C4D
:1012C00003C6274C220A4206336ACA00336ABA00B0
:1012D000336ADA002326470183C5374C83C9474C5C
:1012E00003C6574CA2094206B3E9C900B3E9B900E5
:1012F000B3E9D9002328370183C5674C03C9774C6C
:1013000003C6874C220942063369C9003369B90014
:101310003369D900232A270183C5974C83C4A74C7E
:1013200003C6B74CA2044206D18CCD8CD58C04CF19
:1013300003C3F74C03C6074D03C8174D83C8C74CFA
:1013400003C7D74C83C5E74C420893178700220692
:101350001397050133660601D98F33666600B3E73C
:101360001701D58F558E1D8E91473346F602814564
:101370000A06EF90903B23800A0023000A00238096
:10138000090023100900239004009307F0052300AF
:10139000F4006F907026EF921022B7090110938726
:1013A000890C397103AB4701984FA3050100737095
:1013B0000430B704011083D7C42D81459389890C6B
:1013C0008507239EF42C835A070003540B00130C4B
:1013D0000003C20A420493DA0A014180374900102F
:1013E000B70B0010139705014183631B540383D788
:1013F000C42DFD17C207C183239EF42C6387070801
:10140000630D070093F5F50F01459306B1007000D9
:10141000093D8345B10068004D3121616F90301D59
:10142000138A4500E3058AFD83A50900931724006C
:101430001146BE959307B10033854701ED2E034554
:10144000F94C8347094D0346194D8345C94C034761
:10145000D94C8346E94CA20742062207C206D18F27
:10146000558F4D8FC98F33677701B3E77701998F18
:101470001147B3C7E7020504D285B367F40213949A
:101480000701418023108B00B1BF736004308DBF12
:1014900063830504EF92B0149307B00F41112E84BB
:1014A00063D4B7001304B00F9307A02AAA848D4514
:1014B00068002316F100230781000131A2852685EB
:1014C000ED3E9307B0FB680085452306F100F53635
:1014D00041016F901013828081471308700C63C321
:1014E000D700828003C70500E36DE8FEB308F6006D
:1014F00083C808002A9785072300170103C7050042
:1015000093F7F70F05072380E500D1BFEF92B00AEC
:101510000111B7BA000137BB0001AA893289B6842C
:10152000014A953D938ACAFEA3050100130B8BFD6A
:10153000B7BB0001130C500283070900639407082E
:101540000345B10005616F90900A85063304D90008
:101550008307040063848701E39907FE638706001D
:101560004A869305B1004E85853F83070400228992
:10157000E39487FD130614001308000201441307C7
:1015800040061305900393060003A94513091600AE
:101590008307F9FF638BE70A634BF7046346F502A1
:1015A00063DDD70A1307500285466387E70037B625
:1015B00000019546130606009305B1004E85293FAC
:1015C000268C95A8814659B7130780056380E714D8
:1015D00013073006E39DE7FC9C40138C44008546CE
:1015E0003EC670009305B1004E85FD35A9A01307D6
:1015F00050076389E7106342F7041307000763800D
:10160000E71213073007E394E7FA138C4400904085
:101610008144B307960083870700639B070CA68667
:101620009305B1004E854D3D63F78400058CFD5454
:101630007D146311940CE284F5BD13078007638069
:10164000E70E1307A007E394E7F69C40138C4400D1
:1016500063C207023EC6014715A06396D700631414
:101660000400130800033304B4024A86130404FD83
:101670003E9429BFB307F0403EC60547A947B2488C
:101680000546B306F60263E6D800B3D5F602638FCB
:10169000C5088146630D0700930500037D14631898
:1016A000B8009306D0022308D100BA8601479305FB
:1016B000E4FF3545636FB50008089305F4FF3695E0
:1016C00023000501FD150505E39C05FE36949306F0
:1016D000F4FF63090700181036979305D00223081A
:1016E000B7FE850693058007631506041008DDBD67
:1016F000850405B7854613864BFD9305B1004E85DD
:10170000E13B3DB7138C44009C40A9B79C40138C2F
:101710004400130A80053EC60147C1478DB79C406F
:10172000138C4400130A80073EC6FDB77D1436862D
:1017300089BF33D7C8023377F702631DBA005A97BF
:1017400003070700080836952300E5008506335691
:10175000F60259BF5697EDB71171AED3B2D5B6D7D1
:101760002A86D4119305800C280086CFBAD9BEDB17
:10177000C2DDC6DF36C2593B63050500AA852800D5
:10178000013BFE4011618280634505021377F50F2E
:10179000B7070200938707A00D833E978346070093
:1017A0001D898547B397A700D58F93F7F70F2300BF
:1017B000F7008280634505021377F50FB707020033
:1017C000938707A00D833E97834607001D898547B1
:1017D000B397A70093C7F7FFF58F2300F700828028
:1017E000634905029387F5FF39476364F7029377EE
:1017F000F50F7D67130707408583BA9703C7070076
:1018000005890A05B395A500D98D93F5F50F2380B9
:10181000B7008280EF92A05C411185472EC62A84D2
:101820006319F6009537B24522855D3F41016F90FF
:10183000405D4937CDBF81473708001063C3C700FB
:101840008280B386F500B3E6060183C6060033073F
:10185000F5003367070193F6F60F2300D7008507DD
:10186000F1BF01A08147B706001063C4C70005455A
:1018700082803307F500558F034807003387F50052
:10188000558F034707001377F70F63140701850788
:10189000E9BF014582809317F5003787001063D2B6
:1018A00007048346B7018347C7011377F50FA207E3
:1018B000D58FC207C187638105021345F7FF7D8D70
:1018C000420541811377F50FB7870010A38DE7001C
:1018D0002181238EA7008280139507014181598DB4
:1018E000D5B7834607058347170542054181A207FF
:1018F000D58F33E7A700638605001345F5FF33F75F
:10190000A700B78700109376F70F13558700238839
:10191000D704A388A7048280B75700100547238DFA
:10192000E7BE13075003238EE7BE930650033757D5
:1019300000108347B7BF93F7F70F6386070083470D
:10194000C7BFE388F6FE8280B7570010238D07BE1D
:101950008280EF92C04841112AC62EC432C27370F1
:101960000430370401108357C42D8507231EF42C3F
:1019700065373245B78700101377F50F2386E704E4
:10198000135785401377F70FA386E70413570541D4
:101990001377F70F2387E7046181A387A704A24584
:1019A000B70700101246DD8D83C705001305803E82
:1019B0005D8E2380C500812A413F8357C42DFD17CA
:1019C000C207C183231EF42C6394070073600430A4
:1019D00041016F900043EF9280402E86A165E5059E
:1019E0008D3F6F900042EF92803F9145ED376F90B1
:1019F0004041B78700101375F50F2383A71813F71D
:101A0000F50FA381E71813D785401377F70FC1852A
:101A10002382E71893F5F50FA382B71803C7771849
:101A20001377F707A383E71803C777181367070827
:101A3000A383E7188280B787001003C7771886054D
:101A400021051377F707A383E71803C77718AA952B
:101A50000A06B29592053D8BBA9593F5F50FA383CF
:101A6000B7188280B78700101375F50F2381A71868
:101A700013F7F50FA380E70C13D785401377F70F03
:101A8000C1852381E70C93F5F50FA381B70C03C73C
:101A900077181377770FA383E71803C777181367AF
:101AA0008700A383E7188280378700108347771861
:101AB00086050A0693F7770FA303F718834777186D
:101AC00093F7070FA1073E952E9532951375F50FE5
:101AD000A303A7188280EF928030B705800013051A
:101AE000E003013F014681450545B137B7F50600E2
:101AF0009385A57413054004B53701468145054516
:101B000065376F900030EF92802D2A84EF20405B84
:101B1000B7871E00938707483355F50233058502C2
:101B2000EFE08FEB6F90E02DB78700100D47238813
:101B3000E7008280B70701109387470F9843636FD0
:101B4000A702D043B386C7006316D50054413E8533
:101B5000B296D4C35041B306C500631CD700B70684
:101B6000011083A6C60F6306D70054431843B296EC
:101B700054C118C16303F50088C38280BA877DBF52
:101B8000EF924024370701108324470E2D059377E9
:101B9000C5FF63E5F408BA89370701100324470F2E
:101BA0001307470F544063F5F6001040631506060F
:101BB000370601100326C60F0149630B8604104047
:101BC0000329070010C33387F640C146210963F794
:101BD000E6003305F40058C15CC0A93F5840B70681
:101BE000011003A6860EB387E44023A2F90E63F426
:101BF000C70023A4F60EB70700805D8F58C03707D3
:101C000001108327C70E2320040085072326F70E23
:101C10004A856F90601E2287328469B773700430E2
:101C2000370701108357C72D37B6000137B50001BC
:101C30008507130686029305D00B13058500231E26
:101C4000F72C01493939E9B7630205048327C5FF39
:101C500063DE07028607032785FF8583232EF5FEB3
:101C600063160702EF92A017B706011003A7460EEE
:101C70006115BA9723A2F60E753D37070110832729
:101C8000070F85072328F70E6F90A0178280B707EC
:101C900001109387470FE11523A20700AA9588C377
:101CA000B70701103707011023AEB70EB387A54061
:101CB00023A2050023A005002324F70E37070110F7
:101CC0005CC10CC12322F70E8280EF92A00F37096E
:101CD0000110B70401100144B70A011013090910DB
:101CE0008549370A01109384041683C70A1963646F
:101CF000F4006F90601093173400CA9703D7070061
:101D00006314370303D767006314070283D62700E1
:101D100003D747006399E602239007009317240036
:101D2000A6978843EF40704505041374F40F75BF00
:101D3000E31C37FF83D6270003D747006395E600EF
:101D400023910700E1BF7370043003D72700835647
:101D5000CA2D05072391E700E39806FC7360043061
:101D6000E1B7B707011083C70719637CF50237078E
:101D700001101307071693172500BA979843930786
:101D8000400F630E0700B7070110938707100E0579
:101D90003E9585472310F5002311050081473E85B8
:101DA00082809307200FE5BFB707011083C707198B
:101DB0002A876378F502B7060110931725009386EA
:101DC0000616B6979C431305400F638E0700B707AE
:101DD00001100E0793870710BA972390070001455B
:101DE00082801305200F8280B707011083C707196F
:101DF0006373F50625479307200F637CB704370705
:101E000001101307071693172500BA9798439307F5
:101E1000400F6300070473700430B707011003D745
:101E2000C72DB7070110938707100E053E9585470C
:101E30002310F500A947B3D5F5022311050023139C
:101E4000C5008147FD152312B500631407007360B8
:101E500004303E8582809307200FE5BFB70701104D
:101E600083C507192D473E866367B7041307100F14
:101E7000630A050237070110130807168147930606
:101E800007168328080013F7F70F638DA800639DDA
:101E900008008A07B69788C36396E5009307170082
:101EA0002308F6183A858280850713F7F70F110883
:101EB000E3F9E5FCC5BF1307200FEDB7EF823072E1
:101EC0000146B94513050003EFF0DF946F8070738E
:101ED000EF82F0709307803EB385F502372600014C
:101EE0001306A6CCEF20000D6F80B071EF82306F2B
:101EF0006545EF00B0066F80D070894763FAB7047C
:101F000003570500014881473A8693161800AA96A0
:101F100083D60600B697B68863F3E600BA881397AF
:101F200008014183B6886373D600B288050893160A
:101F3000080113960801C1824182E3E8B6FC998F3B
:101F4000918F1385E5FF33C5A70242054181828049
:101F500001458280374600108346C64A8347D64AE9
:101F60000347E64A37080010A2074207D98FD58FEA
:101F7000B3E7070183C807008347C64A8346D64AAA
:101F80000347E64AA2064207D98EDD8E8506B3E6F0
:101F9000060183C706000343C64A0347D64A834661
:101FA000E64AA2072207C206558F33676700090772
:101FB00033670701034707000146B7460010420791
:101FC000D98FB3E71701B708001013170601418333
:101FD000636FB70873700430B705011003D7C52DC0
:101FE000374600100507239EE52C0345C64A834665
:101FF000D64A0347E64AA2064207D98EC98E37055C
:10200000001013F7F70FC98E2380E6000348C64A75
:102010008346D64A0347E64AA2064207D98EB3E66C
:10202000060113D787408506C98E1377F70F2380E3
:10203000E6000348C64A0347D64A8346E64AC187B4
:102040002207C206558F33670701090793F7F70F79
:10205000498F2300F70083D7C52DFD17C207C18321
:10206000239EF52C6394070073600430828033E76D
:102070001701034807003307C50085072300070140
:1020800003C3264B03C7364B03C8464B22074208FF
:10209000336707013367670063EDE70003C8F64A5B
:1020A00083C7064B03C7164BA2074207D98FB3E776
:1020B0000701050619BF374600108346364A834795
:1020C000464A0347564A37080010A2074207D98FED
:1020D000D58FB3E7070183C807008347364A834695
:1020E000464A0347564AA2064207D98EDD8E850628
:1020F000B3E6060183C706000343364A0347464A50
:102100008346564AA2072207C206558F33676700E7
:10211000090733670701034707000146B746001068
:102120004207D98FB3E71701B7080010131706014C
:102130004183636FB70873700430B705011003D78C
:10214000C52D374600100507239EE52C0345364A6A
:102150008346464A0347564AA2064207D98EC98E8D
:102160003705001013F7F70FC98E2380E6000348E8
:10217000364A8346464A0347564AA2064207D98E44
:10218000B3E6060113D787408506C98E1377F70F8C
:102190002380E6000348364A0347464A8346564AA8
:1021A000C1872207C206558F33670701090793F7D6
:1021B000F70F498F2300F70083D7C52DFD17C207FE
:1021C000C183239EF52C63940700736004308280E2
:1021D0003308C5000348080033E7170185072300CB
:1021E000070103C3064A03C7164A03C8264A220743
:1021F0004208336707013367670063EDE70003C8F0
:10220000D64983C7E64903C7F649A2074207D98FD3
:10221000B3E70701050619BFB747001003C6374AE1
:1022200003C7474A83C6574A370800102207C20629
:10223000558F518F336707018345070003C6374A1F
:1022400003C7474A83C6574A93F5F50F2207C206CC
:10225000558F518F0507336707010347070003C5F3
:10226000374A83C6474A03C6574A1377F70FA20671
:102270004206D18EC98E8906B3E6060103C6060062
:1022800083C8674A83C6774A03C5874A1376F60F21
:10229000A2064205C98EB3E61601B3E6060103CED7
:1022A000060003C5674A83C6774A03C3874AA20666
:1022B0004203B3E66600C98E8506B3E6060103C590
:1022C000060083C8674A83C6774A03C3874A220544
:1022D000A2064203B3E66600B3E616018906B3E63A
:1022E000060183C8060003C3674A83C6774AC2084B
:1022F00033651501B368C50103C5874AA2064205C7
:10230000C98EB3E66600B3E6060103CE060003C33A
:10231000674A83C6774A03C5874AA2064205C98E23
:10232000B3E666008506B3E6060103C5060083CE64
:10233000674A83C6774A03C3874A939786009316F2
:102340000301D58FB3E7D7018907B3E7070183C638
:102350000700931785000145C206D58FB3E7C70173
:10236000639BF800220713150601598DC98D33852B
:102370001541133515008280B747001003C6C74AC0
:1023800003C7D74A83C6E74A370800102207C206A8
:10239000558F518F336707018345070003C6C74A2E
:1023A00003C7D74A83C6E74A93F5F50F2207C2064B
:1023B000558F518F0507336707010347070003C592
:1023C000C74A83C6D74A03C6E74A1377F70FA20660
:1023D0004206D18EC98E8906B3E6060103C6060001
:1023E00083C8974A83C6A74A03C5B74A1376F60F30
:1023F000A2064205C98EB3E61601B3E6060103CE76
:10240000060003C5974A83C6A74A03C3B74AA20674
:102410004203B3E66600C98E8506B3E6060103C52E
:10242000060083C8974A83C6A74A03C3B74A220552
:10243000A2064203B3E66600B3E616018906B3E6D8
:10244000060183C8060003C3974A83C6A74AC20889
:1024500033651501B368C50103C5B74AA206420535
:10246000C98EB3E66600B3E6060103CE060003C3D9
:10247000974A83C6A74A03C5B74AA2064205C98E32
:10248000B3E666008506B3E6060103C5060083CE03
:10249000974A83C6A74A03C3B74A93978600931601
:1024A0000301D58FB3E7D7018907B3E7070183C6D7
:1024B0000700931785000545C206D58FB3E7C7010E
:1024C000639BF800220713150601598DC98D3385CA
:1024D0001541133515008280B747001003C6374AEF
:1024E00003C7474A83C6574A2207C206558F518FF2
:1024F00037060010518F0348070003C7374A83C6C9
:10250000474A83C5574AA206C205CD8ED98E850695
:10251000D18E03C7060083C8374A83C6474A83C59E
:10252000574A2207A206C205CD8EB3E616018906D8
:10253000D18E83C60600C206558F3367070103C8D4
:10254000674A83C6774A83C5874AA206C205CD8EED
:10255000B3E60601D18E03C8060083C8674A83C666
:10256000774A83C5874AA206C205CD8EB3E6160117
:102570008506D18E83C8060003C3674A83C6774A9F
:1025800083C5874AA208A206C205CD8EB3E66600BF
:102590008906D18E03C3060003CE674A83C6774AF5
:1025A00083C5874A4203A206C205CD8EB3E6C601A3
:1025B000D18E83CE060003CE674A83C5774A83C691
:1025C000874AB3E86800A205C206D58DB3E5C50108
:1025D0008505D18D83C6050003CF674A83C5774A39
:1025E00003CE874AA206A205420EB3E5C501B3E5B4
:1025F000E5018905D18D83C5050033E80801C205D1
:10260000CD8EB3E6D6016305D80603C8674A83C6F4
:10261000774A83C5874AA206C205CD8EB3E6060176
:10262000D18E83C8060083C6674A83C5774A03C82C
:10263000874AA2054208B3E50501D58D8505D18DF0
:1026400083C6050003C3674A83C5774A03C8874A20
:10265000A2069397850093150801CD8FB3E7670015
:1026600089075D8E83470600C207DD8EB3E616013B
:102670004205814541813746001063E4A5000545C8
:1026800082808348064A8347164A0348264A05073C
:10269000A2074208B3E70701B3E71701636DF7002C
:1026A0000348D6490347E6498347F6492207C2074C
:1026B0005D8F336707016306D7008505C205C181B9
:1026C0006DBF01458280EF82E06FB7340110930740
:1026D000F6FF238CA41293F7F70F13074002636DE4
:1026E000F706B747001003C75749894693898413F3
:1026F0006394E600A38A0748131516001375E50FC7
:1027000032842E89D13B631705027370043037077A
:1027100001108357C72D37B6000137B50001850773
:10272000130686079305600813058503231EF72CFF
:10273000EFF02F9337350110CA8522861305A513B4
:10274000A3808900EF80C0729305240093F5F50FF4
:1027500013858413EFF03F966F80006AEF82206844
:102760004111930710102316F10023070100B7470A
:10277000001003C7574989462A846394E600A38A58
:1027800007481945913B63170502737004303707FA
:1027900001108357C72D37B6000137B500018507F3
:1027A000130686089305700913058503231EF72C6D
:1027B000EFF02F8B68008D4523078100EFF0BF8F6E
:1027C00041016F800064EF82806141119307D01056
:1027D0002316F10023070100B747001003C757492C
:1027E00089462A846394E600A38A07481945ED3197
:1027F0006317050273700430370701108357C72D24
:1028000037B6000137B5000185071306C6099305E1
:10281000700A13058503231EF72CEFF08F846800E0
:102820008D4523078100EFF01F8941016F80605DB6
:10283000EF82E05A91366319050437340110894557
:1028400013058403EFF00FF1834784032D47FD1731
:1028500093F7F70F636CF7029304840383C51400A6
:10286000373901101305A903EFF0CFEEB7070110B8
:102870000347840383A7471903C514000A07BA97BF
:102880009C439305A90382976F80A057737004300F
:10289000370701108357C72D37B6000137B5000140
:1028A00085071306C60A9305A00B13058503231E8F
:1028B000F72CEFE01FFBC9BFEF82605237B5000174
:1028C00013050506EFE05FE901A0B707011023AA91
:1028D000A7188280EF82204E832905004111638969
:1028E000091A2A84832BC500032AC501832A0502FD
:1028F0004451854513050004EFE0FFF94165854526
:102900000505EFE05FF903594400D52CB7870010A7
:1029100003C7C7117D1913074004238EE71003C8AE
:1029200097144E9913DB09011378380F1368880048
:102930001377F80FA384E71413F7F90F93D989409D
:10294000238EE70293F9F90FA38E37031377F90F5C
:1029500013598940238FE7021379F90FA38F2703B7
:1029600083C6071803C71718137B1B002207558F50
:1029700014482316E1000547639FE610034744010E
:10298000A38FE7168357C100C607C5832316F1003E
:102990008357C1007177F98F184C2316F1008547D2
:1029A0006310F7108357C1001167D98F2316F10008
:1029B0008347C100378600102300F6188357C100F3
:1029C000A183A300F6188347861403477604834542
:1029D000B6038348D6170346E6171375F70F93F52A
:1029E000F50F2206336616012314C100054693F73E
:1029F000F70F2A87AE86639BCB0A93F7F70B93E713
:102A000007FA1044BD9B93E847005943C687630506
:102A10006616636DC30C2D43630C66126363C30AB1
:102A200021436304661037860010A303E6042304E1
:102A3000F614A30DD60283478100137838FF13687C
:102A40000808A30EF616835781001A0B93F6F6FBBF
:102A5000A183230FF6168347A603B3E6660193E727
:102A60000708230DF602A30406159147631FFA1405
:102A7000DD9AB7870010A38DD70263800A165685AA
:102A8000D524639E0414EF00900203455401B1263F
:102A900041016F80C0358357C1006177D98FFDB583
:102AA0008357C10071777D17F98F09B70946639580
:102AB000CB0093E707FEB1B793F7F70793E78700DB
:102AC00089B731436303660A4143E31E66F48357C3
:102AD00081001377F503136707F893F7F7E393E79C
:102AE00007042314F10093F7C8FE85A01303000226
:102AF0006301660A636CC3006143E31666F28357A1
:102B0000810093F7F7E393E70704ADA81303C0022E
:102B10006302660A13030003E31766F0835781001C
:102B200093F7F7E393E7070461A8835781001377CE
:102B3000F503136707F893F7F7E393E70704231404
:102B4000F10093F7C8FF93E7170093F6F50EE1BD88
:102B50008357810093F7F7E393E707081377F503AB
:102B60002314F10013670704E9BF8357810093F72B
:102B7000F7E393E70704DDB78357810093F7F7E3A3
:102B800093E707081377F5032314F100136707048D
:102B900099BF835781001377F503136707F893F7FD
:102BA000F7E393E707042314F10093E6050193F795
:102BB000C8FE95BD8357810093F7F7E393E70708B5
:102BC0002314F1001377F50339BF93E68600137AD7
:102BD0003A00E19AB3E6460169BDD92A5DB5854759
:102BE0006394F400B52955B589476394F400352CF6
:102BF00069BD8D47E39BF4E8EF00B00E79B5B78669
:102C00000010C147A38EF61083C7D61137050110F7
:102C10003786001093E707013E8793F7F70FA38EDF
:102C2000F610B7B700019387070C138E0710AA8818
:102C300083C6070013670702A107A30CD61083C63B
:102C400097FF230DD61083C6A7FFA30DD61083A62A
:102C500087FF03A3C7FF8345851913D88600620346
:102C6000B69533680301C295C182AE96230CD51880
:102C70009376F70FA30ED6109376F7FD368793F66B
:102C8000F60FA30ED610E395C7FBB7B700019387E5
:102C9000872B1383070E3786001083C60700136740
:102CA0000702A107A30CD61083C697FF230DD610E9
:102CB00083C6A7FFA30DD61083A687FF03A8C7FF6F
:102CC00083C5881913D586006208B6953365A800B8
:102CD000AA95C182AE96238CD8189376F70FA30ECF
:102CE000D6109376F7FD368793F6F60FA30ED6101F
:102CF000E315F3FA13060008B7860010A38C06103C
:102D0000238D0610136707029377F70FA38D061024
:102D1000A38EF6107D169377F7FD3E87420693F754
:102D2000F70FA38EF6104182E31A06FC1377F70C17
:102D3000A38EE6108280378700108347B7031E05F5
:102D400093F7F707C98F93F7F70FA30DF702828068
:102D5000EF82E008B7870010238D0702EF00F0151F
:102D60006F80200AEF82A007378700109377F50F56
:102D700041112302F70C230601008347C100218182
:102D80003D89C19B5D8D2306A1008347C100A3023D
:102D9000F70C212041016F80C00637870010834760
:102DA000570C93E7070193F7F70DA302F70C828006
:102DB000378700108347470C93F7F70E93F6F70F0A
:102DC00093E70702A302D70C93F6F70FA302D70CE1
:102DD00093F7F70CA302F70C8280A94663E5A604DB
:102DE00032053345D502378700100346071883475D
:102DF00017184111F176A207D18F2316F1008357DE
:102E0000C100F58F4A0549815D8D2316A1008347D6
:102E1000C10005452300F7188357C100A183A30013
:102E2000F7184101828001458280B797001003C7DF
:102E300007B001111367E7032380E7B003C717B09A
:102E4000118B13671705A380E7B003C727B01307DB
:102E500050052381E7B01307A0022382E7B003C720
:102E600057B01377E70F13676703A382E7B003C771
:102E700067B01377070E136787002383E7B003C794
:102E800077B01377070E13678706A383E7B003C7EE
:102E900087B0136757002384E7B003C797B01307C1
:102EA0004008A384E7B02300010003470100759B9D
:102EB0002300E10003470100136747002300E100FE
:102EC00003470100136707022300E10003470100E5
:102ED000136707042300E10003470100136707F8A5
:102EE0002300E10003470100A385E7B00347010089
:102EF0006D9B2300E10003470100A385E7B0230297
:102F0000010003474100136717002302E100034754
:102F10004100136727002302E100034741001367C4
:102F200047002302E100034741005D9B2302E100CB
:102F3000034741002386E7B02304010003478100D3
:102F4000719B136717002304E100034781004D9B29
:102F5000136747002304E100034781001377F7FC60
:102F6000136707012304E100034781001377F70388
:102F7000136707042304E10003478100A386E7B039
:102F8000230601000347C100719B13671700230646
:102F9000E1000347C1001377F7FC1367070223061C
:102FA000E1000347C1001377F703136707F823060F
:102FB000E1000347C1002387E7B01547A387E7B0C7
:102FC0002308010003470101019B13674701230800
:102FD000E100034701012388E7B0230A010003470A
:102FE0004101719B13671700230AE1000347410168
:102FF0004D9B13674700230AE10003474101A38863
:10300000E7B0230C010003478101619B1367670050
:10301000230CE100034781011D9B13678700230CEC
:10302000E100034781017D8B13670704230CE10056
:10303000034781012389E7B0230E01000347C10143
:103040001377F703230EE1000347C101137707FC51
:10305000230EE1000347C101A389E7B00561828027
:10306000EF72F057011123020100834741003794AA
:1030700000101305800C93E717002302F10083472B
:10308000410093E727002302F10083474100ED9BB5
:103090002302F1008347410093E787002302F100F8
:1030A000834741002306F4B0834704B093E7E70366
:1030B0002300F4B0834714B0918B93E71705A30066
:1030C000F4B0834724B0930750052301F4B093076D
:1030D000A0022302F4B0834754B093F7E70F93E7BD
:1030E0006703A302F4B0834764B093F7070E93E736
:1030F00087002303F4B0834774B093F7070E93E778
:103100008706A303F4B0834784B093E757002304F2
:10311000F4B0834794B093074008A304F4B02300AD
:1031200001008347010093E727002300F100834754
:10313000010093E747002300F1008347010093E774
:1031400007022300F1008347010093E707042300EF
:10315000F1008347010093E707F82300F10083475C
:103160000100A305F4B0EFE01F9A83470100ED9B37
:103170002300F10083470100A305F4B023040100FC
:1031800083478100F19B93E717002304F1008347F5
:103190008100CD9B93E747002304F1008347810022
:1031A00093F7F7FC93E707012304F10083478100BD
:1031B00093F7F70393E707042304F10083478100A3
:1031C000A306F4B0230601008347C100F19B93E7F7
:1031D00017002306F1008347C10093F7F7FC93E73C
:1031E00007022306F1008347C10093F7F70393E733
:1031F00007F82306F1008347C1002307F4B0954781
:10320000A307F4B02308010083470101819B93E7E2
:10321000F7002308F100834701012308F4B0230AD3
:10322000010083474101F19B93E71700230AF10056
:1032300083474101CD9B93E74700230AF100834771
:103240004101A308F4B0230C010083478101E19BF5
:1032500093E76700230CF100834781019D9B93E76F
:103260008700230CF10083478101FD8B93E707045E
:10327000230CF100834781012309F4B0230E0100E0
:103280008347C10193F7F70393E70704230EF10087
:103290008347C10193F707FC93E76700230EF10012
:1032A0008347C101A309F4B005616F709035B797EA
:1032B000001003C707B001111367E7032380E7B0CD
:1032C00003C717B0118B13671705A380E7B003C7B7
:1032D00027B0130750052381E7B01307A00223820C
:1032E000E7B003C757B01377E70F13676703A382ED
:1032F000E7B003C767B01377070E13678700238310
:10330000E7B003C777B01377070E13678706A38369
:10331000E7B003C787B0136757002384E7B003C73C
:1033200097B013074008A384E7B0230001000347C8
:103330000100759B2300E10003470100136747006C
:103340002300E10003470100136707022300E100A7
:1033500003470100136707042300E100034701004E
:10336000136707F82300E10003470100A385E7B0D6
:10337000034701006D9B2300E10003470100A38583
:10338000E7B023020100034741001367170023023F
:10339000E10003474100136727002302E1000347D0
:1033A00041006D9B2302E100034741005D9B230226
:1033B000E100034741002386E7B0230401000347EF
:1033C0008100719B136717002304E100034781000C
:1033D0004D9B136747002304E100034781001377E7
:1033E000F7FC136707012304E1000347810013770B
:1033F000F703136707042304E10003478100A38652
:10340000E7B0230601000347C100719B1367170053
:103410002306E1000347C1001377F7FC1367070297
:103420002306E1000347C1001377F703136707F88A
:103430002306E1000347C1002387E7B01547A387B0
:10344000E7B02308010003470101019B136747010F
:103450002308E100034701012388E7B0230A0100A4
:1034600003474101719B13671700230AE1000347DB
:1034700041014D9B13674700230AE10003474101C7
:10348000A388E7B0230C010003478101619B136708
:103490006700230CE100034781011D9B1367870030
:1034A000230CE100034781017D8B13670704230C84
:1034B000E100034781012389E7B0230E01000347A0
:1034C000C1011377F703230EE1000347C10113770E
:1034D00007FC230EE1000347C101A389E7B00561A2
:1034E0008280B797001003C707B001111367C703A5
:1034F0002380E7B003C717B0118B13671705A380AC
:10350000E7B003C727B0118B136717052381E7B016
:1035100003C757B01377E70F13676702A382E7B0BB
:1035200003C767B01377070E136787002383E7B0DD
:1035300003C777B01377070E13678706A383E7B037
:1035400003C787B0136757002384E7B003C797B05A
:1035500013074008A384E7B023020100034741009A
:10356000136707022302E1000347410013670704C2
:103570002302E10003474100136707F82302E1003B
:1035800003474100A385E7B02304010003478100FE
:10359000136717002304E100034781001367270026
:1035A0002304E100034781006D9B2304E1000347EE
:1035B00081002386E7B0230601000347C100719B09
:1035C000136717002306E1000347C1004D9B1367F3
:1035D00047002306E1000347C1001377F7FC136798
:1035E00007012306E1000347C1001377F7031367C0
:1035F00007042306E1000347C100A386E7B02308C0
:10360000010003470101719B136717002308E100C4
:10361000034701011377F7FC136707022308E10052
:10362000034701011377F703136707F82308E10045
:10363000034701012387E7B01547A387E7B0230AB3
:10364000010003474101019B13674700230AE10082
:10365000034741012388E7B0230C010003478101A0
:10366000719B13671700230CE100034781014D9BF9
:1036700013674700230CE10003478101A388E7B0EB
:10368000230E01000347C101619B13672700230E2E
:10369000E1000347C1011D9B13678700230EE10072
:1036A0000347C1017D8B13670704230EE100034725
:1036B000C1012389E7B005618280B797001003C775
:1036C00007B041111377F70E2380E7B023060100FE
:1036D0000347C100136707022306E1000347C10047
:1036E000A385E7B0238607B041018280EF72206F87
:1036F000930750022A84AE8463F1A70237B6000113
:1037000037B5000113068649E14513050547EFE08B
:103710004F95A1679387A71239A0FD47E3EBA7FE5A
:10372000A167938707087D883E94B70700105D8CDA
:1037300093F4F40F230094006F70A06CEF72206A72
:10374000930750022A8463F3A70237B6000137B506
:1037500000011306464A9305600213050547EFE092
:103760004F90B78700109387A73101A8FD47E3EA80
:10377000A7FEB78700109387C73103C70700FD472F
:103780001375F70F63E98704B78700109387D73164
:1037900003C70700FD472207498F63E38704B78704
:1037A00000109387E73103C50700FD474205498FA5
:1037B00063ED8702B78700109387F73183C707004F
:1037C00005453314850013958701598D618D333577
:1037D000A0006F700063B78700109387B7314DBFAB
:1037E000B78700109387C7317DBFB78700109387D5
:1037F000D731E9B79378F501FD473748001063806A
:10380000051663E2A7121308783383460800FD47C4
:10381000B745001093F6F60F63EAA710938585333A
:1038200003C30500FD47374600102203B366D300EB
:1038300063E1A7101306963303430600FD4737479D
:10384000001042033363D30063E8A70E1307A733C6
:10385000834607008547B3971701E20693F8F70FF1
:1038600033E3660093C6F8FFB3F6660093F6F60FEF
:103870002300D80093C6F7FFB3F6660013D886403E
:103880001378F80F2380050193D5064193F5F50FC2
:103890002300B600E1822300D7007D47B745001022
:1038A000636FA7089385B53303C70500FD46374608
:1038B00000101377F70F63E7A6081306C633034813
:1038C0000600FD4622083367E80063E0A608B74615
:1038D00000109386D63303C8060042083368E80018
:1038E0007D476369A706374700101307E733034591
:1038F0000700620533650501B3E8A800C98F93F896
:10390000F80F2380150193D5874093F5F50F230019
:10391000B60013D607411376F60F2380C600E18365
:103920002300F700828013081834C5B59385253429
:10393000C5BD1306363409B71307473411BF938545
:1039400005349DB7130616349DBFB7460010938605
:10395000263451B7374700101307373449BF63E7A0
:10396000A70E1308B83383460800FD47B74500107B
:1039700093F6F60F63EFA70C9385C53303C30500D9
:10398000FD47374600102203B366D30063E6A70C59
:103990001306D63303430600FD47374700104203A2
:1039A0003363D30063EDA70A1307E73383460700A9
:1039B0008547B3971701E20693F8F70F33E36600E4
:1039C00093C6F8FFB3F6660093F6F60F2300D8000F
:1039D00093C6F7FFB3F6660013D886401378F80F46
:1039E0002380050193D5064193F5F50F2300B6001A
:1039F000E1822300D7007D47B74500106364A70626
:103A00009385753303C70500FD46374600101377CD
:103A1000F70F63ECA6041306863303480600FD4641
:103A200022083367E80063E5A604B74600109386D2
:103A3000963303C8060042083368E8007D47636E8A
:103A4000A702374700101307A73355B513080834EA
:103A500019BF938515341DB71306263425BF1307E8
:103A60003734A9B79385153471BF1306263475B75B
:103A7000B7460010938636346DBF374700101307E2
:103A80004734B5B5EF72A0351C41216711078E0789
:103A9000BA9737070010D98F034785001305A00593
:103AA0002380E700EFE02F866F70A035EF722033A0
:103AB000D13F6F7000350199FD0563D3A500828069
:103AC0002320050013050502CDBFB787001013772B
:103AD000F50F21852382E70A1375F50FA382A70A44
:103AE00013F7F50FA1852381E70A93F5F50FA3815D
:103AF000B70A1377F60F21862383E70A1376F60FAA
:103B0000A383C70A13F7F60FA1862384E70A93F667
:103B1000F60FA384D70A21472385E7008280C16777
:103B200085073787001003450733218963040500A3
:103B3000054521A0FD17E39807FE8280EF72202A39
:103B4000378400100349040A930740048344140A8D
:103B50002300F40A930700F8A300F40A8146014603
:103B60001379F90F9D37653F93F4F40F2300240B6D
:103B7000A300940A6F70E028EF726026378400106B
:103B80000349040A930740048344140A2300F40AF7
:103B9000930700F8A300F40A1379F90F3D37413772
:103BA00093F4F40F2300240BA300940A6F70602594
:103BB000EF72E02241112306A10085456800BD3F58
:103BC00041016F700024EF728021411195472A86D0
:103BD0008546854568002306F100793F41016F70F5
:103BE0004022EF72C01F4111930750032A86854679
:103BF000854568002306F100413741016F70602060
:103C0000EF72E01D4111854737040001A307F10061
:103C100005041305F1007D147D37630B0400834711
:103C2000F100858BE39707FE054541016F70601D2C
:103C30000145E5BFEF72A01A411185472306F10047
:103C400083470500A306F1008347150019452307A4
:103C5000F100B93F630605008D456800C5354D3755
:103C600041016F70001AEF728017194591376F701C
:103C70004019EF722015AE896D711389F90F3284E6
:103C80002A8A1306401081456800137909F0EF7005
:103C9000C0292299930A0010330A8A40094B631401
:103CA000240105453DA8CE8663F43A019306001031
:103CB000B3078A0013D70701A306E1001397870013
:103CC000C207C183A183D98F2317F10023066101A5
:103CD0007C00814485076399D4007137631E050019
:103CE000014551616F70401133079400034707008D
:103CF0008504A381E700F9BF9385440068003D3D3A
:103D0000E30005FEF53D13040410E30B05FCB38945
:103D1000994071B7EF72A00C01112EC62A8402CE11
:103D20009937B24563160500014505616F70600D56
:103D300093D70501A30EF10093978500C205C181B9
:103D4000A181DD8D231FB10068089145230E8100FC
:103D5000F533E30B05FC6D35C9BFEF724008411127
:103D600002C413D7050123060100B787001083C4DE
:103D7000070A03C4170AA304E10013978500C205CC
:103D8000C181A181D98D2304A1002315B10013079E
:103D9000B00B328893F4F40F36861374F40F630D6E
:103DA000E5046363A7021307B003630EE50213077C
:103DB000B0066309E506B7870010130740042380A7
:103DC000E70AA380070A3DA01307700E630FE504FE
:103DD0001307B00EE311E5FE130720052380E70A61
:103DE0001307400605A0130710042380E70A2147A4
:103DF000A380E70A914511A8130710052380E70A5D
:103E000013070006A380E70A9545C2862800753986
:103E10003933B78700102380970AA380870A4101AE
:103E20006F60307E13072004C9B713072005238075
:103E3000E70A13072006F9B7EF62707A2A84B745BC
:103E4000000137450001938585E31305A5ACA53135
:103E5000A285130500027D3D6F60B07AEF62307875
:103E60002A84B7450001374500019385C5E5130550
:103E7000A5AC9131A28513051008693D6F6070787B
:103E8000EF62F0752A84AE8437450001B745000122
:103E90004111938505E81305A5AC32C62939324690
:103EA000A6852285F93341016F60B075EF623073EA
:103EB0002A84AE8437450001B7450001411193853E
:103EC000C5EA1305A5AC32C636C4EFF0DFBEA24684
:103ED0003246A6852285513541016F609072EF62AE
:103EE00010704111AA8468002E84F1396316050010
:103EF000014541016F60F0701305D100DD31E30928
:103F000005FE0347C1008347D1001377370893F7B5
:103F100037082306E100A306F10063850400418F02
:103F20002306E1001307E00F6376870093E7070499
:103F3000A306F1006800FD396DBFEF62506A2A8464
:103F4000AE8437450001B74500019385A5F31305FD
:103F5000A5ACEFF05FB6A685228551376F60706A19
:103F60007D15B70700016371F502B7F7011098439B
:103F7000C1669386A6F05D9B98C388C7C8C798435F
:103F80000145558F98C3828005458280B787001010
:103F900003C7270483C7370461450D8B85838D8B49
:103FA0006309070037B700011307874BBA9703C5AA
:103FB00007008280EF62B062B707011023AEC71816
:103FC000B707011023A0B71AAA843E84630806002D
:103FD0000546B94513050003EFD0DF839147639C85
:103FE000F400014521285D378327041A3305F502C3
:103FF000853F6F6010612685B128E5BFEF62305EB6
:10400000378700100346173A8347273A8346373AE3
:104010000347473AA207C206D58FD18F6207D98FCF
:10402000370700F91D897D1762057D8F498F13D5EC
:1040300087001375F50F93F6F70F22053695B7062F
:10404000FF00F58F61833E9562073A95EFD0BF99E7
:104050006F60305BEF62B058B784001003C4340463
:1040600006051374940F498C1145493F1374F40FDE
:10407000A381840495472381F404093FB707011005
:1040800083A7071A3305F502E13D0945EFD0BFA725
:104090006F603057EF62B0541147B787001023812B
:1040A000E704ED35B707011083A7071A3305F502BA
:1040B000453D0945EFD03FA5014589376F607054F4
:1040C000B787001003C7270483C737040D8B93F706
:1040D000F70F63020702854601456311D704858700
:1040E0008D8B638F07006382E70209476384E702D1
:1040F00037B5710B828037356E01130505608280FC
:104100003775DC02130505C0828037A51E0913052B
:104110000584828037E5B805130505808280EF624B
:10412000104C9307803E3305F50219206F60704DE7
:10413000EF62F04A2A84993D33048502813DB70736
:10414000011083A7071A37F601103305F502B7F7F8
:104150000110D44781477D155846E38FE6FEB69798
:104160006378D700998FBA86E3E887FE6F6070495D
:10417000AA97CDBFB707011083A7C71963870700A8
:10418000EF62F04582976F60D0478280EF623045E2
:1041900018419D472A8463FDE70037B6000137B513
:1041A00000011306464ED1451305C54BEFD06FEB0A
:1041B0001840104495479306000E3387E7026311B9
:1041C000D60821661305D60C03484400B706001034
:1041D0002A97558F83456400230007011840130672
:1041E000160D93E5050E3387E7022A970355440021
:1041F000558F0507558F21812300A7001840B387ED
:10420000E702B297D58F2380B7001C4013F7170041
:1042100063060702FD17154793F7F70FB387E70209
:1042200021671307170D83466400BA9737070010FC
:10423000D98F03C70700558F2380E7006F60703C5C
:10424000A1661385160DB70500102A974D8F0346FA
:1042500007009388D60C1376F6072300C7000346A1
:1042600084010347640003280400518F3388070347
:104270001044518F1048518F504846983368B80009
:10428000518F0346E4001377F70F2300C800104056
:104290000358E4003386C7021358880046964D8EB3
:1042A00005064D8E2300060110401388F60C834648
:1042B000C4003386C70242964D8E2300D6001440B8
:1042C0000356C400B386D7022182C296CD8E8506DE
:1042D000CD8E2380C6001440B387D702AA97CD8F16
:1042E0002380E7001DB7EF62902F9D47AA842E849C
:1042F00063FEA70037B6000137B500011306064F6D
:104300009305A0031305C54BEFD0AFD5B7870010B9
:1043100003C787118545B395950093C5F5FF331401
:104320009400F98DC18D93F5F50F238CB7106F6054
:10433000502DB74700100D47A38AE748B746001035
:1043400083C75649E30EF7FE8280B747001003C5C6
:10435000274D8280374700108346374D8347474DAE
:104360000145A207D58F639807000345971A137577
:10437000F50F3335A0008280EF627026B74700103A
:1043800083C75749054793F7F70F6385E7066387A8
:10439000070009476388E7006F60B0261305000433
:1043A000BD20DDBF73700430370401108357C42D66
:1043B0008507231EF42CEFD03FE663080502593F22
:1043C00063050502EF20D00863010502EF20807E1F
:1043D0008D378357C42DFD17C207C183231EF42CCC
:1043E000E39C07FA7360043045BFB7470010A38A07
:1043F0000748C5B773700430370701108357C72DBE
:104400008507231EF72CEF20E07A253771B7374751
:1044100000108346374D8347474D1345F5FFA207EC
:10442000D58F7D8D420541859377F50F42054181FA
:10443000A309F74C2181230AA74C8280374700103B
:104440008346374D8347474DA2075D8D558D420505
:1044500041859377F50F42054181A309F74C2181EE
:10446000230AA74C8280B7470010A384A71A828032
:10447000EF62F01679712A84AE84C14532C636C423
:104480001D88EFF0AFA685452285B13DA246324694
:10449000930700023ECE48089307000822CA3ED286
:1044A000230DD100231191022310C10202D423064F
:1044B0000102EFF0BFCD45616F60B014EF623012C2
:1044C00081452A84EFF08FA2814513757400213D48
:1044D0006F603013EF62B010B7070400011191074D
:1044E0003EC6A5472318F100A309A100B5476C00FB
:1044F0002D4619452309F100231A0100230B010061
:10450000EFE06F9C6C002D461145852605616F60BC
:10451000500FEF62D00C375700108347B7FF850765
:1045200093F7F70FA30DF7FE834745006395070246
:1045300083475500639F0700034765009147631A4F
:10454000F700D52AB7B5000149469385854F114537
:10455000292E6F60100B1147E39DE7FE03475500BE
:10456000E31907FE03476500E315F7FE834775006F
:10457000E39107FE83478500130710026392E70467
:104580005D2AB7B5000131469385455F1145F12C91
:104590005D22B7B500013546938505601145F124CC
:1045A000592AB7B500011306C00B93850561114563
:1045B0006D2C5122B7B5000135469385C56C41BFBE
:1045C0006D476393E704852AB7B5000113066009B8
:1045D0009385C5501145512CB92AB7B50001214624
:1045E0009385455A11455124B922B7B500011306E8
:1045F000F0029385C55A11458D2C352AB7B50001B7
:1046000059469385C55DA1B72547E394E7F48347F1
:104610009500E39007F40347A500B547E31BF7F2C5
:104620000305B500453D35B7EF62607BB707011064
:1046300003A5471A3E8463040500EFD0EFE08564CC
:10464000138564DFEFD0CFD3138664DF8145232247
:10465000A41AEF60900D37050110614681451305DE
:10466000052EEF60900C6F60C079B707011003A7AB
:10467000471A8347370083462700A207D58FB546E0
:1046800063E7F6028507C207C1832301F700A18310
:10469000A301F70083471700B946850793F7F70F83
:1046A0006385D700A300F7008280A3000700828003
:1046B000B707011003A7471A83473700834627002F
:1046C000A207D58F63870702FD17C207C1832301A5
:1046D000F700A183A301F70083470700B9468507C8
:1046E00093F7F70F6385D7002300F700828023003C
:1046F00007008280B707011083A7471A03C5270068
:104700008280B707011003A7471A83473700834603
:1047100027003547A207D58F637DF700EF62206C35
:1047200037B500011305C56DEFD00F8305456F60E8
:10473000406D01458280EF62806AE137E31F05FE2C
:104740006F60206CEF62A06941112A84737004309D
:10475000B704011083D7C42DA306B1002306A1001E
:104760008507239EF42C93D78500C181A307B10050
:1047700011466C001D452307F100EFD0DFF483D70D
:10478000C42DFD17C207C183239EF42C6394070038
:1047900073600430954763EC8702B7B700019387D5
:1047A000476F0A043E941840B70701109387072EFD
:1047B000028703C7370083C627002207558F0507E6
:1047C000420741832381E7002183A381E700410160
:1047D0006F60206303C7170083C607002207558F49
:1047E0000507420741832380E7002183A380E70078
:1047F000F9BF03C7570083C647002207558F050737
:10480000420741832382E7002183A382E700C1B7E7
:1048100003C7770083C667002207558F0507420745
:1048200041832383E7002183A383E7004DB703C7B8
:10483000970083C687002207558F050742074183EB
:104840002384E7002183A384E70051B703C7B7009F
:1048500083C6A7002207558F05074207418323859A
:10486000E7002183A385E7009DB7EF62A055B70756
:10487000011083A7471A1307F00F135A860003C4C9
:104880001700AA8932893304E402B3848700210423
:104890003E942384C400A384440113052400EF60E4
:1048A000205DA2854E8523832401A38344012382B6
:1048B0003401A38204007935EFF03FDB6F60C05311
:1048C000EF62E05141112A842EC6253D3246630B2A
:1048D000050037B500011305C570EFC0FFE74101C2
:1048E0006F602052A28505454937D5BFEF62204F42
:1048F0002E89B70500103367B500834607001307FC
:1049000015004D8F03440700130725004D8F220427
:10491000558C83460700130735004D8F83440700ED
:10492000AA87A204D58C6308040091073285DD8D27
:104930002286EFC05FF023108900231199006F6079
:10494000404C9147631AF600EF6260491375F50F0A
:10495000EF1030526F60E04A8280EF624048AA87D1
:10496000B706001013875700558F8344070013873D
:104970006700558F0344070032852E891374F40FA6
:104980001376140093F4F40F630B06024204418083
:1049900001479306F00E0580930587006394D400C9
:1049A00093057700AE97B70500102286DD8DEFC026
:1049B0009FE823108900231199006F60804403460B
:1049C000070013877700558F03440700054722042B
:1049D000518CC1B7EF62A04083C4250083C7350066
:1049E0001547A204C207DD8C83C71500130101D847
:1049F000DD8CB7070010DD8C83C70500636AF70400
:104A000037B700018A0713074772BA979C433704E8
:104A100001101304042E828770008A852685F935DB
:104A2000A6850145EFF01FD2034621000355010082
:104A30006C00013F8347F4000347E400A207D98FCD
:104A40008507C207C1832307F400A183A307F400ED
:104A5000130101286F60E03A70008A852685F53DD4
:104A6000A6850145EFF01FCE8347D4000347C4005D
:104A7000A207D98F8507C207C1832306F400A1834B
:104A8000A306F400F1B713066004A6856800EFC022
:104A90009FDAA6850145EFF0FFCA8347140103475B
:104AA0000401A207D98F8507C207C1832308F40038
:104AB000A183A308F40069BF2685EFF09FA5A68512
:104AC0000145EFF03FC88347340103472401A207A3
:104AD000D98F8507C207C1832309F400A183A309E5
:104AE000F400BDB7A6850145EFF0DFC5834754014B
:104AF00003474401A207D98F8507C207C183230A50
:104B0000F400A183A30AF400A1B7EFF07FBA8347B2
:104B1000740103476401A207D98F8507C207C183C7
:104B2000230BF400A183A30BF4001DB7B7570010AB
:104B30000547A385E7BE13075003A386E7BE930688
:104B40005003375700108347C7BE93F7F70F6386AC
:104B500007008347D7BEE388F6FE8280B757001070
:104B6000A38507BE8280EF62802741112AC62EC42A
:104B700032C273700430370401108357C42D850787
:104B8000231EF42C6537A245324592462E86AA850F
:104B90001305B003EFF08FB12AC2C9378357C42D74
:104BA0001245FD17C207C183231EF42C639407002E
:104BB0007360043041016F60C024EF6240224111F4
:104BC000AA842E8932C673700430370401108357CB
:104BD000C42D9305E00301458507231EF42C6522AF
:104BE000B1373246CA852685EFF08FA9AA84BD3732
:104BF0009305E0030545412A8357C42DFD17C207DD
:104C0000C183231EF42C639407007360043026854F
:104C100041016F60001FEF62801CAA847370043032
:104C2000370401108357C42D9305E0030145850720
:104C3000231EF42C892ADD3D2685EFF0EF9FAA8400
:104C4000313F9305E00305453D2A8357C42DFD17E9
:104C5000C207C183231EF42C6394070073600430E1
:104C600026856F60001AEF628017AA847370043083
:104C7000370401108357C42D9305E00301458507D0
:104C8000231EF42C0922EFF07FEA2685EFF00F9D1A
:104C9000AA84EFF0BFEC9305E0030545ED208357B0
:104CA000C42DFD17C207C183231EF42C6394070093
:104CB0007360043026856F60C014EF62A010AA8470
:104CC0002E8401459305E00393F9F40F328A937A19
:104CD000F40F5528639D09029307F00F63FC8700CA
:104CE000137404F033063A0133853401631A340136
:104CF000D68521A05286A2852685EFF01FECBDA0A7
:104D000093050010EFF07FEB93890910E1BF1309C1
:104D100000109307F00F3309394163E28702E37B08
:104D200059FD5286CA8513840AF02685EFF0FFE804
:104D30004E9433062A01A285338524017DBF1304D6
:104D400004F04E94CA8526855286937AF40FCA944D
:104D5000EFF0BFE65299137404F08149330639012C
:104D600033853401631A3401E3940AF89305E003B0
:104D7000054511286F60400893050010EFF0FFE330
:104D800093890910E1BFEF62800541112AC62EC444
:104D900073700430370401108357C42D8507231E18
:104DA000F42CEFF0BFD8A2453245EFF00F99EFF0A9
:104DB000FFDA8357C42DFD17C207C183231EF42CCD
:104DC000639407007360043041016F608003EF62F9
:104DD0000001EF50A0516F60C002EF62400037B693
:104DE0000001B7B5000137B500011306C6739385FE
:104DF000857413054575EFC03F966F608000EF52D4
:104E0000107EB704011083A504041307500337B4C0
:104E1000000183C735006313F704370500101946F6
:104E200095051305754DEFC0FFA36309050283A522
:104E30000404375500104146C9051305C58FEFC05E
:104E40007FA2630D050037B5000113054577930573
:104E5000C476EFC07F9001456F50B07A37B500013E
:104E60001305057A9305C476EFC01F8F0545EDB78E
:104E7000EF52F076B70701102394071AB7550010C8
:104E800083C7B5E137B500011305857C93F7F70FAC
:104E90002380F59683C7C5E193F7F70FA380F596B6
:104EA00083C7D5E193F7F70F2381F59683C7E5E133
:104EB00093F7F70FA381F59683C7F5E193F7F70F03
:104EC0002382F59683C705E293F7F70FA382F59641
:104ED00003C605E283C6F5E103C7E5E183C7D5E173
:104EE00003C8C5E183C8B5E1B7B500019385C576B0
:104EF000EFC09F866F50F070B75700101377F50F13
:104F0000238DE7A22181A38DA7A213F7F50F238E8E
:104F1000E7A2A181A38EB7A21377F60F238FE7A292
:104F20002182A38FC7A213F7F60F2380E7A4A182E3
:104F3000A380D7A48280B7570010A386A7EA8280F7
:104F4000FD4763EEB700156781471307679F370674
:104F500000106397B70037570010A30AF79E8280AE
:104F60003308F50003480800B386E700D18E23809C
:104F700006018507F9BFEF529066B7470010094751
:104F80002387E726A38707260347A500B756001007
:104F9000238BE6A00357A5002183A38BE6A003473C
:104FA000A5002386E7260357A5002183A386E726CD
:104FB000FD4763E6C704156781471307679D3708F8
:104FC0000010639AC70437540010A30AF49C4441AC
:104FD0008547638EF406638C04048947639BF4025F
:104FE000B7B5000137C50001A30C04A09385C576B1
:104FF00013050585EFC04FF6230C94A0B9A0B7B5F3
:10500000000137B500019385C5761305057EEFC015
:10501000AFF46F50105FB388F50083C80800B38603
:10502000E700B3E6060123801601850759BFB7B52F
:10503000000137C50001A30C04A09385C5761305B4
:105040000580EFC06FF1230C04A035452DA08347E8
:105050000495B7B5000137C50001860793F7F70F30
:1050600013058582A30CF4A09385C576EFC0CFEE1F
:105070003D45230C94A0EFD06FEE61BFEF52305648
:1050800041111377F50F21812315B1002316C100BB
:105090002317D100A304A100B7570010238CE79475
:1050A000034791004945A38CE7940347A100238D52
:1050B000E7940347B100A38DE7940347C100238E13
:1050C000E7940347D100A38EE7940347E100238FC1
:1050D000E7940347F100A38FE794EFD0CFEE4101AF
:1050E0006F503052EF52B04F1305100CEFD00FE756
:1050F0006F503051EF52B04E1305000CEFD00FE659
:105100006F503050B707011003C5871A8280B70768
:1051100001102384A71A8280B707011003C5871ADC
:105120007115133515008280EF52704BB757001080
:10513000A381A7E44545EFD00FE96F50904CEF52A3
:10514000104A1305100BEFD06FE16F50904B93078F
:10515000F5FF93F7F70F2D476373F7000D45B7572A
:105160000010238CA7E88280B7470010A387A732DE
:105170008280B74700102387A726A387072682804F
:10518000EF52F0451377F50FB75700102185238FA5
:10519000E7E61375F50FA38FA7E6EFF05FFA6F5000
:1051A0005046B757001003C797E21377F70F63060F
:1051B0000706EF52D042A38407E23704011083C6EA
:1051C00087E28347441B370501101307C51A13965E
:1051D00017008507329793F7F70F2310D700230A9C
:1051E000F41A0D476374F70291451305C51AEFC011
:1051F000DFD01375F50F230A041A9307F00463F93F
:10520000A700B74700101547A387E7326F50703FDC
:10521000B7470010A3870732D5BF8280EF52303CDA
:10522000B707011083A7070413075003A381E70002
:1052300011476365A70A37C700011307C7870A0527
:105240003A9518410287B756001003C7969815661D
:105250001306B6981377F70F2389E70203C7A698BA
:1052600037080010A1451377F70FA389E70201471C
:10527000B306C700B3E6060183C606003385E70020
:10528000050793F6F60F230AD502E313B7FEB9A07C
:1052900037570010834647E493F6F60F2386D7006E
:1052A000834657E493F6F60FA386D700834667E458
:1052B00093F6F60F2387D700834677E493F6F60F2D
:1052C000A387D700834687E493F6F60F2388D70099
:1052D000034797E41377F70FA388E70079226F500D
:1052E0005032370700108346774D93F6F60FA382AE
:1052F000D7008346874D93F6F60F2383D700834666
:10530000974D93F6F60FA383D7008346A74D93F6E8
:10531000F60F2384D7008346B74D93F6F60FA38488
:10532000D7000347C74D1377F70F2385E70037579B
:105330000010034707951377F70F2382E70079BF23
:10534000156601471306C68F37080010C145B3061E
:10535000C700B3E6060183C606003385E7000507EC
:1053600093F6F60F2309D500E313B7FE85BF156644
:1053700001471306369937080010C145B306C70028
:10538000B3E6060183C606003385E700050793F6FA
:10539000F60F2301D502E313B7FE89B7B707011053
:1053A00083A6070409469305D00383C7060003C7F5
:1053B000160022075D8F81473385C600034505002F
:1053C0000506AA97C207C183E318B6FE0545630E1A
:1053D000F7008147FD551307D0033386F6002300FD
:1053E000B6008507E39BE7FE01458280B707011001
:1053F00083A60704094781471306D003B385E60057
:1054000083C505000507AE97C207C183E318C7FE31
:105410002390F6008280EF52901C737004303704A2
:1054200001108357C42D8507231EF42CEFF00FF0D5
:10543000B707011003A6070437D507009305D0036B
:1054400013050510EFF02FF2EFF04FF18357C42D45
:10545000FD17C207C183231EF42C639407007360F9
:105460000430EFF0BFF36F50D019EF525017EFF048
:10547000FFF773700430370401108357C42DB7D47D
:1054800007008507231EF42CEFF04FEA1385041064
:10549000EFF06FF8B707011003A607049305D003D8
:1054A00013850410EFF06FF1EFF04FEB8357C42D2D
:1054B000FD17C207C183231EF42C63940700736099
:1054C00004306F501014EF52901125246306050A22
:1054D00037050110956581479385C58FB708001082
:1054E00041482A8703260504B386B700B3E61601B0
:1054F0003E960346260185071376F60F2380C600E5
:10550000E39207FF814737050010994503260704FA
:105510009386774DC98E3E960346560085071376CF
:10552000F60F2380C600E393B7FE95658147938508
:10553000359937080010414503260704B386B700A4
:10554000B3E606013E960346260285071376F60F5C
:105550002380C600E392A7FE832707043757001075
:1055600083C7470093F7F70F2308F794854723066F
:10557000F7901D2C6F50F008B70701102384071A0D
:10558000D5BF83C705001307000E6362F716EF52FD
:105590001005130740046385E70E636BF7041307D8
:1055A0009002638DE70E6362F7025147638EE70A4C
:1055B0005547638EE70AB707011003C7871AB75725
:1055C0000010A385E7E46F50D00313070004638C39
:1055D000E70A130710046389E71013070003E39C2D
:1055E000E7FCB707001003C59751EF40F031E1B772
:1055F000130750096382E70C6363F7021307A006E1
:105600006388E708130740096384E70C1307500613
:10561000E393E7FAEFF06FFCEF40504D69BF1307DB
:10562000B009638AE7061307200A6386E7001307B9
:105630009009E392E7F8B7B5000137C500019385FB
:10564000C5761305C58EEFC02F91B707011083A74C
:105650000704130760031145238EE702EFF01FBC18
:10566000A122EF40D02B81BFEF405044A9B7B757DC
:10567000001003C537E41375F507EF40303525BF3B
:10568000EF40606A0DBFB7D7011083C7379C25B7BD
:10569000EFF0EFF30DB7EF40102331BFB7B50001C6
:1056A00037C50001130505899385C576EFC0CF8AFC
:1056B0000545EFF0BFB601B7B7B5000137C500012A
:1056C0001305C58A9385C576EFC00F890945D5B7FF
:1056D000B7B5000137C500011305C58C9385C576A4
:1056E000EFC08F870D45F1B7EF40101AE9B5828002
:1056F0008280B707011083A7070403C5C7031305FA
:10570000A5FC133515008280EF52606DB7070110BC
:1057100083A70704130750032381E700EFF0FFD4AA
:10572000B7570010238107986F50A06DEF52206B80
:10573000B707011083A70704238E0702A381070080
:10574000EFF0BFD26F50E06B95671387C78F3706B6
:1057500000109387C790B366C70023800600050733
:10576000E31BF7FEB7570010238607908280EF52A5
:10577000006737C5000113050591EFB0FFFD370540
:1057800001101306D003814513054530EF50E07931
:10579000EFF0DFF9EFF05FF7EFF01FFBB707011055
:1057A0002384071A6F50E065B747001083C7073F8F
:1057B0000D47FD1793F7F70F637CF700EF52206258
:1057C00037C5000113058592EFB01FF96F50606374
:1057D0003757001083460795B707011093F6F60F69
:1057E000639E06029306500395652308D7CE9385E2
:1057F00015CF014737080010194503A60704B30663
:10580000B700B3E606013A9603465600050713763D
:10581000F60F2380C600E312A7FE828083A607044A
:105820009305000C03C6A6001376060C631EB60291
:105830009306500395652308D7CE938515CF01476E
:1058400037080010194503A60704B306B700B3E6EE
:1058500006013A960346560005071376F60F238095
:10586000C600E312A7FE828003C6A60093050004CB
:105870001376060C6315B606930660039565230838
:10588000D7CE938515CF014737080010194503A6D9
:105890000704B306B700B3E606013A96034656007E
:1058A00005071376F60F2380C600E312A7FE956561
:1058B0000147938575CF37080010414503A60704BB
:1058C000B306B700B3E606013A960346260205077B
:1058D0001376F60F2380C600E312A7FE828083C6EC
:1058E000A60093F6060C6397060893067003956569
:1058F0002308D7CE938515CF0147370800101945E7
:1059000003A60704B306B700B3E606013A960346BA
:10591000560005071376F60F2380C600E312A7FE94
:1059200003A70704B756001095650347270393851F
:1059300095CF370800101377F70FA38BE6CE03A798
:1059400007042145034737031377F70F238CE6CE6F
:10595000014703A60704B306B700B3E606013A966B
:105960000346460305071376F60F2380C600E312AD
:10597000A7FE82808280EF528046B747001083C422
:10598000073F0D4793F4F40F9387F4FF93F7F70F56
:10599000637AF70037C5000113058592EFB0DFDBAE
:1059A0006F5020460144228505041374F40F212012
:1059B000E39B84FEF5B7E1473305F50215679307CE
:1059C00007CF130787D0B70600101375F50FAA97F6
:1059D0003A9533E7D700230007008507E39BA7FE2E
:1059E0008280B707011083A7C71B05676386E7009E
:1059F00037070400639BE702EF52603ECD07411179
:105A000013D707012306E100014513D78700A3063A
:105A1000E1002307F100EFF00FA070008D45014574
:105A2000EFF0AFA9EFC04F9001A009458280EF527F
:105A30006039370601101306C61B8D450145EFF08E
:105A40008F92370401109307841BD843C166938655
:105A500006F0F98E93570701B6974207B706FF0085
:105A6000758FB517BA9705671304841B639CE7020B
:105A7000B70704005CC0032984008144B709011002
:105A80001359C90013850900EFE04F825C4013955C
:105A9000C40085043E95EFF00F98E37599FE054527
:105AA0006F508035B70604000145E39BD7FE58C010
:105AB000D9B7B70701109387871B23A0070023A23C
:105AC000070023A4070023A6070023A8070082805D
:105AD000EF52402F7971AE842A841306000281456B
:105AE000080802C42316010023070100EF50E04319
:105AF00003C704009307A00B6313F72E83C714009A
:105B00001307100C6386E7106365F7021307000C98
:105B1000638EE704B70701109387871B23A0070054
:105B200023A2070023A4070023A6070023A8070039
:105B3000F1A8370401101307200C1304841B638F92
:105B4000E7141307F00FE397E7FC37C500011305CF
:105B5000C596EFB07FC02320040023220400232435
:105B6000040023260400232804004DA01547854780
:105B70006313E422370901108347891B0144130989
:105B8000891B63830702F1779387B70A4165231462
:105B9000F1001146930740062C001305E5FD23058F
:105BA000F1001144EF00D02785472300F90083C797
:105BB000340003C72400A207BA9703C74400420772
:105BC000BA972324F900EFF09FE689476305051C87
:105BD0001C18A2971307B0FA238CE7FC1C18A29795
:105BE000130700FCA38CE7FC1C18A29713074006C0
:105BF000238DE7FC1C18A297A38D07FC1306440015
:105C000041652C001305E5FDEF009021814761A25D
:105C1000370401101307841B834607001304841BF9
:105C20008547638A06168357270003C7340083C558
:105C30002400220763890700938617003306B70004
:105C40008D47639AC6142E9783C5540083C74400BA
:105C50002311E400A205BE959147638E05121C48EE
:105C60004840138664003E95EFF02F8583C75400AB
:105C700003C744001146A207BA971848BA971CC830
:105C8000F1779387B71A2314F10083C72400230503
:105C9000F10083C73400A305F1009DB7F177938726
:105CA000B72A2314F10083C724000C4837C500012C
:105CB0002305F10083C73400130545940149A3056A
:105CC000F100FD49EFB05FA90C48637AB904484080
:105CD000B385254110084A9563F6B9029305000281
:105CE000EFE07FE8584481479306000210083E9693
:105CF0000346060085073297E39AD7FE58C4130976
:105D00000902D9B7EFE03FE61C4858448146338981
:105D10002741814763E527096383060058C44C4443
:105D200037C5000113058595EFB01FA383C7540045
:105D300003C74400A207BA9703C764004207BA9793
:105D400058446318F70683C7840003C77400A2078A
:105D5000BA9703C794004207BA971848631BF70421
:105D600041659307500515462C001305E5FD2306F4
:105D7000F100EF00F00A5945EFF00FBB37050110B5
:105D800013050500EFD09FD21305C02BEFE02FB90C
:105D9000EFF03FC5AA873E8545616F50E0051418B6
:105DA000BE9683C606FE850793F7F70F369785469E
:105DB00095B74165FD5715462C001305E5FD2306F3
:105DC000F100EF00F0059547232004002322040092
:105DD0002324040023260400232804006DBF8547E4
:105DE0005DBFEF42D07F41118547A304A100231579
:105DF000B100280095452304F1002306C100EF00FF
:105E0000300041016F40F07FEF42707D41112EC69E
:105E100032C4EF40206B630605002246B245EF40D6
:105E2000401141016F40F07DEF42707BB7070110D8
:105E300003C527344111EF40E06863070502E547D9
:105E4000AA84854568002306F10037040110EF009D
:105E5000207B03461434B73501109385051626853B
:105E6000EF40200DA300043441016F409079EF42D0
:105E700070751171AE842A841306001081450A855D
:105E8000EF50A00A83C7340003C72400370901106C
:105E9000A207BA9703451934C207C1836315F500F9
:105EA0008D4763E3870001A0B7370110938707167A
:105EB0001306C4FF938544003E9583C90400EF4058
:105EC000307BDD472286A685130511002300F100F3
:105ED000EF40107A9305140093F5F50F0A85EF0053
:105EE0002072B70701102381373583471934F11722
:105EF0003E941374F40FA30089349307F00F6313D7
:105F0000F40001A011616F40306FEF42506DAA8420
:105F100003C5150083C70500411122053E954205C2
:105F200041812E84EF40005A630205022A89CD4741
:105F3000854568002306F100E1251386E4FF13760A
:105F4000F60F930524004A85EF30B07E41016F4083
:105F5000506BEF42D06503C4150083C7050083C4AE
:105F6000350022043E9483C7250029711306C5FF1E
:105F70001376F60F9105A20413055101BE94230A6E
:105F8000C100EF40F06EB757001003C717E483C994
:105F900027E41306001081454204C204A2098800C8
:105FA0004180C180B3E9E900EF4030785008A68510
:105FB0002285EF400054631A05002946A285414519
:105FC000EFF03FE231616F4050628357850009472F
:105FD000AA8D638BE70E938A07FF93BA1A00814B51
:105FE00045479107416B2300E104A300F1040944F4
:105FF000711BC14C6375340D03DD8D0003DA0D0098
:1060000083A5CD00137CFD0F6A861305D1022314EE
:1060100041032306810313094400EF407065B30771
:10602000890163CEF90813051A0042055008A685B8
:106030004181EF40004CAA8DDA8763040500835745
:1060400005FF98022297230047F113071400420727
:10605000940241833697135A8A00230047F11307AD
:106060002400420741830D0436974209420423006D
:10607000F7F02315F10213D78700135909013EC623
:1060800041809C0036943385270162869305D102B6
:106090002300E4F0EF40D05D1374FD0F03D78D00B3
:1060A00022991314090189464180B2476301D7023E
:1060B00063139701854A63846701E39D5BF39375DE
:1060C000F40F8800352BFDBD814A854B11BF854BF0
:1060D000DDB7EF42D05003441500834505008347E8
:1060E000250022042E948345350042044180A205F8
:1060F000BE95C2054111C18122852EC6EF40803C6C
:106100006302050283578500B24563E7B700EF30AD
:10611000F05241016F40F04E2D46A2853145EFF01F
:106120005FCCC5BF2946D5BFEF42704B83451500F4
:10613000834705004111A205BE95C205C1812E8588
:106140002EC6EF402038B24563070500EF301057E8
:1061500041016F40104B29462945EFF09FC8CDBF44
:10616000EF42504683C4150083C7050003CA3500BB
:10617000A204BE9483C725002D711306C5FF1376B4
:10618000F60F9105220A1305D1003E9A2306C1009D
:10619000EF40104EB757001003C917E41306001064
:1061A0008145C204420A0810C180135A0A0193793A
:1061B000F90F03C927E4EF4050577000D2852685B8
:1061C000EF402033631A05002946A6852145EFF0EC
:1061D0005FC115616F405042B7D500012A8409465E
:1061E000938545141305D100EF403046631E050C1E
:1061F000A5472300F102834724011379F90F2209EF
:10620000950733693901A300F102894463F9240B2E
:106210008347240193895400CE976342F90A0357B8
:1062200004001C12A6972380E7F093871400C2078E
:106230001812C183BA97035704001412C2092183AC
:106240002380E7F05C4493D9090103C707009387D3
:106250002400C207C183B6972380E7F003470400F8
:1062600093873400C207C183B69705072380E7F000
:10627000835704009104C204C1808507B694A187A6
:106280002380F4F0034624014C481C103385370169
:10629000EF40103E035504008344240170000905BB
:1062A0004205CE94D2854181C204EF408024C18052
:1062B0002A846306050083570500E39947F593F5A3
:1062C000F40F0810352E31B7B7D500010946938574
:1062D00005141305D100EF405037035684002547BD
:1062E0004C442300E1029377F60F631D05089907DC
:1062F000A300F1028357040028102301F102835701
:106300000400A183A301F102EF40903689472306E0
:10631000F100B7D700019387C71383C6070003575F
:10632000840083C71700A306D1005444416493043A
:10633000870070001377F70F9305C4FF0545230707
:10634000F100EF4020228357050070009305C4FF41
:106350002302F10283570500C204C180A183A30276
:10636000F10203550500050542054181EF40601823
:10637000835705FF2303F102835705FFA183A3037E
:10638000F10235BF8907A300F102835704004810CA
:106390002301F10283570400A183A301F102EF401E
:1063A000302D835484009104C204C18009BFEF42A0
:1063B000102383C4150083C7050003C43500A2045D
:1063C000BE9483C72500220401113E948947230609
:1063D000F10083C74500C2044204A306F10083C74D
:1063E00055001307A5FFC180418093866500137790
:1063F000F70F7000A28526852307F10002C223044F
:106400000100EF402016631A05002946A6851145B4
:10641000EFF03F9D05616F40D01E9D472302F100C4
:10642000035505007000A28593578500A302A100C3
:106430000505420541812303F100EF40800B631CF9
:106440000500F157A303F100FD57954548002304CB
:10645000F1007D22C1B7835705FFA303F100A1839B
