:020000040100F9
:1000000017E1010F13010180170500001305851783
:100010001365150073105530996273A00230731088
:100020003000B74200109382224D054383820200C4
:100030006387620417D50100130585F39705010F47
:10004000938545FC1706010F1306064B63FAC5009E
:100050008322050023A0550011059105E3EAC5FEA2
:100060001705010F130545499755010F93854573F2
:100070006377B500232005001105E36DB5FEB712C7
:1000800000009382028073A04230A14273A002302C
:10009000EF10C00001A07370043073002030736053
:1000A00004307300203001005D7106C012C216C416
:1000B0001AC61EC82ACA2ECC32CE36D03AD23ED468
:1000C00042D646D872DA76DC7ADEFEC0F3221034ED
:1000D0007323203496C29AC497020000938282133D
:1000E00037030200130343C00323030093132300C9
:1000F0009E9283A302009AC68293737004303643A3
:10010000B7020200938242C023A06200B72200001F
:100110009382028873A002309642264373102334E0
:100120007390123482401242A2423243C24352457B
:10013000E245724682561257A2573258C258525E52
:10014000E25E725F864F6161730020300000000044
:10015000000000000000000000000000000000009F
:10016000000000000000000000000000000000008F
:10017000000000000000000000000000000000007F
:10018000711116C0F322203463C40204110113015B
:1001900041FA06C00AC20EC412C616C81ACA1ECC3C
:1001A00022CE26D02AD22ED432D636D83ADA3EDC27
:1001B00042DEC6C0F2C2F6C4FAC6FEC873251034C9
:1001C000AACA73250030AACC0A85EF00400101A01D
:1001D000824211016FF05FED7D157DFD82806F0021
:1001E00000001300000013000000130000001300C3
:1001F00000001300000013000000130000000100C5
:100200006F00000013000000130000001300000046
:1002100000000000000000000000000000000000DE
:1002200000000000000000000000000000000000CE
:1002300000000000000000000000000000000000BE
:1002400000000000000000000000000000000000AE
:100250000002000100020001000200010002000192
:100260000002000100020001000200010002000182
:100270000002000100020001000200010002000172
:100280000002000100020001000200010002000162
:100290000002000100020001000200010002000152
:1002A0000002000100020001000200010002000142
:1002B0000002000100020001000200010002000132
:1002C000000200010000000000000000000000002B
:1002D000AE3A00010002000100020001000000002F
:1002E000A30200000200410000000101FB0E0D000E
:1002F00001010101000000010000012E2F2E2E2F10
:100300002E2E2F2E2E2F506C6174666F726D2F73F0
:100310007461727475700000737461727475705FCB
:10032000727633322E7300010000000005020000D7
:100330000001031601030309080001030109080075
:100340000103010904000103030904000103010979
:100350000200010301090400010303090400010371
:100360000109080001030109020001030109040059
:100370000103030904000103010908000103010945
:100380000800010301090800010302090400010338
:10039000010904000103010904000103010902002D
:1003A000010301090200010303090400010301091B
:1003B0000800010301090800010302090400010308
:1003C0000109040001030109020001030B090400F3
:1003D00001030109080001030209040001030109E6
:1003E00002000103020904000103040904000103DF
:1003F00011090200010301090400010304090400BA
:100400000103010904000103D300090600010302EE
:10041000092400010303090C00010302090800017B
:100420000301090800010301090400010301090493
:100430000001030109020001030109040001030591
:10044000090200010302090200010303090400017B
:100450000301090200010301090800010304090462
:10046000000103010908000103020904000103025D
:10047000090C000103020924000109040000010124
:100480000005028001000103E901010301090200E6
:10049000010301090200010301090400010301092C
:1004A0000400010303090200010301090400010320
:1004B0000109020001030109020001030109020010
:1004C00001030109020001030109020001030109FE
:1004D00002000103010902000103010902000103F6
:1004E00001090200010301090200010301090200E0
:1004F00001030109020001030109020001030109CE
:1005000002000103010902000103010902000103C5
:1005100001090200010301090200010301090200AF
:10052000010301090200010302090200010301099C
:100530000400010301090200010301090400010391
:100540000109020001030309020001030309040079
:10055000010303090200010301090200010302096A
:10056000020001030709040001030109020001035D
:100570000109020001030609020001030809220023
:100580000109DC000001011E0000000200A90500B5
:10059000010401E002000158060001E80500011312
:1005A00006000143060001018001110010065506F6
:1005B000030E1B0E250E13050000000000000000B6
:1005C0002400000002008705000104000000000074
:1005D000000000014C010000800100015C010000EE
:1005E00000000000000000002E2F2E2E2F2E2E2F98
:1005F0002E2E2F506C6174666F726D2F7374617242
:100600007475702F737461727475705F72763332A3
:100610002E7300443A5C59435C4D595F53444B5C24
:1006200050524A5F4F55545055545C484430303610
:100630003039A1AACEACB4EFD1C7C2EDD1B75C4777
:10064000434300474E5520415320322E33312E3143
:100650000000000000000000FFFFFFFF000000009E
:10066000000000014C01000180010001DC020001DA
:08067000000000000000000082
:10100000EF42913237150110896513050500C123A0
:10101000EF30A007EF20D05F631A050237050110FB
:101020001305C500EF10201E0D45EF301037154594
:10103000EF305038EF30500785669386868413066C
:10104000B00FB6851305B00FEF30900E6F40113022
:10105000EF42912DEF20B05E37050110130505001A
:10106000EF2080386F40912EEF42112C3705011090
:1010700013050500EF2040370545EF20306BB7071B
:101080000110239F0764EF20B058631705009305F4
:10109000E0030545EF3080736F40512BEF42D128BC
:1010A000E137B93FEF40016BEF402169EF10000CD1
:1010B0004537DDBF01112EC232C436C63AC83ECA1A
:1010C00042CC46CE05618280634505021377F50F59
:1010D000B7070200938707A00D833E97834607005A
:1010E0001D898547B397A700D58F93F7F70F230086
:1010F000F7008280634505021377F50FB7070200FA
:10110000938707A00D833E97834607001D89854777
:10111000B397A70093C7F7FFF58F2300F7008280EE
:10112000634905029387F5FF39476364F7029377B4
:10113000F50F7D67130707408583BA9703C707003C
:1011400005890A05B395A500D98D93F5F50F238080
:10115000B7008280EF42511D411185472EC62A8477
:101160006319F6009537B24522855D3F41016F4016
:10117000F11D4937CDBF81473708001063C3C70051
:101180008280B386F500B3E6060183C60600330706
:10119000F5003367070193F6F60F2300D7008507A4
:1011A000F1BF01A08147B706001063C4C700054521
:1011B00082803307F500558F034807003387F50019
:1011C000558F034707001377F70F6314070185074F
:1011D000E9BF014582809317F5003787001063D27D
:1011E00007048346B7018347C7011377F50FA207AA
:1011F000D58FC207C187638105021345F7FF7D8D37
:10120000420541811377F50FB7870010A38DE700E2
:101210002181238EA7008280139507014181598D7A
:10122000D5B7834607058347170542054181A207C5
:10123000D58F33E7A700638605001345F5FF33F725
:10124000A700B78700109376F70F13558700238800
:10125000D704A388A7048280B75700100547238DC1
:10126000E7BE13075003238EE7BE9306500337579C
:1012700000108347B7BF93F7F70F638607008347D4
:10128000C7BFE388F6FE8280B7570010238D07BEE4
:101290008280EF42710941112AC62EC432C2737096
:1012A0000430370401108357E4658507231FF46475
:1012B00065373245B78700101377F50F2386E704AB
:1012C000135785401377F70FA386E704135705419B
:1012D0001377F70F2387E7046181A387A704A2454B
:1012E000B70700101246DD8D83C705001305803E49
:1012F0005D8E2380C500812A413F8357E465FD1739
:10130000C207C183231FF464639407007360043031
:1013100041016F40B103EF4231012E86A165E50521
:101320008D3F6F40B102EF4231009145ED376F4084
:10133000F101B78700101375F50F2383A71813F772
:10134000F50FA381E71813D785401377F70FC185F1
:101350002382E71893F5F50FA382B71803C7771810
:101360001377F707A383E71803C7771813670708EE
:10137000A383E7188280B787001003C77718860514
:1013800021051377F707A383E71803C77718AA95F2
:101390000A06B29592053D8BBA9593F5F50FA38396
:1013A000B7188280B78700101375F50F2381A7182F
:1013B00013F7F50FA380E70C13D785401377F70FCA
:1013C000C1852381E70C93F5F50FA381B70C03C703
:1013D00077181377770FA383E71803C77718136776
:1013E0008700A383E7188280378700108347771828
:1013F00086050A0693F7770FA303F7188347771834
:1014000093F7070FA1073E952E9532951375F50FAB
:10141000A303A7188280EF422171B705800013054E
:10142000E003013F014681450545B137B7F50600A8
:101430009385A57413054004B537014681450545DC
:1014400065376F40A170EF42216E2A84EF20E05A89
:10145000B7871E00938707483355F5023305850289
:10146000EFE09FD76F40816EB78700100D4723884C
:10147000E7008280B7070110938747509843636F56
:10148000A702D043B386C7006316D50054413E85FA
:10149000B296D4C35041B306C500631CD700B7064B
:1014A000011083A6C6506306D70054431843B29672
:1014B00054C118C16303F50088C38280BA877DBF19
:1014C000EF42E164370701108324474F2D059377DE
:1014D000C5FF63E5F408BA893707011003244750B4
:1014E00013074750544063F5F60010406315060695
:1014F000370601100326C6500149630B86041040CD
:101500000329070010C33387F640C146210963F75A
:10151000E6003305F40058C15CC0A93F5840B70647
:10152000011003A6864FB387E44023AAF94E63F463
:10153000C70023ACF64EB70700805D8F58C0370751
:1015400001108327C74F232004008507232EF74E61
:101550004A856F40015F2287328469B77370043017
:10156000370701108357E7653766010137650101C9
:101570008507130686F09305D00B130585EE231F10
:10158000F76401493939E9B7630205048327C5FFC8
:1015900063DE07028607032785FF8583232EF5FE7A
:1015A00063160702EF424158B706011003A7464FE2
:1015B0006115BA9723AAF64E753D370701108327A8
:1015C000075085072320F7506F4041588280B707A6
:1015D000011093874750E11523A20700AA9588C3FD
:1015E000B70701103707011023A6B750B387A540EE
:1015F00023A2050023A00500232CF74E3707011076
:101600005CC10CC1232AF74E8280EF42415037095A
:101610000110B70401100144B70A01101309095160
:101620008549370A01109384845683C74A596364F5
:10163000F4006F40015193173400CA9703D7070095
:101640006314370303D767006314070283D62700A8
:1016500003D747006399E6022390070093172400FD
:10166000A6978843EF40B06005041374F40F75BF6C
:10167000E31C37FF83D6270003D747006395E600B6
:1016800023910700E1BF7370043003D7270083560E
:10169000EA6505072391E700E39806FC73600430D0
:1016A000E1B7B707011083C74759637CF5023707D5
:1016B00001101307875693172500BA97984393078D
:1016C000400F630E0700B7070110938707510E05FF
:1016D0003E9585472310F5002311050081473E857F
:1016E00082809307200FE5BFB707011083C74759D2
:1016F0002A876378F502B7060110931725009386B1
:101700008656B6979C431305400F638E0700B707B4
:1017100001100E0793870751BA97239007000145E0
:1017200082801305200F8280B707011083C74759B5
:101730006373F50625479307200F637CB7043707CB
:1017400001101307875693172500BA9798439307FC
:10175000400F6300070473700430B707011003D70C
:10176000E765B7070110938707510E053E9585473A
:101770002310F500A947B3D5F50223110500231363
:10178000C5008147FD152312B5006314070073607F
:1017900004303E8582809307200FE5BFB707011014
:1017A00083C5475929473E866367B7041307100F5F
:1017B000630A05023707011013088756814793060D
:1017C00087568328080013F7F70F638DA800639DE1
:1017D00008008A07B69788C36396E5009307170049
:1017E000230AF6583A858280850713F7F70F110808
:1017F000E3F9E5FCC5BF1307200FEDB7EF42C13297
:101800000146B94513050003B1326F402134EF4260
:10181000A1319307803EB385F50237160001130608
:10182000A660EF20C00C6F406132EF42E12F6545AA
:10183000EF0090066F408131894763FAB704035780
:101840000500014881473A8693161800AA9683D668
:101850000600B697B68863F3E600BA8813970801C6
:101860004183B6886373D600B288050893160801D1
:1018700013960801C1824182E3E8B6FC998F918FEB
:101880001385E5FF33C5A7024205418182800145EA
:101890008280374600108346C64A8347D64A0347AC
:1018A000E64A37080010A2074207D98FD58FB3E761
:1018B000070183C807008347C64A8346D64A0347C1
:1018C000E64AA2064207D98EDD8E8506B3E60601FA
:1018D00083C706000343C64A0347D64A8346E64AFF
:1018E000A2072207C206558F3367670009073367CF
:1018F0000701034707000146B74600104207D98F8A
:10190000B3E71701B7080010131706014183636F8F
:10191000B70873700430B705011003D7E565374683
:1019200000100507239FE5640345C64A8346D64A4F
:101930000347E64AA2064207D98EC98E3705001032
:1019400013F7F70FC98E2380E6000348C64A834683
:10195000D64A0347E64AA2064207D98EB3E60601F5
:1019600013D787408506C98E1377F70F2380E600CB
:101970000348C64A0347D64A8346E64AC187220738
:10198000C206558F33670701090793F7F70F498F91
:101990002300F70083D7E565FD17C207C183239FA6
:1019A000F5646394070073600430828033E71701A5
:1019B000034807003307C50085072300070103C359
:1019C000264B03C7364B03C8464B220742083367F2
:1019D00007013367670063EDE70003C8F64A83C772
:1019E000064B03C7164BA2074207D98FB3E707017F
:1019F000050619BF374600108346364A8347464AD4
:101A00000347564A37080010A2074207D98FD58FDF
:101A1000B3E7070183C807008347364A8346464A2F
:101A20000347564AA2064207D98EDD8E8506B3E6E5
:101A3000060183C706000343364A0347464A8346E6
:101A4000564AA2072207C206558F33676700090767
:101A500033670701034707000146B74600104207F6
:101A6000D98FB3E71701B708001013170601418398
:101A7000636FB70873700430B705011003D7E565CD
:101A8000374600100507239FE5640345364A834621
:101A9000464A0347564AA2064207D98EC98E3705E1
:101AA000001013F7F70FC98E2380E6000348364A6B
:101AB0008346464A0347564AA2064207D98EB3E6F2
:101AC000060113D787408506C98E1377F70F238049
:101AD000E6000348364A0347464A8346564AC187CA
:101AE0002207C206558F33670701090793F7F70FDF
:101AF000498F2300F70083D7E565FD17C207C1832F
:101B0000239FF56463940700736004308280330878
:101B1000C5000348080033E71701850723000701C4
:101B200003C3064A03C7164A03C8264A22074208C7
:101B3000336707013367670063EDE70003C8D649E1
:101B400083C7E64903C7F649A2074207D98FB3E71F
:101B50000701050619BFB747001003C6374A03C778
:101B6000474A83C6574A370800102207C206558FD6
:101B7000518F336707018345070003C6374A03C700
:101B8000474A83C6574A93F5F50F2207C206558F79
:101B9000518F0507336707010347070003C5374A1D
:101BA00083C6474A03C6574A1377F70FA206420671
:101BB000D18EC98E8906B3E6060103C6060083C826
:101BC000674A83C6774A03C5874A1376F60FA2068B
:101BD0004205C98EB3E61601B3E6060103CE060040
:101BE00003C5674A83C6774A03C3874AA2064203EE
:101BF000B3E66600C98E8506B3E6060103C5060096
:101C000083C8674A83C6774A03C3874A2205A20668
:101C10004203B3E66600B3E616018906B3E60601A1
:101C200083C8060003C3674A83C6774AC208336580
:101C30001501B368C50103C5874AA2064205C98ECE
:101C4000B3E66600B3E6060103CE060003C3674AA7
:101C500083C6774A03C5874AA2064205C98EB3E602
:101C600066008506B3E6060103C5060083CE674A13
:101C700083C6774A03C3874A939786009316030166
:101C8000D58FB3E7D7018907B3E7070183C60700FC
:101C9000931785000145C206D58FB3E7C701639B43
:101CA000F800220713150601598DC98D338515419A
:101CB000133515008280B747001003C6C74A03C713
:101CC000D74A83C6E74A370800102207C206558F55
:101CD000518F336707018345070003C6C74A03C70F
:101CE000D74A83C6E74A93F5F50F2207C206558FF8
:101CF000518F0507336707010347070003C5C74A2C
:101D000083C6D74A03C6E74A1377F70FA2064206EF
:101D1000D18EC98E8906B3E6060103C6060083C8C4
:101D2000974A83C6A74A03C5B74A1376F60FA20699
:101D30004205C98EB3E61601B3E6060103CE0600DE
:101D400003C5974A83C6A74A03C3B74AA2064203FC
:101D5000B3E66600C98E8506B3E6060103C5060034
:101D600083C8974A83C6A74A03C3B74A2205A20677
:101D70004203B3E66600B3E616018906B3E6060140
:101D800083C8060003C3974A83C6A74AC2083365BF
:101D90001501B368C50103C5B74AA2064205C98E3D
:101DA000B3E66600B3E6060103CE060003C3974A16
:101DB00083C6A74A03C5B74AA2064205C98EB3E641
:101DC00066008506B3E6060103C5060083CE974A82
:101DD00083C6A74A03C3B74A9397860093160301A5
:101DE000D58FB3E7D7018907B3E7070183C607009B
:101DF000931785000545C206D58FB3E7C701639BDE
:101E0000F800220713150601598DC98D3385154138
:101E1000133515008280B747001003C6374A03C741
:101E2000474A83C6574A2207C206558F518F370645
:101E30000010518F0348070003C7374A83C6474A3B
:101E400083C5574AA206C205CD8ED98E8506D18E8E
:101E500003C7060083C8374A83C6474A83C5574A23
:101E60002207A206C205CD8EB3E616018906D18EE1
:101E700083C60600C206558F3367070103C8674A49
:101E800083C6774A83C5874AA206C205CD8EB3E6CC
:101E90000601D18E03C8060083C8674A83C6774A05
:101EA00083C5874AA206C205CD8EB3E61601850614
:101EB000D18E83C8060003C3674A83C6774A83C5A9
:101EC000874AA208A206C205CD8EB3E6660089063F
:101ED000D18E03C3060003CE674A83C6774A83C503
:101EE000874A4203A206C205CD8EB3E6C601D18E53
:101EF00083CE060003CE674A83C5774A83C6874AE6
:101F0000B3E86800A205C206D58DB3E5C501850515
:101F1000D18D83C6050003CF674A83C5774A03CEB8
:101F2000874AA206A205420EB3E5C501B3E5E50165
:101F30008905D18D83C5050033E80801C205CD8E22
:101F4000B3E6D6016305D80603C8674A83C6774A55
:101F500083C5874AA206C205CD8EB3E60601D18E9F
:101F600083C8060083C6674A83C5774A03C8874A81
:101F7000A2054208B3E50501D58D8505D18D83C63F
:101F8000050003C3674A83C5774A03C8874AA20688
:101F90009397850093150801CD8FB3E767008907F4
:101FA0005D8E83470600C207DD8EB3E6160142054B
:101FB000814541813746001063E4A50005458280D4
:101FC0008348064A8347164A0348264A0507A2075C
:101FD0004208B3E70701B3E71701636DF700034851
:101FE000D6490347E6498347F6492207C2075D8F72
:101FF000336707016306D7008505C205C1816DBF40
:1020000001458280EF32B130B73401109307F6FFFB
:102010002380A41093F7F70F13074002636CF706B1
:10202000B747001003C75749894693890410639442
:10203000E600A38A0748131516001375E50F3284CE
:102040002E89D13B631705027370043037070110E6
:102050008357E76537660101376501018507130678
:1020600086F593056008130585F1231FF764EFF0EB
:102070004F9337350110CA85228613052510A3809A
:102080008900EF3091309305240093F5F50F138507
:1020900004108D326F30F12AEF321129411193076C
:1020A00010102316F10023070100B747001003C7E3
:1020B000574989462A846394E600A38A074819454C
:1020C000993B63170502737004303707011083577B
:1020D000E76537660101376501018507130686F656
:1020E00093057009130585F1231FF764EFF06F8BDB
:1020F00068008D4523078100EFF0DF8F41016F30CD
:10210000F124EF32712241119307D0102316F10010
:1021100023070100B747001003C7574989462A849F
:102120006394E600A38A07481945F5316317050251
:1021300073700430370701108357E7653766010174
:102140003765010185071306C6F79305700A130565
:1021500085F1231FF764EFF0CF8468008D452307D6
:102160008100EFF03F8941016F30511EEF32D11BEA
:1021700099366319050437340110894513050400A5
:10218000EFF02FF1834704002D47FD1793F7F70F6A
:10219000636CF7029304040083C5140037390110FF
:1021A00013052900EFF0EFEEB70701100347040015
:1021B00083A7875903C514000A07BA979C43930560
:1021C000290082976F30911873700430370701101F
:1021D0008357E765376601013765010185071306F7
:1021E000C6F89305A00B130585F1231FF764EFE0F4
:1021F0005FFBC9BFEF32511337650101130505F4C9
:10220000EFE05FEB01A0B707011023ACA758828075
:10221000EF32110F8329050041116389091A2A84BD
:10222000832BC500032AC501832A05024451854535
:1022300013050004EFE03FFA416585450505EFE031
:102240009FF903594400D52CB787001003C7C71165
:102250007D1913074004238EE71003C897144E9985
:1022600013DB09011378380F136888001377F80F10
:10227000A384E71413F7F90F93D98940238EE7025B
:1022800093F9F90FA38E37031377F90F1359894088
:10229000238FE7021379F90FA38F270383C607184B
:1022A00003C71718137B1B002207558F14482316EA
:1022B000E1000547639FE61003474401A38FE7163B
:1022C0008357C100C607C5832316F1008357C10099
:1022D0007177F98F184C2316F10085476310F710BA
:1022E0008357C1001167D98F2316F1008347C100BE
:1022F000378600102300F6188357C100A183A3007E
:10230000F61883478614034776048345B60383484B
:10231000D6170346E6171375F70F93F5F50F220648
:10232000336616012314C100054693F7F70F2A8779
:10233000AE86639BCB0A93F7F70B93E707FA10443B
:10234000BD9B93E847005943C68763056616636DD6
:10235000C30C2D43630C66126363C30A21436304F9
:10236000661037860010A303E6042304F614A30DB9
:10237000D60283478100137838FF13680808A30E3C
:10238000F616835781001A0B93F6F6FBA183230FF1
:10239000F6168347A603B3E6660193E70708230D05
:1023A000F602A30406159147631FFA14DD9AB78756
:1023B0000010A38DD70263800A165685D524639E2C
:1023C0000414EF00900203455401B12641016F301F
:1023D000A1768357C1006177D98FFDB58357C100BE
:1023E00071777D17F98F09B709466395CB0093E79D
:1023F00007FEB1B793F7F70793E7870089B7314333
:102400006303660A4143E31E66F483578100137732
:10241000F503136707F893F7F7E393E7070423142B
:10242000F10093F7C8FE85A0130300026301660A5A
:10243000636CC3006143E31666F28357810093F730
:10244000F7E393E70704ADA81303C0026302660A2B
:1024500013030003E31766F08357810093F7F7E354
:1024600093E7070461A8835781001377F503136787
:1024700007F893F7F7E393E707042314F10093F7C2
:10248000C8FF93E7170093F6F50EE1BD835781006F
:1024900093F7F7E393E707081377F5032314F100A5
:1024A00013670704E9BF8357810093F7F7E393E7C6
:1024B0000704DDB78357810093F7F7E393E7070835
:1024C0001377F5032314F1001367070499BF8357AB
:1024D00081001377F503136707F893F7F7E393E7A2
:1024E00007042314F10093E6050193F7C8FE95BD98
:1024F0008357810093F7F7E393E707082314F1006C
:102500001377F50339BF93E68600137A3A00E19A10
:10251000B3E6460169BDD92A5DB585476394F400E9
:10252000B52955B589476394F400352C69BD8D47AD
:10253000E39BF4E8EF00B00E79B5B7860010C14711
:10254000A38EF61083C7D611370501103786001009
:1025500093E707013E8793F7F70FA38EF610B7674F
:102560000101938707FA138E0710AA8883C6070014
:1025700013670702A107A30CD61083C697FF230D8C
:10258000D61083C6A7FFA30DD61083A687FF03A38B
:10259000C7FF8345C55913D886006203B6953368D3
:1025A0000301C295C182AE96230ED5589376F70FDC
:1025B000A30ED6109376F7FD368793F6F60FA30E8B
:1025C000D610E395C7FBB76701019387871913837B
:1025D000070E3786001083C6070013670702A1079E
:1025E000A30CD61083C697FF230DD61083C6A7FF72
:1025F000A30DD61083A687FF03A8C7FF83C5C859BC
:1026000013D586006208B6953365A800AA95C182E5
:10261000AE96238ED8589376F70FA30ED6109376E6
:10262000F7FD368793F6F60FA30ED610E315F3FAEF
:1026300013060008B7860010A38C0610238D061021
:10264000136707029377F70FA38D0610A38EF6107A
:102650007D169377F7FD3E87420693F7F70FA38E1B
:10266000F6104182E31A06FC1377F70CA38EE610EE
:102670008280378700108347B7031E0593F7F7075B
:10268000C98F93F7F70FA30DF7028280EF32C1498C
:10269000B7870010238D0702EF00F0156F30014B54
:1026A000EF328148378700109377F50F41112302ED
:1026B000F70C230601008347C10021813D89C19B9E
:1026C0005D8D2306A1008347C100A302F70C2120E2
:1026D00041016F30A147378700108347570C93E7BC
:1026E000070193F7F70DA302F70C828037870010DC
:1026F0008347470C93F7F70E93F6F70F93E707021C
:10270000A302D70C93F6F70FA302D70C93F7F70C9D
:10271000A302F70C8280A94663E5A604320533457F
:10272000D502378700100346071883471718411151
:10273000F176A207D18F2316F1008357C100F58FE0
:102740004A0549815D8D2316A1008347C1000545D7
:102750002300F7188357C100A183A300F718410194
:10276000828001458280B797001003C707B001112E
:102770001367E7032380E7B003C717B0118B136714
:102780001705A380E7B003C727B0130750052381BF
:10279000E7B01307A0022382E7B003C757B013774F
:1027A000E70F13676703A382E7B003C767B0137728
:1027B000070E136787002383E7B003C777B013774B
:1027C000070E13678706A383E7B003C787B01367B5
:1027D00057002384E7B003C797B013074008A384CA
:1027E000E7B02300010003470100759B2300E100CF
:1027F00003470100136747002300E100034701007E
:10280000136707022300E100034701001367070471
:102810002300E10003470100136707F82300E100EC
:1028200003470100A385E7B0034701006D9B230028
:10283000E10003470100A385E7B02302010003473D
:102840004100136717002302E100034741001367AB
:1028500027002302E10003474100136747002302DA
:10286000E100034741005D9B2302E1000347410073
:102870002386E7B02304010003478100719B13679F
:1028800017002304E100034781004D9B13674700B5
:102890002304E100034781001377F7FC1367070166
:1028A0002304E100034781001377F703136707044C
:1028B0002304E10003478100A386E7B0230601005B
:1028C0000347C100719B136717002306E10003470C
:1028D000C1001377F7FC136707022306E1000347E3
:1028E000C1001377F703136707F82306E1000347D6
:1028F000C1002387E7B01547A387E7B0230801008D
:1029000003470101019B1367F7002308E100034718
:1029100001012388E7B0230A010003474101719BAD
:1029200013671700230AE100034741014D9B13671A
:102930004700230AE10003474101A388E7B0230CC5
:10294000010003478101619B13676700230CE100CD
:10295000034781011D9B13678700230CE100034798
:1029600081017D8B13670704230CE100034781017C
:102970002389E7B0230E01000347C1011377F70352
:10298000230EE1000347C101137707FC230EE1008A
:102990000347C101A389E7B005618280EF32C11806
:1029A00001112302010083474100379400101305F1
:1029B000800C93E717002302F1008347410093E75F
:1029C00027002302F10083474100ED9B2302F10021
:1029D0008347410093E787002302F10083474100CA
:1029E0002306F4B0834704B093E7E7032300F4B071
:1029F000834714B0918B93E71705A300F4B0834786
:102A000024B0930750052301F4B09307A0022302DA
:102A1000F4B0834754B093F7E70F93E76703A3023B
:102A2000F4B0834764B093F7070E93E7870023035E
:102A3000F4B0834774B093F7070E93E78706A303B8
:102A4000F4B0834784B093E757002304F4B083477E
:102A500094B093074008A304F4B023000100834717
:102A6000010093E727002300F1008347010093E76B
:102A700047002300F1008347010093E7070223008A
:102A8000F1008347010093E707042300F100834727
:102A9000010093E707F82300F10083470100A30535
:102AA000F4B0EFE05F9A83470100ED9B2300F10053
:102AB00083470100A305F4B023040100834781008C
:102AC000F19B93E717002304F10083478100CD9B1E
:102AD00093E747002304F1008347810093F7F7FC55
:102AE00093E707012304F1008347810093F7F7037D
:102AF00093E707042304F10083478100A306F4B0A1
:102B0000230601008347C100F19B93E717002306CA
:102B1000F1008347C10093F7F7FC93E70702230610
:102B2000F1008347C10093F7F70393E707F8230603
:102B3000F1008347C1002307F4B09547A307F4B021
:102B40002308010083470101819B93E7F7002308D5
:102B5000F100834701012308F4B0230A01008347F1
:102B60004101F19B93E71700230AF10083474101DC
:102B7000CD9B93E74700230AF10083474101A30857
:102B8000F4B0230C010083478101E19B93E76700C8
:102B9000230CF100834781019D9B93E78700230C61
:102BA000F10083478101FD8B93E70704230CF100BB
:102BB000834781012309F4B0230E01008347C1013B
:102BC00093F7F70393E70704230EF1008347C1014E
:102BD00093F707FC93E76700230EF1008347C101D9
:102BE000A309F4B005616F207176B797001003C791
:102BF00007B001111367E7032380E7B003C717B0DD
:102C0000118B13671705A380E7B003C727B013071D
:102C100050052381E7B01307A0022382E7B003C762
:102C200057B01377E70F13676703A382E7B003C7B3
:102C300067B01377070E136787002383E7B003C7D6
:102C400077B01377070E13678706A383E7B003C730
:102C500087B0136757002384E7B003C797B0130703
:102C60004008A384E7B02300010003470100759BDF
:102C70002300E10003470100136747002300E10040
:102C800003470100136707022300E1000347010027
:102C9000136707042300E10003470100136707F8E7
:102CA0002300E10003470100A385E7B003470100CB
:102CB0006D9B2300E10003470100A385E7B02302D9
:102CC000010003474100136717002302E100034797
:102CD0004100136727002302E100034741006D9B79
:102CE0002302E100034741005D9B2302E10003470B
:102CF00041002386E7B02304010003478100719B54
:102D0000136717002304E100034781004D9B1367FD
:102D100047002304E100034781001377F7FC1367A2
:102D200007012304E100034781001377F7031367CA
:102D300007042304E10003478100A386E7B02306CC
:102D400001000347C100719B136717002306E100D0
:102D50000347C1001377F7FC136707022306E1005E
:102D60000347C1001377F703136707F82306E10051
:102D70000347C1002387E7B01547A387E7B02308BF
:102D8000010003470101019B136747012308E1008C
:102D9000034701012388E7B0230A010003474101EB
:102DA000719B13671700230AE100034741014D9B04
:102DB00013674700230AE10003474101A388E7B0F6
:102DC000230C010003478101619B13676700230CFB
:102DD000E100034781011D9B13678700230CE1007D
:102DE000034781017D8B13670704230CE100034730
:102DF00081012389E7B0230E01000347C101137746
:102E0000F703230EE1000347C101137707FC230EEC
:102E1000E1000347C101A389E7B005618280B7974C
:102E2000001003C707B001111367C7032380E7B081
:102E300003C717B0118B13671705A380E7B003C74B
:102E400027B0118B136717052381E7B003C757B06D
:102E50001377E70F13676702A382E7B003C767B072
:102E60001377070E136787002383E7B003C777B094
:102E70001377070E13678706A383E7B003C787B0EE
:102E8000136757002384E7B003C797B013074008C0
:102E9000A384E7B023020100034741001367070240
:102EA0002302E10003474100136707042302E10006
:102EB00003474100136707F82302E100034741007D
:102EC000A385E7B0230401000347810013671700BF
:102ED0002304E10003478100136727002304E10076
:102EE000034781006D9B2304E10003478100238693
:102EF000E7B0230601000347C100719B1367170069
:102F00002306E1000347C1004D9B136747002306DA
:102F1000E1000347C1001377F7FC1367070123069D
:102F2000E1000347C1001377F70313670704230683
:102F3000E1000347C100A386E7B02308010003476F
:102F40000101719B136717002308E100034701018A
:102F50001377F7FC136707022308E1000347010119
:102F60001377F703136707F82308E100034701010C
:102F70002387E7B01547A387E7B0230A010003477B
:102F80004101019B13674700230AE1000347410108
:102F90002388E7B0230C010003478101719B13676D
:102FA0001700230CE100034781014D9B1367470085
:102FB000230CE10003478101A388E7B0230E010041
:102FC0000347C101619B13672700230EE1000347FC
:102FD000C1011D9B13678700230EE1000347C10158
:102FE0007D8B13670704230EE1000347C10123898A
:102FF000E7B005618280B797001003C707B04111A1
:103000001377F70E2380E7B0230601000347C100C2
:10301000136707022306E1000347C100A385E7B059
:10302000238607B041018280EF22113093075002BE
:103030002A84AE8463F1A702376601013765010176
:1030400013068637E14513050535EFE08F95A16737
:103050009387A71239A0FD47E3EBA7FEA1679387EB
:1030600007087D883E94B70700105D8C93F4F40F39
:10307000230094006F20912DEF22112B9307500213
:103080002A8463F3A702376601013765010113063D
:1030900046389305600213050535EFE08F90B7873A
:1030A00000109387A73101A8FD47E3EAA7FEB78781
:1030B00000109387C73103C70700FD471375F70F4B
:1030C00063E98704B78700109387D73103C70700E8
:1030D000FD472207498F63E38704B7870010938772
:1030E000E73103C50700FD474205498F63ED8702BD
:1030F000B78700109387F73183C70700054533145E
:10310000850013958701598D618D3335A0006F209F
:10311000F123B78700109387B7314DBFB7870010F1
:103120009387C7317DBFB78700109387D731E9B741
:103130009378F501FD47374800106380051663E278
:10314000A7121308783383460800FD47B7450010DF
:1031500093F6F60F63EAA7109385853303C3050042
:10316000FD47374600102203B366D30063E1A71082
:103170001306963303430600FD473747001042030A
:103180003363D30063E8A70E1307A7338346070012
:103190008547B3971701E20693F8F70F33E366000C
:1031A00093C6F8FFB3F6660093F6F60F2300D80037
:1031B00093C6F7FFB3F6660013D886401378F80F6E
:1031C0002380050193D5064193F5F50F2300B60042
:1031D000E1822300D7007D47B7450010636FA70841
:1031E0009385B53303C70500FD46374600101377B6
:1031F000F70F63E7A6081306C63303480600FD462B
:1032000022083367E80063E0A608B74600109386FB
:10321000D63303C8060042083368E8007D47636977
:10322000A706374700101307E73303450700620579
:1032300033650501B3E8A800C98F93F8F80F238020
:10324000150193D5874093F5F50F2300B60013D6EB
:1032500007411376F60F2380C600E1832300F700B1
:10326000828013081834C5B593852534C5BD13066F
:10327000363409B71307473411BF938505349DB71A
:10328000130616349DBFB74600109386263451B7F7
:10329000374700101307373449BF63E7A70E1308F9
:1032A000B83383460800FD47B745001093F6F60F84
:1032B00063EFA70C9385C53303C30500FD4737466D
:1032C00000102203B366D30063E6A70C1306D633BF
:1032D00003430600FD473747001042033363D30022
:1032E00063EDA70A1307E733834607008547B397C3
:1032F0001701E20693F8F70F33E3660093C6F8FF71
:10330000B3F6660093F6F60F2300D80093C6F7FFD6
:10331000B3F6660013D886401378F80F23800501B2
:1033200093D5064193F5F50F2300B600E182230003
:10333000D7007D47B74500106364A70693857533B2
:1033400003C70500FD46374600101377F70F63ECFF
:10335000A6041306863303480600FD462208336799
:10336000E80063E5A604B74600109386963303C8C9
:10337000060042083368E8007D47636EA7023747BE
:1033800000101307A73355B51308083419BF9385E8
:1033900015341DB71306263425BF13073734A9B7D4
:1033A0009385153471BF1306263475B7B7460010E0
:1033B000938636346DBF3747001013074734B5B5D1
:1033C000EF2281761C41216711078E07BA973707D4
:1033D0000010D98F034785001305A0052380E7005F
:1033E000EFE06F866F208176EF220174D13F6F206E
:1033F000E1750199FD0563D3A500828023200500B6
:1034000013050502CDBFB78700101377F50F21858F
:103410002382E70A1375F50FA382A70A13F7F50FA6
:10342000A1852381E70A93F5F50FA381B70A1377E6
:10343000F60F21862383E70A1376F60FA383C70AC4
:1034400013F7F60FA1862384E70A93F6F60FA384F9
:10345000D70A21472385E7008280C1678507378720
:10346000001003450733218963040500054521A0A9
:10347000FD17E39807FE8280EF22016B378400106E
:103480000349040A930740048344140A2300F40AFE
:10349000930700F8A300F40A814601461379F90F57
:1034A0009D37653F93F4F40F2300240BA300940A87
:1034B0006F20C169EF224167378400100349040A75
:1034C000930740048344140A2300F40A930700F886
:1034D000A300F40A1379F90F3D37413793F4F40F41
:1034E0002300240BA300940A6F204166EF22C163DE
:1034F00041112306A10085456800BD3F41016F20B1
:10350000E164EF226162411195472A86854685452F
:1035100068002306F100793F41016F202163EF220B
:10352000A1604111930750032A86854685456800AE
:103530002306F100413741016F204161EF22C15E56
:103540004111854737040001A307F1000504130565
:10355000F1007D147D37630B04008347F100858BF8
:10356000E39707FE054541016F20415E0145E5BF38
:10357000EF22815B411185472306F1008347050057
:10358000A306F1008347150019452307F100B93F51
:10359000630605008D456800C5354D3741016F2034
:1035A000E15AEF226158194591376F20215AEF22D5
:1035B0000156AE896D711389F90F32842A8A130678
:1035C000401081456800137909F0EF20416C229981
:1035D000930A0010330A8A40094B631424010545FD
:1035E0003DA8CE8663F43A0193060010B3078A0023
:1035F00013D70701A306E10013978700C207C18311
:10360000A183D98F2317F100230661017C00814437
:1036100085076399D4007137631E05000145516128
:103620006F20215233079400034707008504A381CC
:10363000E700F9BF9385440068003D3DE30005FEC7
:10364000F53D13040410E30B05FCB389994071B7F1
:10365000EF22814D01112EC62A8402CE9937B24540
:1036600063160500014505616F20414E93D70501A2
:10367000A30EF10093978500C205C181A181DD8D64
:10368000231FB10068089145230E8100F533E30B39
:1036900005FC6D35C9BFEF222149411102C413D782
:1036A000050123060100B787001083C4070A03C47D
:1036B000170AA304E10013978500C205C181A18107
:1036C000D98D2304A1002315B1001307B00B328854
:1036D00093F4F40F36861374F40F630DE5046363FB
:1036E000A7021307B003630EE5021307B0066309D0
:1036F000E506B7870010130740042380E70AA3807C
:10370000070A3DA01307700E630FE5041307B00E00
:10371000E311E5FE130720052380E70A130740069F
:1037200005A0130710042380E70A2147A380E70AB6
:10373000914511A8130710052380E70A1307000617
:10374000A380E70A9545C286280075393933B787C3
:1037500000102380970AA380870A41016F20013F50
:1037600013072004C9B7130720052380E70A1307AE
:103770002006F9B7EF22413B2A84B73500013735DF
:1037800000019385457713056540A531A285130592
:1037900000027D3D6F20813BEF2201392A84B7353D
:1037A0000001373500019385857913056540913116
:1037B000A28513051008693D6F204139EF22C136FB
:1037C0002A84AE8437350001B73500014111938555
:1037D000C57B1305654032C629393246A685228548
:1037E000F93341016F208136EF2201342A84AE84FF
:1037F00037350001B735000141119385857E1305EA
:10380000654032C636C4F536A2463246A6852285C4
:10381000593541016F208133EF2201314111AA84D2
:1038200068002E84F93963160500014541016F20B7
:10383000E1311305D100E531E30905FE0347C1007D
:103840008347D1001377370893F737082306E10041
:10385000A306F10063850400418F2306E1001307EE
:10386000E00F6376870093E70704A306F100680082
:1038700001336DBFEF22412B2A84AE84373500011E
:10388000B74500019385458713056540EFF07FB686
:10389000A685228551376F20612B7D15B707000162
:1038A0006371F502B7F701109843C1669386A6F0DD
:1038B0005D9B98C388C7C8C798430145558F98C377
:1038C000828005458280B787001003C7270483C71D
:1038D000370461450D8B85838D8B6309070037673E
:1038E000010113078739BA9703C507008280EF22C9
:1038F000A123B707011023A0C75AB707011023A2BD
:10390000B75AAA843E84630806000546B9451305E4
:103910000003EFD03F849147639CF40001452128C8
:103920005D378327445A3305F502853F6F20012216
:103930002685B128E5BFEF22211F378700100346F7
:10394000173A8347273A8346373A0347473AA2074D
:10395000C206D58FD18F6207D98F370700F91D892D
:103960007D1762057D8F498F13D587001375F50F7D
:1039700093F6F70F22053695B706FF00F58F6183A2
:103980003E9562073A95EFD01F9A6F20211CEF22D7
:10399000A119B784001003C4340406051374940FEE
:1039A000498C1145493F1374F40FA3818404954752
:1039B0002381F404093FB707011083A7475A330551
:1039C000F502E13D0945EFD01FA86F202118EF2235
:1039D000A1151147B78700102381E704ED35B7071C
:1039E000011083A7475A3305F502453D0945EFD03D
:1039F0009FA5014589376F206115B787001003C760
:103A0000270483C737040D8B93F7F70F6302070270
:103A1000854601456311D70485878D8B638F070029
:103A20006382E70209476384E70237B5710B82803E
:103A300037356E011305056082803775DC0213058A
:103A400005C0828037A51E0913050584828037E5ED
:103A5000B805130505808280EF22010D9307803E93
:103A60003305F50219206F20610EEF22E10B2A8445
:103A7000993D33048502813DB707011083A7475A5A
:103A800037F601103305F502B7F70110D447814727
:103A90007D155846E38FE6FEB6976378D700998F79
:103AA000BA86E3E887FE6F20610AAA97CDBFB70701
:103AB000011083A7075A63870700EF22E106829768
:103AC0006F20C1088280EF2281048547AA842E845A
:103AD00063FEA70037660101376501011306463C06
:103AE0009305D0021305C539EFD0AFEB5C48639E58
:103AF000070037660101376501011306463C93054F
:103B0000E0021305C539EFD0CFE91C48639E0700DA
:103B100037660101376501011306463C9305F00243
:103B20001305C539EFD0EFE7454933892403E17721
:103B300093870706B786001096040347A4008545BF
:103B40002165058BB70900103E99A167938727056A
:103B5000BE9483C73604B3E43401420993F7E70FF8
:103B6000D98FA381F604EFD00FE783476400834623
:103B700084000347A40013861400DD8E834794005D
:103B80001359090133663601DD8E83477400DD8EDB
:103B900093E616081C40630B07103777DC02130707
:103BA00007C0B357F70293F7F70F2380F4001C40C8
:103BB0003357F70283474400BE075D8F2187137791
:103BC000F70F2300E60003464401B70700101387F0
:103BD00024005D8F2300C70003465401138734007F
:103BE0005D8F2300C7008345E400584813864400D6
:103BF0005D8E2E977D171377F70F2300E600584848
:103C00008355E400138654007D172E9721875D8E1F
:103C10001377F70F2300E60003464401138764007F
:103C20005D8F2300C70003465401138774005D8F26
:103C30002300C70003460401138784005D8F23001F
:103C4000C70003461401138794005D8F2300C7004B
:103C50008345C40018481386A4005D8E2E977D17F7
:103C60001377F70F2300E60018488355C400138626
:103C7000B4007D172E9721875D8E1377F70F2300F1
:103C8000E600034604011387C4005D8F2300C700CC
:103C900003471401B504DD8C2380E400B367F90009
:103CA000238007002380D7006F10B16937376E017A
:103CB00013070760FDB5EF12316785472A84AE848C
:103CC00063FEA70037660101376501011306063D53
:103CD0009305F0051305C539EFD0AFCC2168131655
:103CE000540013072805B70600103297558F1305A7
:103CF000C7009305D700558DD58D8348050083C730
:103D000005001308C830A207B3E717019308800421
:103D1000330414034294558C83460400858AE39D42
:103D200006FEA1689386380536963708001033667C
:103D300006010343070083460600A206B3E66600B9
:103D4000B3F61601638D0604B7060110DD8E2380DD
:103D50009600370600109306A7001308B700D18E0F
:103D60003368C80083C8060083460800A206B3E68D
:103D70001601639BF602930787002507D18F518FA9
:103D800083C6070083470700A207D58F13F7F70FF5
:103D90002300E500A1832380F5006F10315B33E839
:103DA00007012300980075B78507C207C183F9BFD3
:103DB000EF12915785472A892E84B28463FEA700AB
:103DC00037660101376501011306063E9305B00B06
:103DD0001305C539EFD0EFBCA294C204C18093177C
:103DE0000401C183639497006F1051560504834505
:103DF000F4FF4A85C935E5B7B74700100D47A38AD8
:103E0000E748B746001083C75649E30EF7FE8280A5
:103E1000B747001003C5274D8280374700108346FF
:103E2000374D8347474D0145A207D58F639807005B
:103E30000345971A1375F50F3335A0008280EF12F2
:103E4000B14EB747001083C75749054793F7F70F9F
:103E50006385E7066387070009476388E7006F10FB
:103E6000F14E13050004BD20DDBF7370043037042C
:103E700001108357E4658507231FF464EFD0BFCD9D
:103E800063080502593F63050502EF20D00A63016C
:103E90000502EF2090008D378357E465FD17C207B8
:103EA000C183231FF464E39C07FA7360043045BFA9
:103EB000B7470010A38A0748C5B7737004303707A7
:103EC00001108357E7658507231FF764EF20E07C27
:103ED000253771B7374700108346374D8347474D25
:103EE0001345F5FFA207D58F7D8D42054185937758
:103EF000F50F42054181A309F74C2181230AA74C04
:103F00008280374700108346374D8347474DA207CD
:103F10005D8D558D420541859377F50F42054181B1
:103F2000A309F74C2181230AA74C8280B7470010D0
:103F3000A384A71A8280EF12313FB7070400011152
:103F400091073EC6A5472318F100A309A100B54774
:103F50006C002D4619452309F100231A0100230B9B
:103F60000100EFE02F8A6C002D461145892E056176
:103F70006F10D13DEF12513B375700108347B7FF09
:103F8000850793F7F70FA30DF7FE83474500639569
:103F9000070283475500639F070003476500914769
:103FA000631AF700DD22B765010149469385853F15
:103FB000114531266F1091391147E39DE7FE034704
:103FC0005500E31907FE03476500E315F7FE834735
:103FD0007500E39107FE8347850013071002639283
:103FE000E7046522B765010131469385454F1145C8
:103FF000F924612AB76501013546938505501145BD
:104000007D2C6122B76501011306C00B9385055114
:10401000114575249D2AB765010135469385C55C18
:1040200041BF6D476393E7048D22B7650101130615
:1040300060099385C54011455924812AB76501015E
:1040400021469385454A11459D2C8122B765010182
:104050001306F0029385C54A114595243D22B765A4
:10406000010159469385C54DA1B72547E394E7F46F
:1040700083479500E39007F40347A500B547E31B8A
:10408000F7F20305B500453D35B7EF12F129B70743
:10409000011003A5875A3E8463040500EFD0CFCEFC
:1040A0008564138564DFEFD0AFC1138664DF81457B
:1040B0002324A45AEF10B13D370501106146814514
:1040C00013050566EF10B13C6F105128B7070110BA
:1040D00003A7875A8347370083462700A207D58F57
:1040E000B54663E7F6028507C207C1832301F700DF
:1040F000A183A301F70083471700B946850793F70B
:10410000F70F6385D700A300F7008280A3000700A4
:104110008280B707011003A7875A83473700834679
:104120002700A207D58F63870702FD17C207C18347
:104130002301F700A183A301F70083470700B946D5
:10414000850793F7F70F6385D7002300F700828078
:10415000230007008280B707011003A7875A83470F
:104160003700834627003547A207D58F637DF700C8
:10417000EF12911B376501011305C55DEFC09FF379
:1041800005456F10B11C01458280EF12F119E1372E
:10419000E31F05FE6F10911BEF12111941112A84C4
:1041A00073700430B704011083D7E465A306B1002F
:1041B0002306A1008507239FF46493D78500C1815E
:1041C000A307B10011466C001D452307F100EFD095
:1041D0007FE383D7E465FD17C207C183239FF4649F
:1041E0006394070073600430954763EC8702B767F8
:1041F00001019387475F0A043E941840B7070110F6
:1042000093870766028703C7370083C62700220704
:10421000558F0507420741832381E7002183A3814E
:10422000E70041016F10911203C7170083C6070012
:104230002207558F0507420741832380E70021832A
:10424000A380E700F9BF03C7570083C647002207D2
:10425000558F0507420741832382E7002183A3820C
:10426000E700C1B703C7770083C667002207558FF1
:104270000507420741832383E7002183A383E700E7
:104280004DB703C7970083C687002207558F0507E0
:10429000420741832384E7002183A384E70051B7C9
:1042A00003C7B70083C6A7002207558F050742073B
:1042B00041832385E7002183A385E7009DB7EF12A3
:1042C0001105B707011083A7875A1307F00F135A78
:1042D000860003C41700AA8932893304E402B38438
:1042E000870021043E942384C400A3844401130561
:1042F0002400EF109109A2854E8523832401A38316
:10430000440123823401A38204007935C1336F1044
:104310005103EF12710141112A842EC62D3D324600
:10432000630B0500376501011305C560EFC09FD819
:1043300041016F10B101A28505455137D5BFEF127C
:10434000A17E2E89B70500103367B50083460700AC
:10435000130715004D8F03440700130725004D8FE9
:104360002204558C83460700130735004D8F834484
:104370000700AA87A204D58C630804009107328540
:10438000DD8D2286EFC03FDF2310890023119900C5
:104390006F10C17B9147631AF600EF12E178137535
:1043A000F50FEF1070576F10617A8280EF12C177AE
:1043B000AA87B706001013875700558F834407005C
:1043C00013876700558F0344070032852E891374C5
:1043D000F40F1376140093F4F40F630B06024204F7
:1043E000418001479306F00E058093058700639492
:1043F000D40093057700AE97B70500102286DD8DB7
:10440000EFC07FD723108900231199006F1001742A
:104410000346070013877700558F034407000547BD
:104420002204518CC1B7EF12217083C4250083C7C9
:1044300035001547A204C207DD8C83C715001301A0
:1044400001D8DD8CB7070010DD8C83C70500636AD7
:10445000F704376701018A0713074762BA979C433D
:104460003704011013040466828770008A8526854C
:10447000F935A6850145EFF03FD2034621000355EB
:1044800001006C00013F8347F4000347E400A207EA
:10449000D98F8507C207C1832307F400A183A3072F
:1044A000F400130101286F10616A70008A85268567
:1044B000F53DA6850145EFF03FCE8347D400034785
:1044C000C400A207D98F8507C207C1832306F40061
:1044D000A183A306F400F1B713066004A685680063
:1044E000EFC07FC9A6850145EFF01FCB83471401BC
:1044F00003470401A207D98F8507C207C183230898
:10450000F400A183A308F40069BF2685EFF09FA6FD
:10451000A6850145EFF05FC88347340103472401B6
:10452000A207D98F8507C207C1832309F400A1839D
:10453000A309F400BDB7A6850145EFF0FFC5834789
:10454000540103474401A207D98F8507C207C183DD
:10455000230AF400A183A30AF400A1B7EFF07FBB04
:104560008347740103476401A207D98F8507C207F7
:10457000C183230BF400A183A30BF4001DB7B7572D
:1045800000100547A385E7BE13075003A386E7BEC7
:1045900093065003375700108347C7BE93F7F70FB2
:1045A000638607008347D7BEE388F6FE8280B7574D
:1045B0000010A38507BE8280EF12015741112AC661
:1045C0002EC432C273700430370401108357E4657F
:1045D0008507231FF4646537A245324592462E862F
:1045E000AA851305B003EFF02FA02AC2C93783575D
:1045F000E4651245FD17C207C183231FF464639469
:1046000007007360043041016F104154EF12C15133
:104610004111AA842E8932C6737004303704011008
:104620008357E4659305E00301458507231FF46480
:10463000712AB1373246CA852685EFF02F98AA84B1
:10464000BD379305E003054551228357E465FD1707
:10465000C207C183231FF4646394070073600430AE
:10466000268541016F10814EEF12014CAA847370B0
:104670000430370401108357E4659305E0030145D6
:104680008507231FF4649922DD3D2685EFF08F8E88
:10469000AA84313F9305E00305450D2A8357E4655D
:1046A000FD17C207C183231FF4646394070073607E
:1046B000043026856F108149EF120147AA84737078
:1046C0000430370401108357E4659305E003014586
:1046D0008507231FF464DD285D352685EFF0CF8B39
:1046E000AA84F1359305E0030545CD208357E465A1
:1046F000FD17C207C183231FF4646394070073602E
:10470000043026856F108144EF126140AA842E8404
:1047100001459305E00393F9F40F328A937AF40F7D
:104720007520639B09029307F00F63FC87001374E5
:1047300004F033063A013385340163193401D68518
:1047400021A05286A2852685D135A5A0930500100B
:10475000753D93890910F1BF130900109307F00FFD
:104760003309394163E18702E37D59FD5286CA85E9
:1047700013840AF02685593D4E9433062A01A285FA
:1047800033852401D1B7130404F04E94CA852685DD
:104790005286937AF40FCA94953D5299137404F09B
:1047A00081493306390133853401631A3401E398B2
:1047B0000AF89305E003054511286F108138930529
:1047C0000010EFF0BFE493890910E1BFEF12C1358B
:1047D00041112AC62EC47370043037040110835768
:1047E000E4658507231FF464EFF07FD9A2453245C5
:1047F000EFF04F88EFF0BFDB8357E465FD17C2078A
:10480000C183231FF4646394070073600430410183
:104810006F10C133EF124131EF00D16C6F100133D3
:10482000EF128130AA85376501011305C563EFC01A
:104830007F886F10A131EF12212FB704011083A5DB
:104840000404130750033764010183C73500631361
:10485000F70437050010194695051305754DEFC08F
:104860007F946309050283A504043755001041466F
:10487000C9051305C58FEFC0FF92630D05003765AD
:1048800001011305056693058465EFC0BF820145EC
:104890006F10C12B376501011305C5689305846549
:1048A000EFC05F810545EDB7EF120128B707011092
:1048B0002396075AB755001083C7B5E13765010144
:1048C0001305456B93F7F70F2380F59683C7C5E172
:1048D00093F7F70FA380F59683C7D5E193F7F70F0A
:1048E0002381F59683C7E5E193F7F70FA381F5964A
:1048F00083C7F5E193F7F70F2382F59683C705E2A7
:1049000093F7F70FA382F59603C605E283C6F5E198
:1049100003C7E5E183C7D5E103C8C5E183C8B5E1B5
:10492000B765010193858565EFC0CFF86F1001224F
:10493000B75700101377F50F238DE7A22181A38DC0
:10494000A7A213F7F50F238EE7A2A181A38EB7A22A
:104950001377F60F238FE7A22182A38FC7A213F745
:10496000F60F2380E7A4A182A380D7A48280B75743
:104970000010A386A7EA8280FD4763EEB7001567A3
:1049800081471307679F370600106397B7003757B3
:104990000010A30AF79E82803308F5000348080040
:1049A000B386E700D18E238006018507F9BFEF1299
:1049B000A117B747001009472387E726A3870726D3
:1049C0000347A500B7560010238BE6A00357A500A8
:1049D0002183A38BE6A00347A5002386E726035780
:1049E000A5002183A386E726FD4763E6C704156774
:1049F00081471307679D37080010639AC70437542F
:104A00000010A30AF49C44418547638EF406638C2E
:104A100004048947639BF402B7650101376501010E
:104A2000A30C04A0938585651305C573EFC08FE8BB
:104A3000230C94A0B9A0B7650101376501019385E6
:104A400085651305C56CEFC0EFE66F102110B388C4
:104A5000F50083C80800B386E700B3E606012380AB
:104A60001601850759BFB765010137650101A30C20
:104A700004A0938585651305C56EEFC0AFE3230CD5
:104A800004A035452DA083470495B765010137651E
:104A90000101860793F7F70F13054571A30CF4A0E6
:104AA00093858565EFC00FE13D45230C94A0EFD0C1
:104AB000AFDE61BFEF12410741111377F50F21817E
:104AC0002315B1002316C1002317D100A304A100B0
:104AD000B7570010238CE794034791004945A38CF6
:104AE000E7940347A100238DE7940347B100A38D0A
:104AF000E7940347C100238EE7940347D100A38EB8
:104B0000E7940347E100238FE7940347F100A38F65
:104B1000E794EFD00FDF41016F1041031377F50FDA
:104B2000B75700102383E7962181A383A79682803D
:104B3000EF02917F1305100CEFD00FD66F1001011B
:104B4000EF02917E1305000CEFD00FD56F1001001E
:104B5000B707011003C5C75A8280B7070110238623
:104B6000A75A8280B707011003C5C75A71151335BC
:104B700015008280EF02517BB7570010A381A7E494
:104B80004545EFD00FD86F00717CEF02F179130526
:104B9000100BEFD06FD06F00717B9307F5FF93F789
:104BA000F70F2D476373F7000D45B7570010238C9F
:104BB000A7E88280B7470010A387A7328280B74753
:104BC00000102387A726A38707268280EF02D175CE
:104BD0001377F50FB75700102185238FE7E613757C
:104BE000F50FA38FA7E655376F005176B757001022
:104BF00003C797E21377F70F63060706EF02D17238
:104C0000A38407E23704011083C687E28347845BED
:104C1000370501101307055B1396170085073297B8
:104C200093F7F70F2310D700230CF45A0D47637442
:104C3000F70291451305055BEFC01FC01375F50F13
:104C4000230C045A9307F00463F9A700B747001038
:104C50001547A387E7326F00716FB7470010A3872E
:104C60000732D5BF8280EF02316CB707011083A7EE
:104C7000070413075003A381E70011476365A70AE0
:104C800037670101130787760A053A9518410287AD
:104C9000B756001003C7969815661306B698137793
:104CA000F70F2389E70203C7A69837080010A1452C
:104CB0001377F70FA389E7020147B306C700B3E6EE
:104CC000060183C606003385E700050793F6F60F55
:104CD000230AD502E313B7FEB9A037570010834665
:104CE00047E493F6F60F2386D700834657E493F6FE
:104CF000F60FA386D700834667E493F6F60F238763
:104D0000D700834677E493F6F60FA387D700834650
:104D100087E493F6F60F2388D700034797E41377C9
:104D2000F70FA388E70079226F0051623707001060
:104D30008346774D93F6F60FA382D7008346874DBF
:104D400093F6F60F2383D7008346974D93F6F60F1D
:104D5000A383D7008346A74D93F6F60F2384D7008D
:104D60008346B74D93F6F60FA384D7000347C74D8C
:104D70001377F70F2385E700375700100347079590
:104D80001377F70F2382E70079BF156601471306F3
:104D9000C68F37080010C145B306C700B3E6060149
:104DA00083C606003385E700050793F6F60F23094F
:104DB000D500E313B7FE85BF156601471306369984
:104DC00037080010C145B306C700B3E6060183C625
:104DD00006003385E700050793F6F60F2301D50299
:104DE000E313B7FE89B7B707011083A60704094686
:104DF0009305D00383C7060003C7160022075D8F03
:104E000081473385C600034505000506AA97C207FA
:104E1000C183E318B6FE0545630EF7008147FD55D3
:104E20001307D0033386F6002300B6008507E39B03
:104E3000E7FE01458280B707011083A607040947F2
:104E400081471306D003B385E60083C50500050737
:104E5000AE97C207C183E318C7FE2390F600828095
:104E6000EF02914C73700430370401108357E465EE
:104E70008507231FF464EFF08FF0B707011003A636
:104E8000070437D507009305D00313050510EFF08D
:104E9000AFF2EFF0CFF18357E465FD17C207C1838E
:104EA000231FF4646394070073600430EFF0BFF3D2
:104EB0006F00D149EF025147BD3F73700430370492
:104EC00001108357E465B7D407008507231FF464F6
:104ED000EFF0EFEA13850410EFF00FF9B7070110B8
:104EE00003A607049305D00313850410EFF00FF217
:104EF000EFF0EFEB8357E465FD17C207C183231F73
:104F0000F46463940700736004306F003144EF026F
:104F1000B14115246306050A3705011095658147DF
:104F20009385C58FB708001041482A8703260504DA
:104F3000B386B700B3E616013E9603462601850701
:104F40001376F60F2380C600E39207FF81473705EB
:104F500000109945032607049386774DC98E3E9627
:104F60000346560085071376F60F2380C600E393A9
:104F7000B7FE9565814793853599370800104145FF
:104F800003260704B386B700B3E606013E96034640
:104F9000260285071376F60F2380C600E392A7FE4C
:104FA000832707043757001083C7470093F7F70F8D
:104FB0002308F79485472306F7900D2C6F001139CD
:104FC000B70701102386075AD5BF83C7050013070B
:104FD000000E6360F716EF02313513074004638358
:104FE000E70E636BF70413079002638BE70E6362AF
:104FF000F7025147638CE70A5547638CE70AB70706
:10500000011003C7C75AB7570010A385E7E46F0024
:10501000F13313070004638AE70A13071004638758
:10502000E71013070003E39CE7FCB707001003C574
:105030009751EFF0EFFEE1B7130750096380E70CDB
:105040006361F7021307A0066386E70813074009A8
:105050006382E70C13075006E393E7FAEF008168D9
:1050600079BF1307B009638AE7061307200A63862E
:10507000E70013079009E394E7F8B7650101376586
:105080000101938585651305857DEFC0AF82B70764
:10509000011083A70704130760031145238EE7025D
:1050A000EFF07FBCA122EF00415191BFEF00816082
:1050B000B9B7B757001003C537E41375F507EF000C
:1050C000A15435BFEFF090651DBFB7D7011083C75E
:1050D000379C35B7EFF00FF41DB7EF00A14805B7C7
:1050E000B7650101376501011305C57793858565AE
:1050F000EFB05FFC0545EFF01FB711B7B7650101D1
:10510000376501011305857993858565EFB09FFAB1
:105110000945D5B7B7650101376501011305857BE1
:1051200093858565EFB01FF90D45F1B7EF00C13FDD
:10513000F9B582808280B707011083A7070403C5F1
:10514000C7031305A5FC133515008280EF02D11D9E
:10515000B707011083A70704130750032381E70053
:10516000EFF05FD5B7570010238107986F00111E2D
:10517000EF02911BB707011083A70704238E0702D4
:10518000A3810700EFF01FD36F00511C95671387B1
:10519000C78F370600109387C790B366C700238078
:1051A00006000507E31BF7FEB7570010238607909C
:1051B0008280EF027117376501011305C57FEFB0DB
:1051C0007FEF370501101306D003814513054568AD
:1051D000EF00F12BEFF0DFF9EFF05FF7EFF01FFBDF
:1051E000B70701102386075A6F005116B747001002
:1051F00083C7073F0D47FD1793F7F70F637CF70051
:10520000EF0291123775010113054581EFB09FEA56
:105210006F00D1133757001083460795B707011069
:1052200093F6F60F639E06029306500395652308D6
:10523000D7CE938515CF014737080010194503A62F
:105240000704B306B700B3E606013A9603465600D4
:1052500005071376F60F2380C600E312A7FE8280AF
:1052600083A607049305000C03C6A6001376060C5C
:10527000631EB6029306500395652308D7CE938527
:1052800015CF014737080010194503A60704B306D8
:10529000B700B3E606013A960346560005071376B3
:1052A000F60F2380C600E312A7FE828003C6A60085
:1052B000930500041376060C6315B6069306600387
:1052C00095652308D7CE938515CF01473708001081
:1052D000194503A60704B306B700B3E606013A96DC
:1052E0000346560005071376F60F2380C600E31227
:1052F000A7FE95650147938575CF37080010414596
:1053000003A60704B306B700B3E606013A960346C0
:10531000260205071376F60F2380C600E312A7FEC8
:10532000828083C6A60093F6060C63970608930650
:10533000700395652308D7CE938515CF01473708AD
:105340000010194503A60704B306B700B3E606012B
:105350003A960346560005071376F60F2380C600DB
:10536000E312A7FE03A70704B7560010956503478D
:105370002703938595CF370800101377F70FA38B7A
:10538000E6CE03A707042145034737031377F70F3A
:10539000238CE6CE014703A60704B306B700B3E6A5
:1053A00006013A960346460305071376F60F238057
:1053B000C600E312A7FE82808280EF02E176B74743
:1053C000001083C4073F0D4793F4F40F9387F4FF55
:1053D00093F7F70F637AF7003775010113054581DD
:1053E000EFB05FCD6F008176014422850504137410
:1053F000F40F2120E39B84FEF5B7E1473305F50266
:105400001567930707CF130787D0B70600101375EA
:10541000F50FAA973A9533E7D700230007008507D1
:10542000E39BA7FE8280B707011083A7075C05678F
:105430006386E70037070400639BE702EF02C16E53
:10544000CD07411113D707012306E100014513D70A
:105450008700A306E1002307F100EFF0EFA0700042
:105460008D450145EFF04FAAEFC00F8001A009451F
:105470008280EF02C169370601101306065C8D4574
:105480000145EFF06F93370401109307C45BD843D5
:10549000C166938606F0F98E93570701B6974207C7
:1054A000B706FF00758FB517BA9705671304C45B7D
:1054B000639CE702B70704005CC0032984008144B1
:1054C000B70901101359C90013850900EFD0DFF1A6
:1054D0005C401395C40085043E95EFF0EF98E375AA
:1054E00099FE05456F00E165B70604000145E39BA1
:1054F000D7FE58C0D9B7B70701109387C75B23A061
:10550000070023A2070023A4070023A6070023A85F
:1055100007008280EF02A15F7971AE842A841306AE
:1055200000028145080802C4231601002307010078
:10553000EF00E17503C704009307A00B6313F72E78
:1055400083C714001307100C6386E7106365F70226
:105550001307000C638EE704B70701109387C75B3E
:1055600023A0070023A2070023A4070023A6070007
:1055700023A80700F1A8370401101307200C130417
:10558000C45B638FE7141307F00FE397E7FC3775ED
:10559000010113058585EFB0FFB12320040023220C
:1055A00004002324040023260400232804004DA023
:1055B000154785476313E422370901108347C95B08
:1055C00001441309C95B63830702F1779387B70A24
:1055D00041652314F1001146930740062C00130582
:1055E000E5FD2305F1001144EF00F02D8547230070
:1055F000F90083C7340003C72400A207BA9703C782
:1056000044004207BA972324F900EFF09FE6894748
:105610006305051C1C18A2971307B0FA238CE7FC3E
:105620001C18A297130700FCA38CE7FC1C18A29778
:1056300013074006238DE7FC1C18A297A38D07FCD7
:105640001306440041652C001305E5FDEF00B0276B
:10565000814761A2370401101307C45B834607002A
:105660001304C45B8547638A06168357270003C764
:10567000340083C52400220763890700938617003E
:105680003306B7008D47639AC6142E9783C554001E
:1056900083C744002311E400A205BE959147638EA1
:1056A00005121C484840138664003E95EFF0CF85F4
:1056B00083C7540003C744001146A207BA9718488D
:1056C000BA971CC8F1779387B71A2314F10083C7E0
:1056D00024002305F10083C73400A305F1009DB722
:1056E000F1779387B72A2314F10083C724000C486D
:1056F000377501012305F10083C7340013050583C5
:105700000149A305F100FD49EFB0DF9A0C48637A27
:10571000B9044840B385254110084A9563F6B9029B
:1057200093050002EFE05FE95844814793060002C9
:1057300010083E960346060085073297E39AD7FE87
:1057400058C413090902D9B7EFE01FE71C485844B1
:10575000814633892741814763E527096383060032
:1057600058C44C443775010113054584EFB09F942C
:1057700083C7540003C74400A207BA9703C7640055
:105780004207BA9758446318F70683C7840003C7D3
:105790007400A207BA9703C794004207BA97184843
:1057A000631BF70441659307500515462C0013054C
:1057B000E5FD2306F100EF0010115945EFF08FBB16
:1057C0003705011013050500EFD01FC21305C02BCC
:1057D000EFE08FA8EFF03FC5AA873E8545616F00D7
:1057E00041361418BE9683C606FE850793F7F70F59
:1057F0003697854695B74165FD5715462C0013052C
:10580000E5FD2306F100EF00100C9547232004006E
:105810002322040023240400232604002328040058
:105820006DBF85475DBFB757001013076002238522
:10583000E7EA05472381E7E8930620FC2382D7E8BF
:10584000A381E7E8A383E7E88280EF02E12D41111D
:105850008547A304A1002315B10028009545230422
:10586000F1002306C100EF00300041016F00012E5E
:10587000EF02812B41112EC632C4EF0001026306F4
:1058800005002246B245EFF0B00D41016F00012C3A
:10589000EF028129B707011003C5276C4111EFF012
:1058A000D07F63070502E547AA8485456800230683
:1058B000F10037040110EF00207B0346146CB7356C
:1058C0000110938585122685EFF09009A300046CE2
:1058D00041016F00A127EF0281231171AE842A8458
:1058E0001306001081450A85EF00613A83C7340032
:1058F00003C7240037090110A207BA970345196CA2
:10590000C207C1836315F5008D4763E3870001A0DB
:10591000B7370110938787121306C4FF938544009D
:105920003E9583C90400EF004126DD472286A68507
:10593000130511002300F100EF0021259305140049
:1059400093F5F50F0A85EF002072B7070110238148
:10595000376D8347196CF1173E941374F40FA3004D
:10596000896C9307F00F6313F40001A011616F00BD
:10597000411DEF02611BAA8403C5150083C7050002
:10598000411122053E95420541812E84EFF0F070D1
:10599000630205022A89CD47854568002306F10088
:1059A000E1251386E4FF1376F60F930524004A855C
:1059B000EFF0007B41016F006119EF02E11303C4B6
:1059C000150083C7050083C4350022043E9483C7B5
:1059D000250029711306C5FF1376F60F9105A20461
:1059E00013055101BE94230AC100EF00011AB757F5
:1059F000001003C717E483C927E41306001081458C
:105A00004204C204A20988004180C180B3E9E900D0
:105A1000EF00E1275008A6852285EFF0F06A631AAF
:105A200005002946A2854145EFF03FE231616F0054
:105A30006110835785000947AA8D638BE70E938A0F
:105A400007FF93BA1A00814B45479107416B23002A
:105A5000E104A300F1040944051BC14C6375340D36
:105A600003DD8D0003DA0D0083A5CD00137CFD0F4F
:105A70006A861305D1022314410323068103130907
:105A80004400EF008110B307890163CEF9081305C4
:105A90001A0042055008A6854181EFF0F062AA8DF8
:105AA000DA8763040500835705FF980222972300D5
:105AB00047F1130714004207940241833697135AA3
:105AC0008A00230047F113072400420741830D0495
:105AD0003697420942042300F7F02315F10213D749
:105AE0008700135909013EC641809C0036943385D6
:105AF000270162869305D1022300E4F0EF00E1085C
:105B00001374FD0F03D78D002299131409018946E0
:105B10004180B2476301D70263139701854A6384CA
:105B20006701E39D5BF39375F40F8800352BFDBD92
:105B3000814A854B11BF854BDDB7EFF2F07E034400
:105B40001500834505008347250022042E948345D4
:105B5000350042044180A205BE95C2054111C181B4
:105B600022852EC6EFF0705363020502835785002D
:105B7000B24563E7B700EFF0C04041016FF0107D20
:105B80002D46A2853145EFF05FCCC5BF2946D5BF74
:105B9000EFF2907983451500834705004111A20576
:105BA000BE95C205C1812E852EC6EFF0104FB245BD
:105BB00063070500EFF0C04741016FF030792946D7
:105BC0002945EFF09FC8CDBFEFF2707483C4150074
:105BD00083C7050003CA3500A204BE9483C725000D
:105BE0002D711306C5FF1376F60F9105220A1305D2
:105BF000D1003E9A2306C100EFF03079B75700106C
:105C000003C917E4130600108145C204420A0810B4
:105C1000C180135A0A019379F90F03C927E4EF00F1
:105C200001077000D2852685EFF0104A631A05003F
:105C30002946A6852145EFF05FC115616FF07070B0
:105C4000B7C501012A8409469385453A1305D10059
:105C5000EFF05071631E050CA5472300F102834746
:105C600024011379F90F2209950733693901A3003B
:105C7000F102894463F9240B83472401938954007A
:105C8000CE976342F90A035704001C12A69723809B
:105C9000E7F093871400C2071812C183BA9703571D
:105CA00004001412C20921832380E7F05C4493D9D5
:105CB000090103C7070093872400C207C183B69771
:105CC0002380E7F00347040093873400C207C183B1
:105CD000B69705072380E7F0835704009104C204B8
:105CE000C1808507B694A1872380F4F00346240180
:105CF0004C481C1033853701EFF030690355040020
:105D000083442401700009054205CE94D285418167
:105D1000C204EFF0703BC1802A84630605008357FC
:105D20000500E39947F593F5F40F0810352E31B7C8
:105D3000B7C5010109469385053A1305D100EFF077
:105D400070620356840025474C442300E102937798
:105D5000F60F631D05089907A300F102835704009D
:105D600028102301F10283570400A183A301F1024B
:105D7000EFF0B06189472306F100B7C701019387AF
:105D8000C73983C607000357840083C71700A306DB
:105D9000D100544441649304870070001377F70FD7
:105DA000930514FE05452307F100EFF0D038835723
:105DB00005007000930514FE2302F10283570500CD
:105DC000C204C180A183A302F102035505000505A9
:105DD00042054181EFF0502F835705FF2303F10265
:105DE000835705FFA183A303F10235BF8907A300F1
:105DF000F1028357040048102301F1028357040085
:105E0000A183A301F102EFF0505883548400910460
:105E1000C204C18009BFEFF2305183C4150083C7AB
:105E2000050003C43500A204BE9483C725002204E4
:105E300001113E9489472306F10083C74500C2043F
:105E40004204A306F10083C755001307A5FFC180D4
:105E50004180938665001377F70F7000A285268531
:105E60002307F10002C223040100EFF0D02C631AD3
:105E700005002946A6851145EFF03F9D05616FF0AD
:105E8000F04C9D472302F100035505007000A285E8
:105E900093578500A302A100050542054181230314
:105EA000F100EFF07022631C05008557A303F10099
:105EB000FD57954548002304F1007D22C1B7835763
:105EC00005FFA303F100A183EDB7EFF250440344B3
:105ED0001500834705000347250022043E948347AD
:105EE000350011714204A207BA9793990701B75779
:105EF000001003C717E403CA27E413060010814506
:105F0000220A0A854180336AEA00EFF05058228560
:105F1000EFF0B018631A05002946A2851145EFF08D
:105F2000DF9211616FF0F04195472300F100834645
:105F30002500414793D90901AA8489476383E60074
:105F40008547A300F10009446375440783C7240013
:105F500013092400CA97634EFA0403D7040093057B
:105F600014001C02A297C2052380E7F0C1811C0225
:105F7000BE9583D70400420913590901A1832380E8
:105F8000F5F003C62400CC4033052101EFF0F03FCB
:105F900003C4240003D504004A9442044180637A78
:105FA0003501050542054181EFF0300FAA84E31D5C
:105FB00005F89375F40F0A854528A5B7EFF2D0369A
:105FC0002E84AE862A86AA84B77501013775010131
:105FD0009385C58613054587EFB0CF8D9377F40F72
:105FE0006364940093F7F40F37570010A300F7E4AD
:105FF000A68763739400A287C207C183A183375722
:1060000000102301F7E46FF07034EFF2F03141112A
:10601000231601008D473754001023070100230683
:10602000F1008347649603477496AA84A306F1009F
:10603000834764968347749668008D452307F10073
:10604000252003C5140003C70400834564968347D5
:10605000749622053A95A2074205DD8D4181EFF045
:10606000FFF541016FF0902EEFF2102C41112A84C0
:106070002EC6EFE03FAF63060500B2452285EFE094
:106080004FA941016FF0902CEFF2102A4111231615
:1060900001008947230701002306F100B7570010CC
:1060A00003C7679683C677966800A306E10003C717
:1060B000679683C777968D452307F100EFF0DFFAE7
:1060C00041016FF0B028EFF230261171AA842E89B9
:1060D0003284EFE03FA9630E05021306E00F81450D
:1060E00013052100EFF0B03AED47A3009100CA85F7
:1060F000A1802286130531002300F10023019100C5
:10610000EFF0B0289305340093F5F50F0A85EFF012
:10611000BFF511616FF09023EFF2102103C6050067
:10612000A9476300F60E63E5C7049147630FF60ABB
:1061300063E3C70289476300F6088D476303F608E7
:10614000B7750101377501019385C5861305C58AA9
:10615000EFA05FF6ADA09947630EF608A147E311E3
:10616000F6FE7D1585051375F50FEFF0FFA581A8E7
:10617000C9476302F60A63EFC700B1476308F60830
:10618000C147E31FF6FA7D1585051375F50FEFF08E
:10619000DF8235A0E1476307F60893072005630611
:1061A000F608D947E31EF6F87D1585051375F50F3A
:1061B000EFF06FF229A013851500EFF01FE56FF0E7
:1061C000F01803C5250083C61500B757001003C794
:1061D000679683C7779622053695A2074205B3E5F1
:1061E000E7004181EFF09FDDD9BF13851500EFF087
:1061F000DFCDF1B77D1585051375F50FEFF0BFC144
:106200007DBF13851500EFF0BF9855BF13851500AE
:10621000EFF0BF926DB77D1585051375F50FEFF0A3
:106220004FF571BFEFF0CFE659BF1306D5FF03C599
:10623000250083C715001376F60F22053E9542050B
:106240008D054181EFF0CFE29DBFEFF2700B13D7C8
:106250008500937AF50F137905F01375F50F930701
:1062600017002E959306001011712E84328A8149F1
:1062700093F7F70F63DAA6009306F00F63E6B60014
:106280009307270093F7F70FA207B3842701130B97
:10629000F00F930B00106395240111616FF0D0098A
:1062A0000A86930500104A85EFE00FB1B3878A0094
:1062B0003305510122866358FB00B3895B41C20953
:1062C00093D909014E86D285EFF0300C4A85EFE074
:1062D000AFBE330434414A850A8693050010420458
:1062E000EFE0CFB21309091041804E9A814A65B799
:1062F000EFF2900341113000A145EFE0EFAB2245F2
:1063000041010505133515006FF05004411122C4F9
:1063100026C24AC006C60008A1472A89A14463E3F1
:10632000F500AE84C204C1809387F4009183920784
:106330003301F140C1652686FD150A85EFF0301561
:106340000A86A6854A85EFF05FF0130104FFB2408C
:1063500022449244024941018280EFF2407BB747D8
:10636000FCFFAA97130700104111AA842E89B28955
:106370006365F704EFF0DFF72A84631C0502A1458B
:1063800030002685EFE04FA38355C10093970501A8
:10639000C18763CC070063E0B90222454A86EFE07B
:1063A000AFA1228541016FF0C0794A8691452685CB
:1063B000FDB70544FDB70944EDB730008545EFE072
:1063C000AF9F034781009307F00F0544E30BF7FCF1
:1063D0004A86CE852685EFE02F9E0144D9B7EFF29D
:1063E0000073854741112E84B2846394F604B7C9C3
:1063F00003002A8993070510630D35013000A1457C
:106400006115EFE06F9B2247636837018357C10036
:10641000BA973EC4231691003000A1454A85EFF09B
:10642000DFE222452286A685EFF03FE241016FF0D0
:10643000407189476395F6002E86A685F5B703C798
:10644000150083C70500300022075D8F83C7250034
:10645000C2075D8F83C73500A145E207D98F3EC4CF
